23700000         21718578600016155571               034843000000317512P CONSTRUTORA BARBOSA MELLO S/A                                         20408202221502300000108001600PROCESSADO                                                           
23700011C3001040 21718578600016155571               034843000000317512P CONSTRUTORA BARBOSA MELLO S/A                                         AVENIDA PORTUGAL                                  BELO HORIZONTE           000MG        00        
2370001300001A0000002370168530000000906476 REYNALDO DE OLIVEIRA          0000000000000000000004082022BRL000000000000000000000001688456PGIT010000008869    040820220000000016884560000000000000000000000000000000000000000            000        
2370001300002B   100025330829615                                                                                          000          000000001688456000000000000000000000000000000000000000000000000000000000000                              
2370001300003A0000002370645050000000136298 DIEGO FELIX ALVES             0000000000000000000004082022BRL000000000000000000000000275416PGIT010000009103    040820220000000002754160000000000000000000000000000000000000000            000        
2370001300004B   100004137022194                                                                                          000          000000000275416000000000000000000000000000000000000000000000000000000000000                              
2370001300005A0000002370141170000000304611 VILAMAR SOARES DOS SANTOS     0000000000000000000004082022BRL000000000000000000000000385664PGIT010000009104    040820220000000003856640000000000000000000000000000000000000000            000        
2370001300006B   100085814733268                                                                                          000          000000000385664000000000000000000000000000000000000000000000000000000000000                              
2370001300007A0000002370732020000002976919 WELLITON BRANDAO CALACO       0000000000000000000004082022BRL000000000000000000000000133819PGIT010000008904    040820220000000001338190000000000000000000000000000000000000000            000        
2370001300008B   100061039506356                                                                                          000          000000000133819000000000000000000000000000000000000000000000000000000000000                              
2370001300009A0000002370645050000000115991 KENNEDY DE OLIVEIRA SILVA     0000000000000000000004082022BRL000000000000000000000000238327PGIT010000008905    040820220000000002383270000000000000000000000000000000000000000            000        
2370001300010B   100001104928388                                                                                          000          000000000238327000000000000000000000000000000000000000000000000000000000000                              
2370001300011A0000002370200870000000912565 JEFFERSON PAULO GOMES LIMA    0000000000000000000004082022BRL000000000000000000000000341729PGIT010000008906    040820220000000003417290000000000000000000000000000000000000000            000        
2370001300012B   100001029474222                                                                                          000          000000000341729000000000000000000000000000000000000000000000000000000000000                              
2370001300013A0000002370303920000000119571 MARINALDO SAGICA              0000000000000000000004082022BRL000000000000000000000000285472PGIT010000008870    040820220000000002854720000000000000000000000000000000000000000            000        
2370001300014B   100000352157208                                                                                          000          000000000285472000000000000000000000000000000000000000000000000000000000000                              
2370001300015A0000002370196740000003510042 LEONARDO ALVES DE OLIVEIRA    0000000000000000000004082022BRL000000000000000000000000492024PGIT010000008884    040820220000000004920240000000000000000000000000000000000000000            000        
2370001300016B   100000127502203                                                                                          000          000000000492024000000000000000000000000000000000000000000000000000000000000                              
2370001300017A0000002370138890000000436356 ENIVALDO DE SOUSA SILVEIRA    0000000000000000000004082022BRL000000000000000000000000194436PGIT010000008885    040820220000000001944360000000000000000000000000000000000000000            000        
2370001300018B   100041293800368                                                                                          000          000000000194436000000000000000000000000000000000000000000000000000000000000                              
2370001300019A0000002370196740000000445177 ALISON COELHO DE SOUZA        0000000000000000000004082022BRL000000000000000000000000483303PGIT010000008886    040820220000000004833030000000000000000000000000000000000000000            000        
2370001300020B   100096773235634                                                                                          000          000000000483303000000000000000000000000000000000000000000000000000000000000                              
2370001300021A0000002370141170000000198471 PAULO DE OLIVEIRA             0000000000000000000004082022BRL000000000000000000000000202559PGIT010000008887    040820220000000002025590000000000000000000000000000000000000000            000        
2370001300022B   100000670938335                                                                                          000          000000000202559000000000000000000000000000000000000000000000000000000000000                              
2370001300023A0000002370102780000000184861 SERGIO RICARDO CORREA LICA    0000000000000000000004082022BRL000000000000000000000000110653PGIT010000009166    040820220000000001106530000000000000000000000000000000000000000            000        
2370001300024B   100006049108358                                                                                          000          000000000110653000000000000000000000000000000000000000000000000000000000000                              
2370001300025A0000002370645050000000150339 MARCOS ANDRADE DA SILVA       0000000000000000000004082022BRL000000000000000000000000388816PGIT010000009105    040820220000000003888160000000000000000000000000000000000000000            000        
2370001300026B   100001272854230                                                                                          000          000000000388816000000000000000000000000000000000000000000000000000000000000                              
2370001300027A0000002370573200000000036048 DANIEL RIBEIRO SOARES         0000000000000000000004082022BRL000000000000000000000000115735PGIT010000009160    040820220000000001157350000000000000000000000000000000000000000            000        
2370001300028B   100004067962207                                                                                          000          000000000115735000000000000000000000000000000000000000000000000000000000000                              
2370001300029A0000002370200870000000351806 JOARLAN BARROS VIANA          0000000000000000000004082022BRL000000000000000000000000200953PGIT010000009076    040820220000000002009530000000000000000000000000000000000000000            000        
2370001300030B   100000583569323                                                                                          000          000000000200953000000000000000000000000000000000000000000000000000000000000                              
2370001300031A0000002370200870000005198003 JUARES SILVA DE SOUSA         0000000000000000000004082022BRL000000000000000000000000189586PGIT010000009137    040820220000000001895860000000000000000000000000000000000000000            000        
2370001300032B   100024451029287                                                                                          000          000000000189586000000000000000000000000000000000000000000000000000000000000                              
2370001300033A0000002370200870000000662844 PAULO SERGIO VIEIRA DA SILVA  0000000000000000000004082022BRL000000000000000000000000150302PGIT010000009077    040820220000000001503020000000000000000000000000000000000000000            000        
2370001300034B   100002991234210                                                                                          000          000000000150302000000000000000000000000000000000000000000000000000000000000                              
2370001300035A0000002370138890000000436208 EDSON MORAES COSTA DA SILVA   0000000000000000000004082022BRL000000000000000000000000190179PGIT010000009078    040820220000000001901790000000000000000000000000000000000000000            000        
2370001300036B   100002095439309                                                                                          000          000000000190179000000000000000000000000000000000000000000000000000000000000                              
2370001300037A0000002370141170000000436119 JOSE RAIMUNDO COSTA DO NASCIME0000000000000000000004082022BRL000000000000000000000000201971PGIT010000009079    040820220000000002019710000000000000000000000000000000000000000            000        
2370001300038B   100066208173353                                                                                          000          000000000201971000000000000000000000000000000000000000000000000000000000000                              
2370001300039A0000002370303920000000080195 JOSIVALDO DE SOUSA            0000000000000000000004082022BRL000000000000000000000000200961PGIT010000009080    040820220000000002009610000000000000000000000000000000000000000            000        
2370001300040B   100005546115386                                                                                          000          000000000200961000000000000000000000000000000000000000000000000000000000000                              
2370001300041A0000002370101110000008221693 ELIEZEX PORTO PAIVA           0000000000000000000004082022BRL000000000000000000000000284861PGIT010000009081    040820220000000002848610000000000000000000000000000000000000000            000        
2370001300042B   100066136954249                                                                                          000          000000000284861000000000000000000000000000000000000000000000000000000000000                              
2370001300043A0000002370212100000000279552 ANDERSON SOUSA CARVALHO       0000000000000000000004082022BRL000000000000000000000000351862PGIT010000009082    040820220000000003518620000000000000000000000000000000000000000            000        
2370001300044B   100095289313320                                                                                          000          000000000351862000000000000000000000000000000000000000000000000000000000000                              
2370001300045A0000002370065130000004108221 MARCOS LOPES DE SOUZA         0000000000000000000004082022BRL000000000000000000000000277819PGIT010000009083    040820220000000002778190000000000000000000000000000000000000000            000        
2370001300046B   100076301770463                                                                                          000          000000000277819000000000000000000000000000000000000000000000000000000000000                              
2370001300047A0000002370392920000005556236 KLEYTON DE LIMA MENEZES       0000000000000000000004082022BRL000000000000000000000000256478PGIT010000009084    040820220000000002564780000000000000000000000000000000000000000            000        
2370001300048B   100087008890320                                                                                          000          000000000256478000000000000000000000000000000000000000000000000000000000000                              
2370001300049A0000002370138890000000286133 JOAO BATISTA BRITO DOS SANTOS 0000000000000000000004082022BRL000000000000000000000000240391PGIT010000009085    040820220000000002403910000000000000000000000000000000000000000            000        
2370001300050B   100092698786272                                                                                          000          000000000240391000000000000000000000000000000000000000000000000000000000000                              
2370001300051A0000002370200870000005766087 GENIVALDO DA CRUZ DEMETRIO    0000000000000000000004082022BRL000000000000000000000000190249PGIT010000009086    040820220000000001902490000000000000000000000000000000000000000            000        
2370001300052B   100063732637204                                                                                          000          000000000190249000000000000000000000000000000000000000000000000000000000000                              
2370001300053A0000002370200870000000463558 MARCO MARTINS CAMPOS          0000000000000000000004082022BRL000000000000000000000000447292PGIT010000009087    040820220000000004472920000000000000000000000000000000000000000            000        
2370001300054B   100003427659658                                                                                          000          000000000447292000000000000000000000000000000000000000000000000000000000000                              
2370001300055A0000002370200870000000837539 RAIMUNDO FARIAS RAMOS         0000000000000000000004082022BRL000000000000000000000000189781PGIT010000009088    040820220000000001897810000000000000000000000000000000000000000            000        
2370001300056B   100000059489243                                                                                          000          000000000189781000000000000000000000000000000000000000000000000000000000000                              
2370001300057A0000002370102780000000217026 GUSTAVO HENRIQUE MENDES       0000000000000000000004082022BRL000000000000000000000000181908PGIT010000009106    040820220000000001819080000000000000000000000000000000000000000            000        
2370001300058B   100062190362393                                                                                          000          000000000181908000000000000000000000000000000000000000000000000000000000000                              
2370001300059A0000002370752640000001026100 AUIBIAS SILVA MOURA           0000000000000000000004082022BRL000000000000000000000000223417PGIT010000009107    040820220000000002234170000000000000000000000000000000000000000            000        
2370001300060B   100003796367275                                                                                          000          000000000223417000000000000000000000000000000000000000000000000000000000000                              
2370001300061A0000002370141170000000332909 WELLINGTON CARLOS DOS SANTOS C0000000000000000000004082022BRL000000000000000000000000231373PGIT010000009108    040820220000000002313730000000000000000000000000000000000000000            000        
2370001300062B   100060223174360                                                                                          000          000000000231373000000000000000000000000000000000000000000000000000000000000                              
2370001300063A0000002370072180000005212782 KLEBER DA SILVA SANTOS        0000000000000000000004082022BRL000000000000000000000000250835PGIT010000009109    040820220000000002508350000000000000000000000000000000000000000            000        
2370001300064B   100060234670320                                                                                          000          000000000250835000000000000000000000000000000000000000000000000000000000000                              
2370001300065A0000002370200870000007009054 RONILDO NEVES COSTA PEREIRA   0000000000000000000004082022BRL000000000000000000000000205077PGIT010000009110    040820220000000002050770000000000000000000000000000000000000000            000        
2370001300066B   100003071123302                                                                                          000          000000000205077000000000000000000000000000000000000000000000000000000000000                              
2370001300067A0000002370141170000005501474 JOSE DOS REIS FERREIRA CHAVES 0000000000000000000004082022BRL000000000000000000000000189828PGIT010000008873    040820220000000001898280000000000000000000000000000000000000000            000        
2370001300068B   100029238919372                                                                                          000          000000000189828000000000000000000000000000000000000000000000000000000000000                              
2370001300069A0000002370200870000000734500 DIOGO RIBEIRO DA COSTA        0000000000000000000004082022BRL000000000000000000000000592089PGIT010000008874    040820220000000005920890000000000000000000000000000000000000000            000        
2370001300070B   100097497100297                                                                                          000          000000000592089000000000000000000000000000000000000000000000000000000000000                              
2370001300071A0000002370141170000000012149 ADRIANO COIMBRA ELISEU SANTOS 0000000000000000000004082022BRL000000000000000000000000062849PGIT010000008875    040820220000000000628490000000000000000000000000000000000000000            000        
2370001300072B   100090881494291                                                                                          000          000000000062849000000000000000000000000000000000000000000000000000000000000                              
2370001300073A0000002370101110000000126039 JORGE PAULO ARAUJO            0000000000000000000004082022BRL000000000000000000000000165726PGIT010000008876    040820220000000001657260000000000000000000000000000000000000000            000        
2370001300074B   100077942230325                                                                                          000          000000000165726000000000000000000000000000000000000000000000000000000000000                              
2370001300075A0000002370141170000000328324 DANIEL GOMES DA SILVA         0000000000000000000004082022BRL000000000000000000000000204111PGIT010000008877    040820220000000002041110000000000000000000000000000000000000000            000        
2370001300076B   100003544690292                                                                                          000          000000000204111000000000000000000000000000000000000000000000000000000000000                              
2370001300077A0000002370645050000000132578 LEANDRO DOS SANTOS SILVA      0000000000000000000004082022BRL000000000000000000000000302310PGIT010000008878    040820220000000003023100000000000000000000000000000000000000000            000        
2370001300078B   100060304947326                                                                                          000          000000000302310000000000000000000000000000000000000000000000000000000000000                              
2370001300079A0000002370716090000004477170 JOAO COLACO RODRIGUES JUNIOR  0000000000000000000004082022BRL000000000000000000000000110653PGIT010000009167    040820220000000001106530000000000000000000000000000000000000000            000        
2370001300080B   100061676587306                                                                                          000          000000000110653000000000000000000000000000000000000000000000000000000000000                              
2370001300081A0000002370200870000000788716 MARCO WAGNER SOUSA SILVA      0000000000000000000004082022BRL000000000000000000000000093384PGIT010000009168    040820220000000000933840000000000000000000000000000000000000000            000        
2370001300082B   100060942851234                                                                                          000          000000000093384000000000000000000000000000000000000000000000000000000000000                              
2370001300083A0000002370167210000000610542 RUAN GOMES DE MELO            0000000000000000000004082022BRL000000000000000000000000110653PGIT010000009169    040820220000000001106530000000000000000000000000000000000000000            000        
2370001300084B   100008255422277                                                                                          000          000000000110653000000000000000000000000000000000000000000000000000000000000                              
2370001300085A0000002370617600000003247082 BRUNO LENO CUTRIM DE OLIVEIRA 0000000000000000000004082022BRL000000000000000000000000106462PGIT010000009170    040820220000000001064620000000000000000000000000000000000000000            000        
2370001300086B   100010474837343                                                                                          000          000000000106462000000000000000000000000000000000000000000000000000000000000                              
2370001300087A0000002370141170000000431133 LINDOMAR CRUZ SOARES SAMPAIO F0000000000000000000004082022BRL000000000000000000000000106462PGIT010000009171    040820220000000001064620000000000000000000000000000000000000000            000        
2370001300088B   100009370162330                                                                                          000          000000000106462000000000000000000000000000000000000000000000000000000000000                              
2370001300089A0000002370529730000000025070 JOSE MARIA ARAUJO JUNIOR      0000000000000000000004082022BRL000000000000000000000000153197PGIT010000009172    040820220000000001531970000000000000000000000000000000000000000            000        
2370001300090B   100099619512200                                                                                          000          000000000153197000000000000000000000000000000000000000000000000000000000000                              
2370001300091A0000002370200870000000909238 ANTONIO CARLOS DOS SANTOS OLIV0000000000000000000004082022BRL000000000000000000000000196682PGIT010000008888    040820220000000001966820000000000000000000000000000000000000000            000        
2370001300092B   100054988900282                                                                                          000          000000000196682000000000000000000000000000000000000000000000000000000000000                              
2370001300093A0000002370200870000000508667 REGILENE FERNANDES ROCHA      0000000000000000000004082022BRL000000000000000000000000389487PGIT010000008907    040820220000000003894870000000000000000000000000000000000000000            000        
2370001300094B   100060494837365                                                                                          000          000000000389487000000000000000000000000000000000000000000000000000000000000                              
2370001300095A0000002370200870000000912107 IGOR FREITAS TEIXEIRA         0000000000000000000004082022BRL000000000000000000000000204969PGIT010000008923    040820220000000002049690000000000000000000000000000000000000000            000        
2370001300096B   100008170921376                                                                                          000          000000000204969000000000000000000000000000000000000000000000000000000000000                              
2370001300097A0000002370716090000005323665 RONEI DA SILVA MONTEIRO       0000000000000000000004082022BRL000000000000000000000000223929PGIT010000008871    040820220000000002239290000000000000000000000000000000000000000            000        
2370001300098B   100061658712323                                                                                          000          000000000223929000000000000000000000000000000000000000000000000000000000000                              
2370001300099A0000002370200870000000722278 ADALTO DA SILVA DUTRA         0000000000000000000004082022BRL000000000000000000000000204792PGIT010000008872    040820220000000002047920000000000000000000000000000000000000000            000        
2370001300100B   100000296110329                                                                                          000          000000000204792000000000000000000000000000000000000000000000000000000000000                              
2370001300101A0000002370200870000000826901 AILTON DA SILVA DE JESUS      0000000000000000000004082022BRL000000000000000000000000275815PGIT010000008879    040820220000000002758150000000000000000000000000000000000000000            000        
2370001300102B   100000714161101                                                                                          000          000000000275815000000000000000000000000000000000000000000000000000000000000                              
2370001300103A0000002370194700000025003721 EDSON CUNHA                   0000000000000000000004082022BRL000000000000000000000000235316PGIT010000008880    040820220000000002353160000000000000000000000000000000000000000            000        
2370001300104B   100044038070204                                                                                          000          000000000235316000000000000000000000000000000000000000000000000000000000000                              
2370001300105A0000002370200870000000918547 OSMANO ARAUJO SILVA           0000000000000000000004082022BRL000000000000000000000000201530PGIT010000008908    040820220000000002015300000000000000000000000000000000000000000            000        
2370001300106B   100059315350200                                                                                          000          000000000201530000000000000000000000000000000000000000000000000000000000000                              
2370001300107A0000002370141170000000290351 TIAGO ALMEIDA DA COSTA        0000000000000000000004082022BRL000000000000000000000000150285PGIT010000008909    040820220000000001502850000000000000000000000000000000000000000            000        
2370001300108B   100005570486216                                                                                          000          000000000150285000000000000000000000000000000000000000000000000000000000000                              
2370001300109A0000002370200870000005751500 CARLOS DE ARAUJO PIRES        0000000000000000000004082022BRL000000000000000000000000138639PGIT010000008910    040820220000000001386390000000000000000000000000000000000000000            000        
2370001300110B   100002241578258                                                                                          000          000000000138639000000000000000000000000000000000000000000000000000000000000                              
2370001300111A0000002370386360000000028479 JOAO CRUZ DE CARVALHO         0000000000000000000004082022BRL000000000000000000000000423442PGIT010000009089    040820220000000004234420000000000000000000000000000000000000000            000        
2370001300112B   100037969463134                                                                                          000          000000000423442000000000000000000000000000000000000000000000000000000000000                              
2370001300113A0000002370373700000006018890 RENILDO RAMOS FERREIRA        0000000000000000000004082022BRL000000000000000000000000132703PGIT010000009090    040820220000000001327030000000000000000000000000000000000000000            000        
2370001300114B   100061311242309                                                                                          000          000000000132703000000000000000000000000000000000000000000000000000000000000                              
2370001300115A0000002370617600000002790750 LEONARDO DOS AFLITOS DA SILVA 0000000000000000000004082022BRL000000000000000000000000166078PGIT010000009091    040820220000000001660780000000000000000000000000000000000000000            000        
2370001300116B   100006647975390                                                                                          000          000000000166078000000000000000000000000000000000000000000000000000000000000                              
2370001300117A0000002370200870000000992313 LEONILDO MAURICIO TEIXEIRA    0000000000000000000004082022BRL000000000000000000000000198544PGIT010000009092    040820220000000001985440000000000000000000000000000000000000000            000        
2370001300118B   100031694330400                                                                                          000          000000000198544000000000000000000000000000000000000000000000000000000000000                              
2370001300119A0000002370645050000000031887 VALMIR COSTA DE SOUSA         0000000000000000000004082022BRL000000000000000000000000197277PGIT010000009093    040820220000000001972770000000000000000000000000000000000000000            000        
2370001300120B   100063383233391                                                                                          000          000000000197277000000000000000000000000000000000000000000000000000000000000                              
2370001300121A0000002370200870000005752248 MAILSON SODRE RODRIGUES       0000000000000000000004082022BRL000000000000000000000000193012PGIT010000009094    040820220000000001930120000000000000000000000000000000000000000            000        
2370001300122B   100003685908367                                                                                          000          000000000193012000000000000000000000000000000000000000000000000000000000000                              
2370001300123A0000002370732020000004724577 LUCAS SILVA CUNHA             0000000000000000000004082022BRL000000000000000000000000132136PGIT010000009095    040820220000000001321360000000000000000000000000000000000000000            000        
2370001300124B   100061898869308                                                                                          000          000000000132136000000000000000000000000000000000000000000000000000000000000                              
2370001300125A0000002370078620000010027128 GILMAR DA CRUZ SILVA COSTA    0000000000000000000004082022BRL000000000000000000000000204228PGIT010000008911    040820220000000002042280000000000000000000000000000000000000000            000        
2370001300126B   100060183049373                                                                                          000          000000000204228000000000000000000000000000000000000000000000000000000000000                              
2370001300127A0000002370196740000003509877 KEYSON RAMONN DA SILVA SANTOS 0000000000000000000004082022BRL000000000000000000000000317216PGIT010000008881    040820220000000003172160000000000000000000000000000000000000000            000        
2370001300128B   100060165216395                                                                                          000          000000000317216000000000000000000000000000000000000000000000000000000000000                              
2370001300129A0000002370200870000000849693 FRANCINETE RIBEIRO LIMA       0000000000000000000004082022BRL000000000000000000000000220446PGIT010000009129    040820220000000002204460000000000000000000000000000000000000000            000        
2370001300130B   100064788237334                                                                                          000          000000000220446000000000000000000000000000000000000000000000000000000000000                              
2370001300131A0000002370154820000005348218 EDIELSON MARQUES DA SILVA     0000000000000000000004082022BRL000000000000000000000000168727PGIT010000008882    040820220000000001687270000000000000000000000000000000000000000            000        
2370001300132B   100002260977227                                                                                          000          000000000168727000000000000000000000000000000000000000000000000000000000000                              
2370001300133A0000002370141170000005760836 LOURIVALDO SANTOS SILVA       0000000000000000000004082022BRL000000000000000000000000196525PGIT010000008883    040820220000000001965250000000000000000000000000000000000000000            000        
2370001300134B   100076571793334                                                                                          000          000000000196525000000000000000000000000000000000000000000000000000000000000                              
2370001300135A0000002370200870000000561886 GILMAR DA SILVA               0000000000000000000004082022BRL000000000000000000000000177172PGIT010000009130    040820220000000001771720000000000000000000000000000000000000000            000        
2370001300136B   100000382605225                                                                                          000          000000000177172000000000000000000000000000000000000000000000000000000000000                              
2370001300137A0000002370138890000000184845 MANOEL DE JESUS RIBEIRO       0000000000000000000004082022BRL000000000000000000000000189241PGIT010000009131    040820220000000001892410000000000000000000000000000000000000000            000        
2370001300138B   100047010975272                                                                                          000          000000000189241000000000000000000000000000000000000000000000000000000000000                              
2370001300139A0000002370138890000000297232 ELINALDO DE JESUS COSTA FERNAN0000000000000000000004082022BRL000000000000000000000000177172PGIT010000009132    040820220000000001771720000000000000000000000000000000000000000            000        
2370001300140B   100077156315315                                                                                          000          000000000177172000000000000000000000000000000000000000000000000000000000000                              
2370001300141A0000002370385800000002144034 JAILSON FERNANDES MACHADO     0000000000000000000004082022BRL000000000000000000000000195557PGIT010000008912    040820220000000001955570000000000000000000000000000000000000000            000        
2370001300142B   100005477010398                                                                                          000          000000000195557000000000000000000000000000000000000000000000000000000000000                              
2370001300143A0000002370200870000000828033 ROGERIO PEREIRA DA SILVA      0000000000000000000004082022BRL000000000000000000000000210864PGIT010000008982    040820220000000002108640000000000000000000000000000000000000000            000        
2370001300144B   100005891799260                                                                                          000          000000000210864000000000000000000000000000000000000000000000000000000000000                              
2370001300145A0000002370103160000001080849 ADEJARMO GONCALVES DOS SANTOS 0000000000000000000004082022BRL000000000000000000000000193932PGIT010000008924    040820220000000001939320000000000000000000000000000000000000000            000        
2370001300146B   100032979266272                                                                                          000          000000000193932000000000000000000000000000000000000000000000000000000000000                              
2370001300147A0000002370194700000000045799 GILSON JOSE LOPES DOS SANTOS  0000000000000000000004082022BRL000000000000000000000000181856PGIT010000008925    040820220000000001818560000000000000000000000000000000000000000            000        
2370001300148B   100000775558303                                                                                          000          000000000181856000000000000000000000000000000000000000000000000000000000000                              
2370001300149A0000002370200870000000343595 JOSE ANTONIO DA SILVA BATISTA 0000000000000000000004082022BRL000000000000000000000000197420PGIT010000008926    040820220000000001974200000000000000000000000000000000000000000            000        
2370001300150B   100074773267291                                                                                          000          000000000197420000000000000000000000000000000000000000000000000000000000000                              
2370001300151A0000002370217840000005915856 WELTON DA SILVA DIAS          0000000000000000000004082022BRL000000000000000000000000159404PGIT010000008927    040820220000000001594040000000000000000000000000000000000000000            000        
2370001300152B   100002435766254                                                                                          000          000000000159404000000000000000000000000000000000000000000000000000000000000                              
2370001300153A0000002370576570000000149985 ROSIVALDO DOS SANTOS          0000000000000000000004082022BRL000000000000000000000000270839PGIT010000008928    040820220000000002708390000000000000000000000000000000000000000            000        
2370001300154B   100042328497268                                                                                          000          000000000270839000000000000000000000000000000000000000000000000000000000000                              
2370001300155A0000002370151480000000133221 RAULLYSON GOMES DE SOUSA      0000000000000000000004082022BRL000000000000000000000000346411PGIT010000008929    040820220000000003464110000000000000000000000000000000000000000            000        
2370001300156B   100002888545357                                                                                          000          000000000346411000000000000000000000000000000000000000000000000000000000000                              
2370001300157A0000002370200870000000956953 RODRIGO SILVA ROCHA           0000000000000000000004082022BRL000000000000000000000000096224PGIT010000008930    040820220000000000962240000000000000000000000000000000000000000            000        
2370001300158B   100002486216294                                                                                          000          000000000096224000000000000000000000000000000000000000000000000000000000000                              
2370001300159A0000002370141170000000011142 EDMAR MAXIMO DA SILVA         0000000000000000000004082022BRL000000000000000000000000275393PGIT010000009111    040820220000000002753930000000000000000000000000000000000000000            000        
2370001300160B   100033562938349                                                                                          000          000000000275393000000000000000000000000000000000000000000000000000000000000                              
2370001300161A0000002370141170000000045012 SAMUEL RODRIGUES DOS REIS     0000000000000000000004082022BRL000000000000000000000000105454PGIT010000009000    040820220000000001054540000000000000000000000000000000000000000            000        
2370001300162B   100078493048372                                                                                          000          000000000105454000000000000000000000000000000000000000000000000000000000000                              
2370001300163A0000002370141170000005729181 FRANCISCO ERINALDO MATIAS     0000000000000000000004082022BRL000000000000000000000000185310PGIT010000009001    040820220000000001853100000000000000000000000000000000000000000            000        
2370001300164B   100001962095282                                                                                          000          000000000185310000000000000000000000000000000000000000000000000000000000000                              
2370001300165A0000002370690780000003010228 EDIMILSON CARDOSO DA SILVA    0000000000000000000004082022BRL000000000000000000000000405271PGIT010000009002    040820220000000004052710000000000000000000000000000000000000000            000        
2370001300166B   100088691845104                                                                                          000          000000000405271000000000000000000000000000000000000000000000000000000000000                              
2370001300167A0000002370780260000000166790 FRANCISCO JHAMYSON BORGES DE A0000000000000000000004082022BRL000000000000000000000000227661PGIT010000008983    040820220000000002276610000000000000000000000000000000000000000            000        
2370001300168B   100002970301164                                                                                          000          000000000227661000000000000000000000000000000000000000000000000000000000000                              
2370001300169A0000002370200870000000115029 ZILMAR VIEIRA DE MORAIS       0000000000000000000004082022BRL000000000000000000000000165682PGIT010000008984    040820220000000001656820000000000000000000000000000000000000000            000        
2370001300170B   100028753550234                                                                                          000          000000000165682000000000000000000000000000000000000000000000000000000000000                              
2370001300171A0000002370221870000000524247 TIELSON CARMO BRAVERES        0000000000000000000004082022BRL000000000000000000000000232736PGIT010000008921    040820220000000002327360000000000000000000000000000000000000000            000        
2370001300172B   100004902005328                                                                                          000          000000000232736000000000000000000000000000000000000000000000000000000000000                              
2370001300173A0000002370200870000000831255 WILLIAM BRITO DOS SANTOS      0000000000000000000004082022BRL000000000000000000000000420236PGIT010000008922    040820220000000004202360000000000000000000000000000000000000000            000        
2370001300174B   100096881437234                                                                                          000          000000000420236000000000000000000000000000000000000000000000000000000000000                              
2370001300175A0000002370141170000000185876 MARCELO DA COSTA PARDINHO     0000000000000000000004082022BRL000000000000000000000000386437PGIT010000008913    040820220000000003864370000000000000000000000000000000000000000            000        
2370001300176B   100076096750249                                                                                          000          000000000386437000000000000000000000000000000000000000000000000000000000000                              
2370001300177A0000002370385800000007362552 DANIELE NASCIMENTO SALDANHA   0000000000000000000004082022BRL000000000000000000000000168733PGIT010000008914    040820220000000001687330000000000000000000000000000000000000000            000        
2370001300178B   100003928111205                                                                                          000          000000000168733000000000000000000000000000000000000000000000000000000000000                              
2370001300179A0000002370141170000005824214 GENIVAL DAS CHAGAS SILVA      0000000000000000000004082022BRL000000000000000000000000190933PGIT010000008915    040820220000000001909330000000000000000000000000000000000000000            000        
2370001300180B   100063732602249                                                                                          000          000000000190933000000000000000000000000000000000000000000000000000000000000                              
2370001300181A0000002370200870000000807400 IVAN VIEIRA SILVA             0000000000000000000004082022BRL000000000000000000000000181533PGIT010000008916    040820220000000001815330000000000000000000000000000000000000000            000        
2370001300182B   100001869672259                                                                                          000          000000000181533000000000000000000000000000000000000000000000000000000000000                              
2370001300183A0000002370200870000000375535 CLEUDIMAR RODRIGUES DA SILVA  0000000000000000000004082022BRL000000000000000000000000187772PGIT010000008917    040820220000000001877720000000000000000000000000000000000000000            000        
2370001300184B   100090851706215                                                                                          000          000000000187772000000000000000000000000000000000000000000000000000000000000                              
2370001300185A0000002370200870000000290254 ATANAEL COSTA CARVALHO        0000000000000000000004082022BRL000000000000000000000000326387PGIT010000009112    040820220000000003263870000000000000000000000000000000000000000            000        
2370001300186B   100002748921380                                                                                          000          000000000326387000000000000000000000000000000000000000000000000000000000000                              
2370001300187A0000002370200870000000881287 FRANCILDO ALVES FARIAS        0000000000000000000004082022BRL000000000000000000000000330215PGIT010000008918    040820220000000003302150000000000000000000000000000000000000000            000        
2370001300188B   100067264115291                                                                                          000          000000000330215000000000000000000000000000000000000000000000000000000000000                              
2370001300189A0000002370639830000005309271 JOSE EDUARDO DA SILVA JUNIOR  0000000000000000000004082022BRL000000000000000000000000149868PGIT010000008889    040820220000000001498680000000000000000000000000000000000000000            000        
2370001300190B   100082434654215                                                                                          000          000000000149868000000000000000000000000000000000000000000000000000000000000                              
2370001300191A0000002370200870000000700401 RONALDO SIQUEIRA DE CARVALHO  0000000000000000000004082022BRL000000000000000000000000287382PGIT010000008890    040820220000000002873820000000000000000000000000000000000000000            000        
2370001300192B   100003424112259                                                                                          000          000000000287382000000000000000000000000000000000000000000000000000000000000                              
2370001300193A0000002370138890000000452394 JOAO DE DEUS BARBOSA          0000000000000000000004082022BRL000000000000000000000000212549PGIT010000009096    040820220000000002125490000000000000000000000000000000000000000            000        
2370001300194B   100065163621220                                                                                          000          000000000212549000000000000000000000000000000000000000000000000000000000000                              
2370001300195A0000002370200870000000710865 FRANCISCO DA SILVA LIMA       0000000000000000000004082022BRL000000000000000000000000180793PGIT010000009097    040820220000000001807930000000000000000000000000000000000000000            000        
2370001300196B   100002166987311                                                                                          000          000000000180793000000000000000000000000000000000000000000000000000000000000                              
2370001300197A0000002370200870000000825360 ELDER BARROSO DE SOUSA        0000000000000000000004082022BRL000000000000000000000000392204PGIT010000009098    040820220000000003922040000000000000000000000000000000000000000            000        
2370001300198B   100068807562200                                                                                          000          000000000392204000000000000000000000000000000000000000000000000000000000000                              
2370001300199A0000002370200870000000731935 MARCOS COSTA DOS SANTOS       0000000000000000000004082022BRL000000000000000000000000246148PGIT010000009099    040820220000000002461480000000000000000000000000000000000000000            000        
2370001300200B   100091093465204                                                                                          000          000000000246148000000000000000000000000000000000000000000000000000000000000                              
2370001300201A0000002370200870000000706248 NELSINARIA PALHARES FREITAS   0000000000000000000004082022BRL000000000000000000000000120893PGIT010000009100    040820220000000001208930000000000000000000000000000000000000000            000        
2370001300202B   100002029690295                                                                                          000          000000000120893000000000000000000000000000000000000000000000000000000000000                              
2370001300203A0000002370138890000000345393 SAMUEL DE OLIVEIRA COSTA      0000000000000000000004082022BRL000000000000000000000000231564PGIT010000009101    040820220000000002315640000000000000000000000000000000000000000            000        
2370001300204B   100085815640204                                                                                          000          000000000231564000000000000000000000000000000000000000000000000000000000000                              
2370001300205A0000002370615300000000051772 RAIMUNDO FERREIRA FREITAS     0000000000000000000004082022BRL000000000000000000000000206167PGIT010000009102    040820220000000002061670000000000000000000000000000000000000000            000        
2370001300206B   100060830301291                                                                                          000          000000000206167000000000000000000000000000000000000000000000000000000000000                              
2370001300207A0000002370257200000000739022 ISAIAS DA SILVA MENDES        0000000000000000000004082022BRL000000000000000000000000488555PGIT010000008946    040820220000000004885550000000000000000000000000000000000000000            000        
2370001300208B   100009788460798                                                                                          000          000000000488555000000000000000000000000000000000000000000000000000000000000                              
2370001300209A0000002370198280000000054453 CLEISON CARNEIRO DE SOUSA     0000000000000000000004082022BRL000000000000000000000000492789PGIT010000008947    040820220000000004927890000000000000000000000000000000000000000            000        
2370001300210B   100001579862330                                                                                          000          000000000492789000000000000000000000000000000000000000000000000000000000000                              
2370001300211A0000002370182100000000059161 RAYKLER RANJEL GUIMARAES DOS S0000000000000000000004082022BRL000000000000000000000000220583PGIT010000008948    040820220000000002205830000000000000000000000000000000000000000            000        
2370001300212B   100007260055332                                                                                          000          000000000220583000000000000000000000000000000000000000000000000000000000000                              
2370001300213A0000002370200870000000754285 MATHEUS SILVA MARTINS         0000000000000000000004082022BRL000000000000000000000000114451PGIT010000008949    040820220000000001144510000000000000000000000000000000000000000            000        
2370001300214B   100002965549285                                                                                          000          000000000114451000000000000000000000000000000000000000000000000000000000000                              
2370001300215A0000002370141170000000433772 FRANCISCO SILVA               0000000000000000000004082022BRL000000000000000000000000159121PGIT010000008950    040820220000000001591210000000000000000000000000000000000000000            000        
2370001300216B   100042371376272                                                                                          000          000000000159121000000000000000000000000000000000000000000000000000000000000                              
2370001300217A0000002370200870000000990035 ELIZEU DE OLIVEIRA BATISTA    0000000000000000000004082022BRL000000000000000000000000203765PGIT010000009003    040820220000000002037650000000000000000000000000000000000000000            000        
2370001300218B   100004199720219                                                                                          000          000000000203765000000000000000000000000000000000000000000000000000000000000                              
2370001300219A0000002370141170000000064572 JONATAS XAVIER DA SILVA       0000000000000000000004082022BRL000000000000000000000000146796PGIT010000008936    040820220000000001467960000000000000000000000000000000000000000            000        
2370001300220B   100063071487215                                                                                          000          000000000146796000000000000000000000000000000000000000000000000000000000000                              
2370001300221A0000002370200870000007023898 EMILSON CARLOS COSTA CAMPOS   0000000000000000000004082022BRL000000000000000000000000189657PGIT010000008937    040820220000000001896570000000000000000000000000000000000000000            000        
2370001300222B   100002506321365                                                                                          000          000000000189657000000000000000000000000000000000000000000000000000000000000                              
2370001300223A0000002370141170000000429791 ANGELO DE ALENCAR SILVA       0000000000000000000004082022BRL000000000000000000000000176443PGIT010000008938    040820220000000001764430000000000000000000000000000000000000000            000        
2370001300224B   100036516724334                                                                                          000          000000000176443000000000000000000000000000000000000000000000000000000000000                              
2370001300225A0000002370303920000000027324 EMIDIO CAMPOS JUNIOR          0000000000000000000004082022BRL000000000000000000000000204199PGIT010000008939    040820220000000002041990000000000000000000000000000000000000000            000        
2370001300226B   100004935347333                                                                                          000          000000000204199000000000000000000000000000000000000000000000000000000000000                              
2370001300227A0000002370200870000000983195 ALBER HENRIQUE MORAIS MENDES  0000000000000000000004082022BRL000000000000000000000000156709PGIT010000008940    040820220000000001567090000000000000000000000000000000000000000            000        
2370001300228B   100060856113310                                                                                          000          000000000156709000000000000000000000000000000000000000000000000000000000000                              
2370001300229A0000002370200870000005752892 FRANCISCO SOUSA DA SILVA      0000000000000000000004082022BRL000000000000000000000000202993PGIT010000008941    040820220000000002029930000000000000000000000000000000000000000            000        
2370001300230B   100001771291311                                                                                          000          000000000202993000000000000000000000000000000000000000000000000000000000000                              
2370001300231A0000002370138890000000302724 REMALDO PEREIRA DA SILVA      0000000000000000000004082022BRL000000000000000000000000187026PGIT010000008942    040820220000000001870260000000000000000000000000000000000000000            000        
2370001300232B   100069650985204                                                                                          000          000000000187026000000000000000000000000000000000000000000000000000000000000                              
2370001300233A0000002370303920000005805678 JOSE ELIAS DA COSTA VIEIRA    0000000000000000000004082022BRL000000000000000000000000199272PGIT010000008943    040820220000000001992720000000000000000000000000000000000000000            000        
2370001300234B   100098072781200                                                                                          000          000000000199272000000000000000000000000000000000000000000000000000000000000                              
2370001300235A0000002370200870000005704863 JOSE MENDES LIMA FILHO        0000000000000000000004082022BRL000000000000000000000000178141PGIT010000009150    040820220000000001781410000000000000000000000000000000000000000            000        
2370001300236B   100003498738364                                                                                          000          000000000178141000000000000000000000000000000000000000000000000000000000000                              
2370001300237A0000002370752640000005525705 ANTONIO DA SILVA LEAL         0000000000000000000004082022BRL000000000000000000000000180996PGIT010000009151    040820220000000001809960000000000000000000000000000000000000000            000        
2370001300238B   100089157370249                                                                                          000          000000000180996000000000000000000000000000000000000000000000000000000000000                              
2370001300239A0000002370645050000000180076 FRANCISCO TONES FERREIRA DA SI0000000000000000000004082022BRL000000000000000000000000248547PGIT010000009152    040820220000000002485470000000000000000000000000000000000000000            000        
2370001300240B   100058851720215                                                                                          000          000000000248547000000000000000000000000000000000000000000000000000000000000                              
2370001300241A0000002370200870000000996025 SILVESTRE DA CONCEICAO SILVA  0000000000000000000004082022BRL000000000000000000000000193115PGIT010000009153    040820220000000001931150000000000000000000000000000000000000000            000        
2370001300242B   100003103132360                                                                                          000          000000000193115000000000000000000000000000000000000000000000000000000000000                              
2370001300243A0000002370141170000000340103 DIONILSON PEREIRA DA SILVA    0000000000000000000004082022BRL000000000000000000000000237469PGIT010000009154    040820220000000002374690000000000000000000000000000000000000000            000        
2370001300244B   100000434937347                                                                                          000          000000000237469000000000000000000000000000000000000000000000000000000000000                              
2370001300245A0000002370200870000000663689 IVANDO SANDES PEREIRA PENHA   0000000000000000000004082022BRL000000000000000000000000308384PGIT010000009155    040820220000000003083840000000000000000000000000000000000000000            000        
2370001300246B   100070516863304                                                                                          000          000000000308384000000000000000000000000000000000000000000000000000000000000                              
2370001300247A0000002370200870000001043641 JOSE MILANIO OLIVEIRA HOLANDA 0000000000000000000004082022BRL000000000000000000000000272055PGIT010000009056    040820220000000002720550000000000000000000000000000000000000000            000        
2370001300248B   100006008628446                                                                                          000          000000000272055000000000000000000000000000000000000000000000000000000000000                              
2370001300249A0000002370021600000000165921 OSMIR LIMA DE SOUZA           0000000000000000000004082022BRL000000000000000000000000412422PGIT010000009057    040820220000000004124220000000000000000000000000000000000000000            000        
2370001300250B   100005092266473                                                                                          000          000000000412422000000000000000000000000000000000000000000000000000000000000                              
2370001300251A0000002370069980000000118940 ANTONIEL PEREIRA DA SILVA     0000000000000000000004082022BRL000000000000000000000000466384PGIT010000009058    040820220000000004663840000000000000000000000000000000000000000            000        
2370001300252B   100085245364204                                                                                          000          000000000466384000000000000000000000000000000000000000000000000000000000000                              
2370001300253A0000002370141170000000028509 RIVALDO FRANCA TEODORO        0000000000000000000004082022BRL000000000000000000000000312299PGIT010000009059    040820220000000003122990000000000000000000000000000000000000000            000        
2370001300254B   100005482452581                                                                                          000          000000000312299000000000000000000000000000000000000000000000000000000000000                              
2370001300255A0000002370200870000000393509 ARIDIELSON LIMA DA SILVA      0000000000000000000004082022BRL000000000000000000000000163014PGIT010000009156    040820220000000001630140000000000000000000000000000000000000000            000        
2370001300256B   100002897421290                                                                                          000          000000000163014000000000000000000000000000000000000000000000000000000000000                              
2370001300257A0000002370200870000000665843 ADRIEL PEREIRA BARROS         0000000000000000000004082022BRL000000000000000000000000115735PGIT010000009157    040820220000000001157350000000000000000000000000000000000000000            000        
2370001300258B   100003528601205                                                                                          000          000000000115735000000000000000000000000000000000000000000000000000000000000                              
2370001300259A0000002370200870000000054038 ANTONIO ALVES VIEIRA          0000000000000000000004082022BRL000000000000000000000000163014PGIT010000009158    040820220000000001630140000000000000000000000000000000000000000            000        
2370001300260B   100049953532320                                                                                          000          000000000163014000000000000000000000000000000000000000000000000000000000000                              
2370001300261A0000002370138890000005012198 DOMINGOS FERREIRA SILVA JUNIOR0000000000000000000004082022BRL000000000000000000000000226570PGIT010000009060    040820220000000002265700000000000000000000000000000000000000000            000        
2370001300262B   100000768304202                                                                                          000          000000000226570000000000000000000000000000000000000000000000000000000000000                              
2370001300263A0000002370200870000001073206 HIGOR MIRANDA GOMES           0000000000000000000004082022BRL000000000000000000000000183547PGIT010000009061    040820220000000001835470000000000000000000000000000000000000000            000        
2370001300264B   100003043421221                                                                                          000          000000000183547000000000000000000000000000000000000000000000000000000000000                              
2370001300265A0000002370617600000006520391 DEIVEN BHEK REIS DA SILVA     0000000000000000000004082022BRL000000000000000000000000131682PGIT010000009062    040820220000000001316820000000000000000000000000000000000000000            000        
2370001300266B   100062931014303                                                                                          000          000000000131682000000000000000000000000000000000000000000000000000000000000                              
2370001300267A0000002370101110000005125723 JACK DE JESUS BATISTA         0000000000000000000004082022BRL000000000000000000000000142509PGIT010000009063    040820220000000001425090000000000000000000000000000000000000000            000        
2370001300268B   100000444330267                                                                                          000          000000000142509000000000000000000000000000000000000000000000000000000000000                              
2370001300269A0000002370200870000000821489 LEONARDO PEREIRA DE MOURA     0000000000000000000004082022BRL000000000000000000000000190292PGIT010000009064    040820220000000001902920000000000000000000000000000000000000000            000        
2370001300270B   100005912100375                                                                                          000          000000000190292000000000000000000000000000000000000000000000000000000000000                              
2370001300271A0000002370303920000000177512 CLEMILSON LIMA GOMES          0000000000000000000004082022BRL000000000000000000000000163373PGIT010000009065    040820220000000001633730000000000000000000000000000000000000000            000        
2370001300272B   100008371401370                                                                                          000          000000000163373000000000000000000000000000000000000000000000000000000000000                              
2370001300273A0000002370141170000000265462 JEOVANE FERREIRA DE SOUSA     0000000000000000000004082022BRL000000000000000000000000113302PGIT010000009161    040820220000000001133020000000000000000000000000000000000000000            000        
2370001300274B   100003585640265                                                                                          000          000000000113302000000000000000000000000000000000000000000000000000000000000                              
2370001300275A0000002370062030000000358193 FRANCISCO VIEIRA OLIVEIRA     0000000000000000000004082022BRL000000000000000000000000115735PGIT010000009162    040820220000000001157350000000000000000000000000000000000000000            000        
2370001300276B   100008348443118                                                                                          000          000000000115735000000000000000000000000000000000000000000000000000000000000                              
2370001300277A0000002370200870000000460311 FABRICIO DA SILVA ARAUJO      0000000000000000000004082022BRL000000000000000000000000181829PGIT010000008896    040820220000000001818290000000000000000000000000000000000000000            000        
2370001300278B   100001371629285                                                                                          000          000000000181829000000000000000000000000000000000000000000000000000000000000                              
2370001300279A0000002370385800000007913303 RODRIGO DE LIMA MORAES        0000000000000000000004082022BRL000000000000000000000000160465PGIT010000009042    040820220000000001604650000000000000000000000000000000000000000            000        
2370001300280B   100070126249229                                                                                          000          000000000160465000000000000000000000000000000000000000000000000000000000000                              
2370001300281A0000002370645050000000137464 ANDERSON DA SILVA LIMA        0000000000000000000004082022BRL000000000000000000000000174015PGIT010000009043    040820220000000001740150000000000000000000000000000000000000000            000        
2370001300282B   100061055702369                                                                                          000          000000000174015000000000000000000000000000000000000000000000000000000000000                              
2370001300283A0000002370141170000000413763 NELY DE SOUSA SOBRAL          0000000000000000000004082022BRL000000000000000000000000121839PGIT010000008897    040820220000000001218390000000000000000000000000000000000000000            000        
2370001300284B   100002290833231                                                                                          000          000000000121839000000000000000000000000000000000000000000000000000000000000                              
2370001300285A0000002370141170000005707412 FABIO SANTOS ALBUQUERQUE      0000000000000000000004082022BRL000000000000000000000000122699PGIT010000008898    040820220000000001226990000000000000000000000000000000000000000            000        
2370001300286B   100001037874293                                                                                          000          000000000122699000000000000000000000000000000000000000000000000000000000000                              
2370001300287A0000002370141170000000409480 JACKSON CORREIA MORAES        0000000000000000000004082022BRL000000000000000000000000176360PGIT010000008899    040820220000000001763600000000000000000000000000000000000000000            000        
2370001300288B   100005335031328                                                                                          000          000000000176360000000000000000000000000000000000000000000000000000000000000                              
2370001300289A0000002370046000000000151890 ERNANDO DIAS DE ABREU         0000000000000000000004082022BRL000000000000000000000000400805PGIT010000008900    040820220000000004008050000000000000000000000000000000000000000            000        
2370001300290B   100001332073310                                                                                          000          000000000400805000000000000000000000000000000000000000000000000000000000000                              
2370001300291A0000002370200870000000827177 MARCELO SANTIAGO DA CRUZ      0000000000000000000004082022BRL000000000000000000000000161801PGIT010000008931    040820220000000001618010000000000000000000000000000000000000000            000        
2370001300292B   100001580216226                                                                                          000          000000000161801000000000000000000000000000000000000000000000000000000000000                              
2370001300293A0000002370141170000000434957 SAMUEL DE SOUSA SANTOS        0000000000000000000004082022BRL000000000000000000000000211232PGIT010000008985    040820220000000002112320000000000000000000000000000000000000000            000        
2370001300294B   100054682789287                                                                                          000          000000000211232000000000000000000000000000000000000000000000000000000000000                              
2370001300295A0000002370138890000000438219 LUIZ NUNES COSTA              0000000000000000000004082022BRL000000000000000000000000023398PGIT010000008951    040820220000000000233980000000000000000000000000000000000000000            000        
2370001300296B   100040949915300                                                                                          000          000000000023398000000000000000000000000000000000000000000000000000000000000                              
2370001300297A0000002370645050000000123889 ROSELIO COSTA CAMPOS          0000000000000000000004082022BRL000000000000000000000000116607PGIT010000008952    040820220000000001166070000000000000000000000000000000000000000            000        
2370001300298B   100000777010208                                                                                          000          000000000116607000000000000000000000000000000000000000000000000000000000000                              
2370001300299A0000002370200870000000982318 JOSE WILLIAM PEREIRA          0000000000000000000004082022BRL000000000000000000000000168506PGIT010000008953    040820220000000001685060000000000000000000000000000000000000000            000        
2370001300300B   100095416170344                                                                                          000          000000000168506000000000000000000000000000000000000000000000000000000000000                              
2370001300301A0000002370200870000001122592 NILTON CESAR DE SOUSA ESTRELA 0000000000000000000004082022BRL000000000000000000000000189166PGIT010000009138    040820220000000001891660000000000000000000000000000000000000000            000        
2370001300302B   100003099378178                                                                                          000          000000000189166000000000000000000000000000000000000000000000000000000000000                              
2370001300303A0000002370141170000000440906 FRANCISCO DE SOUSA            0000000000000000000004082022BRL000000000000000000000000227328PGIT010000009011    040820220000000002273280000000000000000000000000000000000000000            000        
2370001300304B   100000463386329                                                                                          000          000000000227328000000000000000000000000000000000000000000000000000000000000                              
2370001300305A0000002370200870000000996122 LINDIOMAR BATISTA RIBEIRO     0000000000000000000004082022BRL000000000000000000000000116786PGIT010000009012    040820220000000001167860000000000000000000000000000000000000000            000        
2370001300306B   100004330567113                                                                                          000          000000000116786000000000000000000000000000000000000000000000000000000000000                              
2370001300307A0000002370200870000000998427 MAXIMIANO CORREA PIMENTEL     0000000000000000000004082022BRL000000000000000000000000182635PGIT010000009013    040820220000000001826350000000000000000000000000000000000000000            000        
2370001300308B   100016572106268                                                                                          000          000000000182635000000000000000000000000000000000000000000000000000000000000                              
2370001300309A0000002370141170000000440973 SANAILTON SOBRINHO FORTE      0000000000000000000004082022BRL000000000000000000000000136616PGIT010000009014    040820220000000001366160000000000000000000000000000000000000000            000        
2370001300310B   100001955260230                                                                                          000          000000000136616000000000000000000000000000000000000000000000000000000000000                              
2370001300311A0000002370373700000000571644 ALESSANDRO SILVA RIBEIRO      0000000000000000000004082022BRL000000000000000000000000109444PGIT010000009015    040820220000000001094440000000000000000000000000000000000000000            000        
2370001300312B   100081221878204                                                                                          000          000000000109444000000000000000000000000000000000000000000000000000000000000                              
2370001300313A0000002370138890000006400663 SIMAO MENDES TEIXEIRA         0000000000000000000004082022BRL000000000000000000000000182406PGIT010000009016    040820220000000001824060000000000000000000000000000000000000000            000        
2370001300314B   100017236622249                                                                                          000          000000000182406000000000000000000000000000000000000000000000000000000000000                              
2370001300315A0000002370141170000000386235 TEDIJONES LASERDA DOS SANTOS  0000000000000000000004082022BRL000000000000000000000000272015PGIT010000009017    040820220000000002720150000000000000000000000000000000000000000            000        
2370001300316B   100062317318120                                                                                          000          000000000272015000000000000000000000000000000000000000000000000000000000000                              
2370001300317A0000002370200870000005711967 JOSE DE RIBAMAR ALVES DE SOUSA0000000000000000000004082022BRL000000000000000000000000192416PGIT010000009018    040820220000000001924160000000000000000000000000000000000000000            000        
2370001300318B   100093961294291                                                                                          000          000000000192416000000000000000000000000000000000000000000000000000000000000                              
2370001300319A0000002370200870000001017861 ITELVAN DA CONCEICAO          0000000000000000000004082022BRL000000000000000000000000212057PGIT010000009019    040820220000000002120570000000000000000000000000000000000000000            000        
2370001300320B   100000951682148                                                                                          000          000000000212057000000000000000000000000000000000000000000000000000000000000                              
2370001300321A0000002370322980000000168793 LEONARDO ARTHUR MOCELIN FORTES0000000000000000000004082022BRL000000000000000000000000456392PGIT010000009020    040820220000000004563920000000000000000000000000000000000000000            000        
2370001300322B   100011159763461                                                                                          000          000000000456392000000000000000000000000000000000000000000000000000000000000                              
2370001300323A0000002370076330000000207446 ELIAS LIMA DOS SANTOS         0000000000000000000004082022BRL000000000000000000000000180766PGIT010000009021    040820220000000001807660000000000000000000000000000000000000000            000        
2370001300324B   100071461990297                                                                                          000          000000000180766000000000000000000000000000000000000000000000000000000000000                              
2370001300325A0000002370690780000003010082 CLAUDIO ANTONIO PEREIRA LEAL  0000000000000000000004082022BRL000000000000000000000000400212PGIT010000009022    040820220000000004002120000000000000000000000000000000000000000            000        
2370001300326B   100002282595173                                                                                          000          000000000400212000000000000000000000000000000000000000000000000000000000000                              
2370001300327A0000002370200870000001010883 WILDES VIANA PINTO            0000000000000000000004082022BRL000000000000000000000000190214PGIT010000009023    040820220000000001902140000000000000000000000000000000000000000            000        
2370001300328B   100079369910263                                                                                          000          000000000190214000000000000000000000000000000000000000000000000000000000000                              
2370001300329A0000002370200870000000824658 WILLIAM GONCALVES DE SOUZA    0000000000000000000004082022BRL000000000000000000000000209061PGIT010000009024    040820220000000002090610000000000000000000000000000000000000000            000        
2370001300330B   100001352118246                                                                                          000          000000000209061000000000000000000000000000000000000000000000000000000000000                              
2370001300331A0000002370318360000000032751 DULCIVAL SANTOS SOUZA JUNIOR  0000000000000000000004082022BRL000000000000000000000000869940PGIT010000009025    040820220000000008699400000000000000000000000000000000000000000            000        
2370001300332B   100000176194592                                                                                          000          000000000869940000000000000000000000000000000000000000000000000000000000000                              
2370001300333A0000002370200870000000826693 JOAO GOMES HOLOUKA            0000000000000000000004082022BRL000000000000000000000000176571PGIT010000009026    040820220000000001765710000000000000000000000000000000000000000            000        
2370001300334B   100001289478295                                                                                          000          000000000176571000000000000000000000000000000000000000000000000000000000000                              
2370001300335A0000002370104640000005316030 MARDONIO SILVA VIANA          0000000000000000000004082022BRL000000000000000000000000172825PGIT010000009027    040820220000000001728250000000000000000000000000000000000000000            000        
2370001300336B   100004032984310                                                                                          000          000000000172825000000000000000000000000000000000000000000000000000000000000                              
2370001300337A0000002370200870000000349925 DOMINGOS IDELMAR PEREIRA DA SI0000000000000000000004082022BRL000000000000000000000000198769PGIT010000009028    040820220000000001987690000000000000000000000000000000000000000            000        
2370001300338B   100003724903367                                                                                          000          000000000198769000000000000000000000000000000000000000000000000000000000000                              
2370001300339A0000002370138890000000477354 FRANCISCO ABREU               0000000000000000000004082022BRL000000000000000000000000190071PGIT010000009143    040820220000000001900710000000000000000000000000000000000000000            000        
2370001300340B   100028092335869                                                                                          000          000000000190071000000000000000000000000000000000000000000000000000000000000                              
2370001300341A0000002370200870000000896446 JAIRO FERREIRA DA SILVA       0000000000000000000004082022BRL000000000000000000000000177172PGIT010000009144    040820220000000001771720000000000000000000000000000000000000000            000        
2370001300342B   100079041493387                                                                                          000          000000000177172000000000000000000000000000000000000000000000000000000000000                              
2370001300343A0000002370200870000005214416 GILBERTO SOUSA DE ANDRADE     0000000000000000000004082022BRL000000000000000000000000163672PGIT010000009145    040820220000000001636720000000000000000000000000000000000000000            000        
2370001300344B   100091118840372                                                                                          000          000000000163672000000000000000000000000000000000000000000000000000000000000                              
2370001300345A0000002370200870000000342084 FRANCISCO MARISCAL DOS SANTOS 0000000000000000000004082022BRL000000000000000000000000177172PGIT010000009146    040820220000000001771720000000000000000000000000000000000000000            000        
2370001300346B   100080352413204                                                                                          000          000000000177172000000000000000000000000000000000000000000000000000000000000                              
2370001300347A0000002370373890000006398871 JARDEL TEIXEIRA PEREIRA       0000000000000000000004082022BRL000000000000000000000000157172PGIT010000009147    040820220000000001571720000000000000000000000000000000000000000            000        
2370001300348B   100005068178306                                                                                          000          000000000157172000000000000000000000000000000000000000000000000000000000000                              
2370001300349A0000002370200870000000995622 GERSON DOS SANTOS DE COIMBRA  0000000000000000000004082022BRL000000000000000000000000139169PGIT010000008991    040820220000000001391690000000000000000000000000000000000000000            000        
2370001300350B   100070059471263                                                                                          000          000000000139169000000000000000000000000000000000000000000000000000000000000                              
2370001300351A0000002370200870000003621030 ANGELO CABRAL NETO            0000000000000000000004082022BRL000000000000000000000000352544PGIT010000008992    040820220000000003525440000000000000000000000000000000000000000            000        
2370001300352B   100000229009344                                                                                          000          000000000352544000000000000000000000000000000000000000000000000000000000000                              
2370001300353A0000002370200870000000949817 WENIS DA SILVA E SILVA        0000000000000000000004082022BRL000000000000000000000000156074PGIT010000008993    040820220000000001560740000000000000000000000000000000000000000            000        
2370001300354B   100002961036240                                                                                          000          000000000156074000000000000000000000000000000000000000000000000000000000000                              
2370001300355A0000002370138890000000332763 WTEMBERG SILVA FEITOSA        0000000000000000000004082022BRL000000000000000000000000295376PGIT010000008994    040820220000000002953760000000000000000000000000000000000000000            000        
2370001300356B   100062016091215                                                                                          000          000000000295376000000000000000000000000000000000000000000000000000000000000                              
2370001300357A0000002370141170000000440760 SEBASTIAO LEANDRO MAMEDE      0000000000000000000004082022BRL000000000000000000000000267756PGIT010000008995    040820220000000002677560000000000000000000000000000000000000000            000        
2370001300358B   100014666065253                                                                                          000          000000000267756000000000000000000000000000000000000000000000000000000000000                              
2370001300359A0000002370780260000003420639 NEY ROBSON GOMES DA SILVA     0000000000000000000004082022BRL000000000000000000000000156231PGIT010000008996    040820220000000001562310000000000000000000000000000000000000000            000        
2370001300360B   100004868922394                                                                                          000          000000000156231000000000000000000000000000000000000000000000000000000000000                              
2370001300361A0000002370780260000004766946 TONY WILSON COSTA             0000000000000000000004082022BRL000000000000000000000000288579PGIT010000008997    040820220000000002885790000000000000000000000000000000000000000            000        
2370001300362B   100051478242272                                                                                          000          000000000288579000000000000000000000000000000000000000000000000000000000000                              
2370001300363A0000002370141170000000258741 JULIO CESAR DE SOUZA MARQUES  0000000000000000000004082022BRL000000000000000000000000268275PGIT010000008986    040820220000000002682750000000000000000000000000000000000000000            000        
2370001300364B   100000172181364                                                                                          000          000000000268275000000000000000000000000000000000000000000000000000000000000                              
2370001300365A0000002370200870000000982806 JARDEAN MESQUITA SILVA        0000000000000000000004082022BRL000000000000000000000000354205PGIT010000008987    040820220000000003542050000000000000000000000000000000000000000            000        
2370001300366B   100005523671339                                                                                          000          000000000354205000000000000000000000000000000000000000000000000000000000000                              
2370001300367A0000002370200870000000374571 BENIS JOSE DA SILVA CUNHA     0000000000000000000004082022BRL000000000000000000000000177172PGIT010000009133    040820220000000001771720000000000000000000000000000000000000000            000        
2370001300368B   100001371628203                                                                                          000          000000000177172000000000000000000000000000000000000000000000000000000000000                              
2370001300369A0000002370141170000005735432 GEOVANE DA SILVA LIMA         0000000000000000000004082022BRL000000000000000000000000177172PGIT010000009134    040820220000000001771720000000000000000000000000000000000000000            000        
2370001300370B   100001005949212                                                                                          000          000000000177172000000000000000000000000000000000000000000000000000000000000                              
2370001300371A0000002370200870000005208521 ELIVALDO VASCONCELOS DE LIMA  0000000000000000000004082022BRL000000000000000000000000189374PGIT010000009135    040820220000000001893740000000000000000000000000000000000000000            000        
2370001300372B   100092847331204                                                                                          000          000000000189374000000000000000000000000000000000000000000000000000000000000                              
2370001300373A0000002370200870000005401526 DANIEL LAGES DE SOUZA         0000000000000000000004082022BRL000000000000000000000000389181PGIT010000009029    040820220000000003891810000000000000000000000000000000000000000            000        
2370001300374B   100001852274301                                                                                          000          000000000389181000000000000000000000000000000000000000000000000000000000000                              
2370001300375A0000002370141170000000434752 FRANCISCO DAS CHAGAS DE LIMA P0000000000000000000004082022BRL000000000000000000000000132399PGIT010000008968    040820220000000001323990000000000000000000000000000000000000000            000        
2370001300376B   100002387765141                                                                                          000          000000000132399000000000000000000000000000000000000000000000000000000000000                              
2370001300377A0000002370690780000006251021 LEOJAIME AGUIAR DE SOUSA      0000000000000000000004082022BRL000000000000000000000000193077PGIT010000008969    040820220000000001930770000000000000000000000000000000000000000            000        
2370001300378B   100004274912159                                                                                          000          000000000193077000000000000000000000000000000000000000000000000000000000000                              
2370001300379A0000002370110370000000063819 ARNALDO RODRIGUES SOARES      0000000000000000000004082022BRL000000000000000000000000195606PGIT010000008970    040820220000000001956060000000000000000000000000000000000000000            000        
2370001300380B   100003490666399                                                                                          000          000000000195606000000000000000000000000000000000000000000000000000000000000                              
2370001300381A0000002370141170000000434434 GUILHERME DOS SANTOS DE MELO  0000000000000000000004082022BRL000000000000000000000000193229PGIT010000008971    040820220000000001932290000000000000000000000000000000000000000            000        
2370001300382B   100005370544212                                                                                          000          000000000193229000000000000000000000000000000000000000000000000000000000000                              
2370001300383A0000002370573200000000057061 GUSTAVO FEITOSA MACIEL        0000000000000000000004082022BRL000000000000000000000000120539PGIT010000008972    040820220000000001205390000000000000000000000000000000000000000            000        
2370001300384B   100003157171224                                                                                          000          000000000120539000000000000000000000000000000000000000000000000000000000000                              
2370001300385A0000002370303920000005601851 FRANCISCO DAS CHAGAS NASCIMENT0000000000000000000004082022BRL000000000000000000000000195762PGIT010000008973    040820220000000001957620000000000000000000000000000000000000000            000        
2370001300386B   100036470716334                                                                                          000          000000000195762000000000000000000000000000000000000000000000000000000000000                              
2370001300387A0000002370138890000000438189 LUIZ CARLOS RIBEIRO SOUSA     0000000000000000000004082022BRL000000000000000000000000178879PGIT010000009040    040820220000000001788790000000000000000000000000000000000000000            000        
2370001300388B   100000003345297                                                                                          000          000000000178879000000000000000000000000000000000000000000000000000000000000                              
2370001300389A0000002370200870000000964255 MANOEL LOBATO                 0000000000000000000004082022BRL000000000000000000000000113088PGIT010000008974    040820220000000001130880000000000000000000000000000000000000000            000        
2370001300390B   100096330317291                                                                                          000          000000000113088000000000000000000000000000000000000000000000000000000000000                              
2370001300391A0000002370645050000000152862 WILSON PEREIRA BARBOSA        0000000000000000000004082022BRL000000000000000000000000350822PGIT010000008975    040820220000000003508220000000000000000000000000000000000000000            000        
2370001300392B   100061746754249                                                                                          000          000000000350822000000000000000000000000000000000000000000000000000000000000                              
2370001300393A0000002370200870000000982032 JOSEVALDO SANTOS SAMENEZES    0000000000000000000004082022BRL000000000000000000000000189729PGIT010000008976    040820220000000001897290000000000000000000000000000000000000000            000        
2370001300394B   100005577922232                                                                                          000          000000000189729000000000000000000000000000000000000000000000000000000000000                              
2370001300395A0000002370200870000005243203 MANOEL SOUSA DA SILVA         0000000000000000000004082022BRL000000000000000000000000138482PGIT010000008977    040820220000000001384820000000000000000000000000000000000000000            000        
2370001300396B   100000073284351                                                                                          000          000000000138482000000000000000000000000000000000000000000000000000000000000                              
2370001300397A0000002370141170000000434116 ILDO JOSE VIEIRA DA SILVA     0000000000000000000004082022BRL000000000000000000000000189512PGIT010000008978    040820220000000001895120000000000000000000000000000000000000000            000        
2370001300398B   100058513752215                                                                                          000          000000000189512000000000000000000000000000000000000000000000000000000000000                              
2370001300399A0000002370141170000000435198 ANTONIO ORLANDO CARNEIRO DE SO0000000000000000000004082022BRL000000000000000000000000202102PGIT010000008979    040820220000000002021020000000000000000000000000000000000000000            000        
2370001300400B   100035139854368                                                                                          000          000000000202102000000000000000000000000000000000000000000000000000000000000                              
2370001300401A0000002370200870000000627593 FELIPE DE SOUSA DIAS          0000000000000000000004082022BRL000000000000000000000000198687PGIT010000008980    040820220000000001986870000000000000000000000000000000000000000            000        
2370001300402B   100003505279200                                                                                          000          000000000198687000000000000000000000000000000000000000000000000000000000000                              
2370001300403A0000002370141170000000434310 JOAO CANDEIA RIBEIRO FILHO    0000000000000000000004082022BRL000000000000000000000000189822PGIT010000008981    040820220000000001898220000000000000000000000000000000000000000            000        
2370001300404B   100060724616381                                                                                          000          000000000189822000000000000000000000000000000000000000000000000000000000000                              
2370001300405A0000002370200870000000270997 RAIMUNDO NONATO PEREIRA       0000000000000000000004082022BRL000000000000000000000000189801PGIT010000009121    040820220000000001898010000000000000000000000000000000000000000            000        
2370001300406B   100060133253325                                                                                          000          000000000189801000000000000000000000000000000000000000000000000000000000000                              
2370001300407A0000002370200870000005741483 ANDRE SERRA DE SOUZA          0000000000000000000004082022BRL000000000000000000000000189967PGIT010000009122    040820220000000001899670000000000000000000000000000000000000000            000        
2370001300408B   100001838516255                                                                                          000          000000000189967000000000000000000000000000000000000000000000000000000000000                              
2370001300409A0000002370200870000000220981 JORGENES ALBUQUERQUE SOARES   0000000000000000000004082022BRL000000000000000000000000254361PGIT010000009123    040820220000000002543610000000000000000000000000000000000000000            000        
2370001300410B   100042768500291                                                                                          000          000000000254361000000000000000000000000000000000000000000000000000000000000                              
2370001300411A0000002370141170000000482145 EDUARDO GOMES DA SILVA        0000000000000000000004082022BRL000000000000000000000000260247PGIT010000009124    040820220000000002602470000000000000000000000000000000000000000            000        
2370001300412B   100060075804310                                                                                          000          000000000260247000000000000000000000000000000000000000000000000000000000000                              
