23700000         21718578600016102280               0348430000003175006 CONSTRUTORA BARBOSA MELLO S/A BANCO BRADESCO S/A                      20408202217154200000108001600PREVIA                                                               
23700011C3001040 21718578600016102280               0348430000003175006 CONSTRUTORA BARBOSA MELLO S/A                                         AVENIDA PORTUGAL              4851                BELO HORIZONTE      31710400MG        BD        
2370001300001A0000002370093690000000097969 AGMAR RODRIGUES DOS SANTOS    0000000000000000000004082022BRL000000000000000000000000553381                    04082022000000000553381                                                    0BD        
2370001300002B   100069537933687                                                                                                                                                                                                                
2370001300003A0000002370110020000000083283 DANILO AUGUSTO FONSECA DE PINA0000000000000000000004082022BRL000000000000000000000001575150                    04082022000000001575150                                                    0BD        
2370001300004B   100001358293643                                                                                                                                                                                                                
2370001300005A0000002370168530000000401641 MAURICIO ALVES DIAS JUNIOR    0000000000000000000004082022BRL000000000000000000000001251393                    04082022000000001251393                                                    0BD        
2370001300006B   100008481950602                                                                                                                                                                                                                
2370001300007A0000002370115920000000101710 FELIPE DANIEL PARANHOS DE OLIV0000000000000000000004082022BRL000000000000000000000001455981                    04082022000000001455981                                                    0BD        
2370001300008B   100001511002689                                                                                                                                                                                                                
2370001300009A0000002370168530000000271470 IVANEI MIRANDA SILVA          0000000000000000000004082022BRL000000000000000000000001451399                    04082022000000001451399                                                    0BD        
2370001300010B   100006371402650                                                                                                                                                                                                                
2370001300011A0000002370093690000005508517 OSEIAS ERICK PEREIRA LEAL     0000000000000000000004082022BRL000000000000000000000000723492                    04082022000000000723492                                                    0BD        
2370001300012B   100010421973692                                                                                                                                                                                                                
2370001300013A0000002370637460000005110475 VIVIANE ANDRADE SETTE         0000000000000000000004082022BRL000000000000000000000000516768                    04082022000000000516768                                                    0BD        
2370001300014B   100007169265630                                                                                                                                                                                                                
2370001300015A0000002370185030000000052876 MARIZIA BRUM DE ABREU         0000000000000000000004082022BRL000000000000000000000000731418                    04082022000000000731418                                                    0BD        
2370001300016B   100090252292634                                                                                                                                                                                                                
2370001300017A0000002370693020000000166774 GEOVANIO BATISTA              0000000000000000000004082022BRL000000000000000000000000690571                    04082022000000000690571                                                    0BD        
2370001300018B   100064377652672                                                                                                                                                                                                                
2370001300019A0000002370306430000005800790 MABSON SILVA ROCHA            0000000000000000000004082022BRL000000000000000000000000475163                    04082022000000000475163                                                    0BD        
2370001300020B   100004062301539                                                                                                                                                                                                                
2370001300021A0000002370246510000006526977 GABRIEL GILVANDER TOMAZ GONCAL0000000000000000000004082022BRL000000000000000000000000849146                    04082022000000000849146                                                    0BD        
2370001300022B   100006034339600                                                                                                                                                                                                                
2370001300023A0000002370293860000000215228 LUCAS AUGUSTO DE BASTOS CRUZ  0000000000000000000004082022BRL000000000000000000000000949343                    04082022000000000949343                                                    0BD        
2370001300024B   100008639397678                                                                                                                                                                                                                
2370001300025A0000002370023130000000061115 ANTONIO ALVES DA SILVA        0000000000000000000004082022BRL000000000000000000000000543898                    04082022000000000543898                                                    0BD        
2370001300026B   100012145464808                                                                                                                                                                                                                
2370001300027A0000002370693020000000132543 REGINALDO ALVES CARDOSO       0000000000000000000004082022BRL000000000000000000000000415248                    04082022000000000415248                                                    0BD        
2370001300028B   100003521720454                                                                                                                                                                                                                
2370001300029A0000002370200870000000682292 IDELFRAN PEREIRA DE SOUSA     0000000000000000000004082022BRL000000000000000000000000521654                    04082022000000000521654                                                    0BD        
2370001300030B   100005632427366                                                                                                                                                                                                                
2370001300031A0000002370186190000000021962 JUSCELINO PEREIRA BRANDAO     0000000000000000000004082022BRL000000000000000000000000288857                    04082022000000000288857                                                    0BD        
2370001300032B   100046251260610                                                                                                                                                                                                                
2370001300033A0000002370693020000000061352 NAYANE KARINE MORAIS AGUIAR   0000000000000000000004082022BRL000000000000000000000000788952                    04082022000000000788952                                                    0BD        
2370001300034B   100008129129698                                                                                                                                                                                                                
2370001300035A0000002370761550000002141094 TIAGO PATRICIO RAMOS          0000000000000000000004082022BRL000000000000000000000000380204                    04082022000000000380204                                                    0BD        
2370001300036B   100005287269609                                                                                                                                                                                                                
2370001300037A0000002370693020000000061255 MARCELO PIMENTA DA SILVA      0000000000000000000004082022BRL000000000000000000000000493611                    04082022000000000493611                                                    0BD        
2370001300038B   100011015532608                                                                                                                                                                                                                
2370001300039A0000002370352700000005131758 RENATO JOSE DA SILVA          0000000000000000000004082022BRL000000000000000000000000471437                    04082022000000000471437                                                    0BD        
2370001300040B   100001370915403                                                                                                                                                                                                                
2370001300041A0000002370168530000007412134 SEBASTIAO SERGIO DE ALMEIDA   0000000000000000000004082022BRL000000000000000000000000387418                    04082022000000000387418                                                    0BD        
2370001300042B   100070475350634                                                                                                                                                                                                                
2370001300043A0000002370693020000000014419 NEILIMARA APARECIDA SILVA     0000000000000000000004082022BRL000000000000000000000000377063                    04082022000000000377063                                                    0BD        
2370001300044B   100005552617606                                                                                                                                                                                                                
2370001300045A0000002370185890000000171409 JOAO CARVALHO OLIVEIRA        0000000000000000000004082022BRL000000000000000000000000424330                    04082022000000000424330                                                    0BD        
2370001300046B   100051099543649                                                                                                                                                                                                                
2370001300455A0000002370732020000006106714 JOAO VICTOR DE SOUZA SILVA    0000000000000000000004082022BRL000000000000000000000000121176                    04082022000000000121176                                                    0BD        
2370001300456B   100013435227656                                                                                                                                                                                                                
2370001300387A0000002370392500000006063764 DIEGO DIAS SANTANA            0000000000000000000004082022BRL000000000000000000000000197637                    04082022000000000197637                                                    0BD        
2370001300388B   100011919517669                                                                                                                                                                                                                
2370001300389A0000002370216870000000571083 ROBERTO CARDOSO DOS SANTOS    0000000000000000000004082022BRL000000000000000000000000246475                    04082022000000000246475                                                    0BD        
2370001300390B   100072730951504                                                                                                                                                                                                                
2370001300457A0000002370169180000000522074 JULIO CESAR DE SANTANA        0000000000000000000004082022BRL000000000000000000000000212101                    04082022000000000212101                                                    0BD        
2370001300458B   100001770344594                                                                                                                                                                                                                
2370001300459A0000002370613950000005116813 VINICIOS VIEIRA DA SILVA      0000000000000000000004082022BRL000000000000000000000000269629                    04082022000000000269629                                                    0BD        
2370001300460B   100000609655256                                                                                                                                                                                                                
2370001300461A0000002370246270000000134775 ADRIANO APARECIDO DE JESUS    0000000000000000000004082022BRL000000000000000000000000273375                    04082022000000000273375                                                    0BD        
2370001300462B   100002923825616                                                                                                                                                                                                                
2370001300463A0000002370102860000000337226 ELIAS FERREIRA DOS ANJOS      0000000000000000000004082022BRL000000000000000000000000128190                    04082022000000000128190                                                    0BD        
2370001300464B   100013145190695                                                                                                                                                                                                                
2370001300465A0000002370693020000010010462 MAURO LUCIO ALVES DE ARAUJO   0000000000000000000004082022BRL000000000000000000000000201396                    04082022000000000201396                                                    0BD        
2370001300466B   100096065664634                                                                                                                                                                                                                
2370001300467A0000002370387170000002362600 JOSE NILSON SA DE JESUS       0000000000000000000004082022BRL000000000000000000000000239359                    04082022000000000239359                                                    0BD        
2370001300468B   100003326689675                                                                                                                                                                                                                
2370001300539A0000002370000430000000302287 RAIMUNDO NONATO ALVES DO NASCI0000000000000000000004082022BRL000000000000000000000000111453                    04082022000000000111453                                                    0BD        
2370001300540B   100064343138887                                                                                                                                                                                                                
2370001300541A0000002370068230000000245747 FRANCISCO GLAUBER LIMA MAIA   0000000000000000000004082022BRL000000000000000000000000074082                    04082022000000000074082                                                    0BD        
2370001300542B   100089634900330                                                                                                                                                                                                                
2370001300543A0000002370210750000001144430 JOAO BATISTA RUELA            0000000000000000000004082022BRL000000000000000000000000092096                    04082022000000000092096                                                    0BD        
2370001300544B   100019081898604                                                                                                                                                                                                                
2370001300545A0000002370196740000000455326 MARCIO GOMES DOS SANTOS       0000000000000000000004082022BRL000000000000000000000000033495                    04082022000000000033495                                                    0BD        
2370001300546B   100077846788515                                                                                                                                                                                                                
2370001300547A0000002370145670000000347361 ELIZIARIO PEREIRA DOS SANTOS  0000000000000000000004082022BRL000000000000000000000000027270                    04082022000000000027270                                                    0BD        
2370001300548B   100009955796448                                                                                                                                                                                                                
2370001300549A0000002370078200000000527044 JOSIAS GUILHERME DA SILVA     0000000000000000000004082022BRL000000000000000000000000029529                    04082022000000000029529                                                    002ANAT    
2370001300550B   100005085937350                                                                                                                                                                                                                
2370001300551A0000002370693020000000171433 FELIPE CAUAN FRAZAO NUNES     0000000000000000000004082022BRL000000000000000000000000025716                    04082022000000000025716                                                    0BD        
2370001300552B   100010311263500                                                                                                                                                                                                                
2370001300553A0000002370193480000000023183 CELIO CANDEIA DA SILVA        0000000000000000000004082022BRL000000000000000000000000065208                    04082022000000000065208                                                    0BD        
2370001300554B   100026904594691                                                                                                                                                                                                                
2370001300555A0000002370188990000000657131 ANDRELANDIO SILVA DOS SANTOS  0000000000000000000004082022BRL000000000000000000000000027270                    04082022000000000027270                                                    0BD        
2370001300556B   100001948577518                                                                                                                                                                                                                
2370001300557A0000002370054870000000049921 VALTER PEREIRA ROCHA          0000000000000000000004082022BRL000000000000000000000000061462                    04082022000000000061462                                                    002ATAN    
2370001300558B   100030771676115                                                                                                                                                                                                                
2370001300559A0000002370549330000000032816 TIAGO SOUSA DA SILVA          0000000000000000000004082022BRL000000000000000000000000024257                    04082022000000000024257                                                    0BD        
2370001300560B   100003784476376                                                                                                                                                                                                                
2370001300561A0000002370732020000003319016 JAILSON CORDEIRO DE SOUZA     0000000000000000000004082022BRL000000000000000000000000023316                    04082022000000000023316                                                    0BD        
2370001300562B   100064381609549                                                                                                                                                                                                                
2370001300563A0000002370373700000006631339 VICTOR WENDER QUEIROZ DE OLIVE0000000000000000000004082022BRL000000000000000000000000021553                    04082022000000000021553                                                    0BD        
2370001300564B   100015250629644                                                                                                                                                                                                                
2370001300391A0000002370045960000000234478 WALTER MARTINS GOMES          0000000000000000000004082022BRL000000000000000000000000705570                    04082022000000000705570                                                    0BD        
2370001300392B   100043732178749                                                                                                                                                                                                                
2370001300393A0000002370617600000006312624 FABIO DOS SANTOS COUTINHO     0000000000000000000004082022BRL000000000000000000000000296827                    04082022000000000296827                                                    0BD        
2370001300394B   100008257114790                                                                                                                                                                                                                
2370001300395A0000002370695900000000091235 HENRIQUE SERGIO ARAUJO DA SILV0000000000000000000004082022BRL000000000000000000000000121531                    04082022000000000121531                                                    0BD        
2370001300396B   100016227822671                                                                                                                                                                                                                
2370001300397A0000002370693020000000093300 JORGE GARCIA LIMA SANTANA     0000000000000000000004082022BRL000000000000000000000000215656                    04082022000000000215656                                                    0BD        
2370001300398B   100005555553560                                                                                                                                                                                                                
2370001300523A0000002370780260000000464465 JOAO BATISTA DE C NASCIMENTO N0000000000000000000004082022BRL000000000000000000000000086215                    04082022000000000086215                                                    0BD        
2370001300524B   100009319602409                                                                                                                                                                                                                
2370001300525A0000002370046690000000044997 PAULO LIBERATO DO NASCIMENTO  0000000000000000000004082022BRL000000000000000000000000134230                    04082022000000000134230                                                    0BD        
2370001300526B   100005055728698                                                                                                                                                                                                                
2370001300527A0000002370654800000000144878 FRANCISCO GENIVAN GUEDES COSTA0000000000000000000004082022BRL000000000000000000000000134230                    04082022000000000134230                                                    0BD        
2370001300528B   100000059762357                                                                                                                                                                                                                
2370001300529A0000002370524500000000109967 SERGIO SILVA SANTOS           0000000000000000000004082022BRL000000000000000000000000076710                    04082022000000000076710                                                    0BD        
2370001300530B   100008102827556                                                                                                                                                                                                                
2370001300531A0000002370373890000000330328 JOSE CARLOS SOUZA             0000000000000000000004082022BRL000000000000000000000000076710                    04082022000000000076710                                                    002ANAT    
2370001300532B   100015444031515                                                                                                                                                                                                                
2370001300533A0000002370322630000000801275 JOSE RAILSON DA COSTA         0000000000000000000004082022BRL000000000000000000000000078781                    04082022000000000078781                                                    0BD        
2370001300534B   100001001530462                                                                                                                                                                                                                
2370001300535A0000002370780260000004092694 WENDOL LIMA BARBOSA DOS SANTOS0000000000000000000004082022BRL000000000000000000000000078781                    04082022000000000078781                                                    0BD        
2370001300536B   100001110917309                                                                                                                                                                                                                
2370001300537A0000002370604100000000141615 PEDRO LEITE CARDOSO           0000000000000000000004082022BRL000000000000000000000000078781                    04082022000000000078781                                                    0BD        
2370001300538B   100003259085408                                                                                                                                                                                                                
2370001300469A0000002370093690000000215929 MARCOS NASCIMENTO DOS SANTOS  0000000000000000000004082022BRL000000000000000000000000172468                    04082022000000000172468                                                    0BD        
2370001300470B   100012554582670                                                                                                                                                                                                                
2370001300047A0000002370110020000000031003 MARCELO SILVA MARCONDES       0000000000000000000004082022BRL000000000000000000000001455063                    04082022000000001455063                                                    0BD        
2370001300048B   100001192856651                                                                                                                                                                                                                
2370001300119A0000002370563320000000084999 ROGER TELLES SILVA            0000000000000000000004082022BRL000000000000000000000000654444                    04082022000000000654444                                                    0BD        
2370001300120B   100008246332619                                                                                                                                                                                                                
2370001300121A0000002370188990000000537926 ARLINDO LIMA DA SILVA         0000000000000000000004082022BRL000000000000000000000000873342                    04082022000000000873342                                                    0BD        
2370001300122B   100042526655668                                                                                                                                                                                                                
2370001300123A0000002370693020000000159891 DANILO TOBIAS FREIRE DE FARIA 0000000000000000000004082022BRL000000000000000000000001055828                    04082022000000001055828                                                    0BD        
2370001300124B   100001552484645                                                                                                                                                                                                                
2370001300125A0000002370381210000001294563 THIAGO PINTO COELHO TEIXEIRA  0000000000000000000004082022BRL000000000000000000000001482944                    04082022000000001482944                                                    0BD        
2370001300126B   100004577653648                                                                                                                                                                                                                
2370001300127A0000002370168530000000402699 ARISTIDES LOPES DE MIRANDA    0000000000000000000004082022BRL000000000000000000000002146898                    04082022000000002146898                                                    0BD        
2370001300128B   100075719126600                                                                                                                                                                                                                
2370001300129A0000002370155800000000000060 JOSE PAULO DOS SANTOS         0000000000000000000004082022BRL000000000000000000000000637801                    04082022000000000637801                                                    0BD        
2370001300130B   100057251088649                                                                                                                                                                                                                
2370001300131A0000002370093690000000811610 FABIANO PEREIRA DE SOUZA      0000000000000000000004082022BRL000000000000000000000000444858                    04082022000000000444858                                                    0BD        
2370001300132B   100005990781628                                                                                                                                                                                                                
2370001300133A0000002370186190000006038727 ALDINEI SOARES DOS SANTOS     0000000000000000000004082022BRL000000000000000000000000305978                    04082022000000000305978                                                    0BD        
2370001300134B   100008715137651                                                                                                                                                                                                                
2370001300135A0000002370093690000000232106 GUILHERME OLIVEIRA DE JESUS   0000000000000000000004082022BRL000000000000000000000000265772                    04082022000000000265772                                                    0BD        
2370001300136B   100016799873646                                                                                                                                                                                                                
2370001300137A0000002370693020000000171638 CLAUDIO PEREIRA MENDONCA      0000000000000000000004082022BRL000000000000000000000000324830                    04082022000000000324830                                                    0BD        
2370001300138B   100024980258808                                                                                                                                                                                                                
2370001300139A0000002370011040000000203173 ROBSON SOARES MARTINS         0000000000000000000004082022BRL000000000000000000000000418781                    04082022000000000418781                                                    0BD        
2370001300140B   100009398789680                                                                                                                                                                                                                
2370001300141A0000002370693020000000174831 ZEFERINO FERREIRA NETO        0000000000000000000004082022BRL000000000000000000000000697852                    04082022000000000697852                                                    0BD        
2370001300142B   100040102246572                                                                                                                                                                                                                
2370001300143A0000002370271460000002917394 GUILHERME COSTA COTA          0000000000000000000004082022BRL000000000000000000000000597404                    04082022000000000597404                                                    0BD        
2370001300144B   100012999948654                                                                                                                                                                                                                
2370001300145A0000002370693020000000175412 REGINALDO GONCALVES PEREIRA SI0000000000000000000004082022BRL000000000000000000000000188746                    04082022000000000188746                                                    0BD        
2370001300146B   100006106078637                                                                                                                                                                                                                
2370001300147A0000002370093690000000178977 HARLLEY BRETAS DE ANDRADE     0000000000000000000004082022BRL000000000000000000000000406169                    04082022000000000406169                                                    0BD        
2370001300148B   100003869770627                                                                                                                                                                                                                
2370001300149A0000002370568120000000086401 LUCAS GOMES MONTEIRO          0000000000000000000004082022BRL000000000000000000000000242405                    04082022000000000242405                                                    0BD        
2370001300150B   100012877411699                                                                                                                                                                                                                
2370001300151A0000002370246940000000067407 ALLYSON CARVALHO MARQUES      0000000000000000000004082022BRL000000000000000000000002350223                    04082022000000002350223                                                    0BD        
2370001300152B   100000116159669                                                                                                                                                                                                                
2370001300153A0000002370693020000000082929 LUIZ OTAVIO FERNANDES DE OLIVE0000000000000000000004082022BRL000000000000000000000000206918                    04082022000000000206918                                                    0BD        
2370001300154B   100016029883666                                                                                                                                                                                                                
2370001300155A0000002370188990000000575518 MARCOS ANTONIO DAS GRACAS     0000000000000000000004082022BRL000000000000000000000000541813                    04082022000000000541813                                                    0BD        
2370001300156B   100076075850600                                                                                                                                                                                                                
2370001300157A0000002370693020000010002044 ICARO AUGUSTO COELHO COSTA    0000000000000000000004082022BRL000000000000000000000000330603                    04082022000000000330603                                                    0BD        
2370001300158B   100010261673610                                                                                                                                                                                                                
2370001300471A0000002370039640000006124860 GLEISSON J SOUZA              0000000000000000000004082022BRL000000000000000000000000341327                    04082022000000000341327                                                    0BD        
2370001300472B   100010518220680                                                                                                                                                                                                                
2370001300473A0000002370188990000000644269 EDIMILSON JOSE DE OLIVEIRA    0000000000000000000004082022BRL000000000000000000000000173129                    04082022000000000173129                                                    0BD        
2370001300474B   100012704301654                                                                                                                                                                                                                
2370001300475A0000002370193480000000345415 RODRIGO DA SILVA SANTOS       0000000000000000000004082022BRL000000000000000000000000104453                    04082022000000000104453                                                    0BD        
2370001300476B   100001842734555                                                                                                                                                                                                                
2370001300477A0000002370372810000006641148 JOAO VICTOR DE CASTRO SOARES  0000000000000000000004082022BRL000000000000000000000000096613                    04082022000000000096613                                                    0BD        
2370001300478B   100003444493193                                                                                                                                                                                                                
2370001300479A0000002370106850000006104185 LUCAS GOMES DUTRA             0000000000000000000004082022BRL000000000000000000000000230637                    04082022000000000230637                                                    0BD        
2370001300480B   100006316836660                                                                                                                                                                                                                
2370001300481A0000002370566690000000008858 LUIS FELIPE DE ALMEIDA RAMOS  0000000000000000000004082022BRL000000000000000000000000089820                    04082022000000000089820                                                    002ANAT    
2370001300482B   100016214867612                                                                                                                                                                                                                
2370001300483A0000002370039640000000745001 GILBERTO BARBOSA DE AQUINO    0000000000000000000004082022BRL000000000000000000000000213918                    04082022000000000213918                                                    002ANAT    
2370001300484B   100009506318689                                                                                                                                                                                                                
2370001300485A0000002370039640000000429708 EDSON GOMES DE ARAUJO         0000000000000000000004082022BRL000000000000000000000000100838                    04082022000000000100838                                                    0BD        
2370001300486B   100005839541621                                                                                                                                                                                                                
2370001300159A0000002370290330000000208183 AMILTON ANTONIO DOS SANTOS    0000000000000000000004082022BRL000000000000000000000000211964                    04082022000000000211964                                                    0BD        
2370001300160B   100086293672615                                                                                                                                                                                                                
2370001300161A0000002370290250000005015979 ELIEZER FERREIRA DOS ANJOS    0000000000000000000004082022BRL000000000000000000000000477036                    04082022000000000477036                                                    0BD        
2370001300162B   100008636499631                                                                                                                                                                                                                
2370001300163A0000002370373890000003214915 SAULO DE SOUZA                0000000000000000000004082022BRL000000000000000000000000486847                    04082022000000000486847                                                    0BD        
2370001300164B   100007499643670                                                                                                                                                                                                                
2370001300165A0000002370693020000010006880 LUIZ VICENTE ALVES NETO       0000000000000000000004082022BRL000000000000000000000000254327                    04082022000000000254327                                                    0BD        
2370001300166B   100004357589509                                                                                                                                                                                                                
2370001300167A0000002370248300000000394521 GIDINALDO ARAUJO DOS SANTOS   0000000000000000000004082022BRL000000000000000000000000238651                    04082022000000000238651                                                    0BD        
2370001300168B   100082472408587                                                                                                                                                                                                                
2370001300169A0000002370156600000006802206 ROBERTO LOURENCO              0000000000000000000004082022BRL000000000000000000000000384108                    04082022000000000384108                                                    0BD        
2370001300170B   100093910037615                                                                                                                                                                                                                
2370001300171A0000002370373700000005412064 SEVERINO JOAO DA SILVA JUNIOR 0000000000000000000004082022BRL000000000000000000000000442861                    04082022000000000442861                                                    0BD        
2370001300172B   100008857307476                                                                                                                                                                                                                
2370001300173A0000002370154820000000526223 WELBERT JOSE SOUZA DE SOUSA   0000000000000000000004082022BRL000000000000000000000000225840                    04082022000000000225840                                                    0BD        
2370001300174B   100065834313272                                                                                                                                                                                                                
2370001300175A0000002370252830000000065153 PABLO BATISTA SILVA           0000000000000000000004082022BRL000000000000000000000000767044                    04082022000000000767044                                                    0BD        
2370001300176B   100006700181631                                                                                                                                                                                                                
2370001300177A0000002370186350000006454690 MARCOS DINIZ                  0000000000000000000004082022BRL000000000000000000000000485869                    04082022000000000485869                                                    0BD        
2370001300178B   100094114048634                                                                                                                                                                                                                
2370001300179A0000002370761550000006532985 DANIELE ARRUDA GONCALVES      0000000000000000000004082022BRL000000000000000000000000291782                    04082022000000000291782                                                    0BD        
2370001300180B   100004220128662                                                                                                                                                                                                                
2370001300181A0000002370196740000003511197 MARCIO RONIELLE DE SOUSA CAETA0000000000000000000004082022BRL000000000000000000000000218424                    04082022000000000218424                                                    0BD        
2370001300182B   100004505311392                                                                                                                                                                                                                
2370001300487A00000023707030 0000000310751 RAIMUNDO NONATO F MENDES      0000000000000000000004082022BRL000000000000000000000000140231                    04082022000000000140231                                                    002AN      
2370001300488B   100045702381300                                                                                                                                                                                                                
2370001300319A0000002370063350000000006688 PERICLES LEAL                 0000000000000000000004082022BRL000000000000000000000000397883                    04082022000000000397883                                                    0BD        
2370001300320B   100094343730263                                                                                                                                                                                                                
2370001300321A0000002370150320000006392865 THIAGO FONSECA DIAS           0000000000000000000004082022BRL000000000000000000000000562211                    04082022000000000562211                                                    0BD        
2370001300322B   100010670035688                                                                                                                                                                                                                
2370001300489A0000002370392920000000972495 FRANCISCO FABIANO DE LIMA DA S0000000000000000000004082022BRL000000000000000000000000135860                    04082022000000000135860                                                    0BD        
2370001300490B   100060609514300                                                                                                                                                                                                                
2370001300491A0000002370761550000007707509 MARCOS DEYVID MENDES VIANA    0000000000000000000004082022BRL000000000000000000000000063209                    04082022000000000063209                                                    0BD        
2370001300492B   100013204582620                                                                                                                                                                                                                
2370001300493A0000002370373890000006209262 JAILSON CARDOSO DA SILVA      0000000000000000000004082022BRL000000000000000000000000086070                    04082022000000000086070                                                    0BD        
2370001300494B   100007721449316                                                                                                                                                                                                                
2370001300495A0000002370246270000010004861 ENIR BERNADETE FLORA          0000000000000000000004082022BRL000000000000000000000000086070                    04082022000000000086070                                                    0BD        
2370001300496B   100020392001691                                                                                                                                                                                                                
2370001300497A0000002370387170000006556191 ERIK HENRIQUE ALVES DOS SANTOS0000000000000000000004082022BRL000000000000000000000000072061                    04082022000000000072061                                                    0BD        
2370001300498B   100014977674669                                                                                                                                                                                                                
2370001300499A0000002370375080000002146347 MARCOS PAULO DE JESUS         0000000000000000000004082022BRL000000000000000000000000203584                    04082022000000000203584                                                    002AN      
2370001300500B   100010533535611                                                                                                                                                                                                                
2370001300501A0000002370150320000000288276 GERSON CUSTODIO AZEVEDO DO CAR0000000000000000000004082022BRL000000000000000000000000201303                    04082022000000000201303                                                    0BD        
2370001300502B   100004824507626                                                                                                                                                                                                                
2370001300503A0000002370341420000000242578 JOSE MARCOS ROMAO             0000000000000000000004082022BRL000000000000000000000000202529                    04082022000000000202529                                                    0BD        
2370001300504B   100004503293486                                                                                                                                                                                                                
2370001300505A0000002370248300000000427799 GLEISON ANDRADE DE JESUS      0000000000000000000004082022BRL000000000000000000000000123140                    04082022000000000123140                                                    0BD        
2370001300506B   100099579340234                                                                                                                                                                                                                
2370001300507A0000002370159700000000003786 JADEILTON ALVES FERREIRA      0000000000000000000004082022BRL000000000000000000000000098418                    04082022000000000098418                                                    0BD        
2370001300508B   100055618596415                                                                                                                                                                                                                
2370001300509A0000002370196740000003508005 JAMSON DE SOUZA SILVA         0000000000000000000004082022BRL000000000000000000000000098418                    04082022000000000098418                                                    0BD        
2370001300510B   100002206720590                                                                                                                                                                                                                
2370001300511A0000002370308640000000123579 LEONARDO DE ALMEIDA SILVA     0000000000000000000004082022BRL000000000000000000000000156992                    04082022000000000156992                                                    0BD        
2370001300512B   100007478804764                                                                                                                                                                                                                
2370001300513A0000002370114280000000057029 FRANCISCO NICOLAU PONTES JUNIO0000000000000000000004082022BRL000000000000000000000000098418                    04082022000000000098418                                                    0BD        
2370001300514B   100065855000320                                                                                                                                                                                                                
2370001300515A0000002370058600000005845157 JOAO KLEUBER SANTANA DE SOUSA 0000000000000000000004082022BRL000000000000000000000000101053                    04082022000000000101053                                                    0BD        
2370001300516B   100000027679454                                                                                                                                                                                                                
2370001300517A0000002370146300000001050702 PAULO FERREIRA TAVARES        0000000000000000000004082022BRL000000000000000000000000076421                    04082022000000000076421                                                    0BD        
2370001300518B   100083627731620                                                                                                                                                                                                                
2370001300519A0000002370305200000005018412 JOSE RICARDO GOMES DA CRUZ    0000000000000000000004082022BRL000000000000000000000000083956                    04082022000000000083956                                                    0BD        
2370001300520B   100097811092549                                                                                                                                                                                                                
2370001300521A0000002370252080000007202571 RENATO DIAS DE OLIVEIRA       0000000000000000000004082022BRL000000000000000000000000096505                    04082022000000000096505                                                    0BD        
2370001300522B   100088051331672                                                                                                                                                                                                                
2370001300323A00000023705113 0000005954452 PAULO CARELOS ANDRADE         0000000000000000000004082022BRL000000000000000000000000140290                    04082022000000000140290                                                    002AN      
2370001300324B   100014758470685                                                                                                                                                                                                                
2370001300115A0000002370186190000000233625 MILTON APARECIDO FERREIRA     0000000000000000000004082022BRL000000000000000000000000267454                    04082022000000000267454                                                    0BD        
2370001300116B   100009669498627                                                                                                                                                                                                                
2370001300117A0000002370693020000000145513 ELIAS RODRIGUES DE SOUSA      0000000000000000000004082022BRL000000000000000000000000482423                    04082022000000000482423                                                    0BD        
2370001300118B   100004736886382                                                                                                                                                                                                                
2370001300325A0000002370580500000000028371 MARIA DEUZIRENE AMORIM COELHO 0000000000000000000004082022BRL000000000000000000000000373768                    04082022000000000373768                                                    0BD        
2370001300326B   100004300361320                                                                                                                                                                                                                
2370001300327A0000002370156790000000038083 ADIRSON ANDRADE               0000000000000000000004082022BRL000000000000000000000000517512                    04082022000000000517512                                                    0BD        
2370001300328B   100083364609691                                                                                                                                                                                                                
2370001300399A0000002370093690000000046353 ALEXANDRE GERMANO DOS SANTOS  0000000000000000000004082022BRL000000000000000000000000120938                    04082022000000000120938                                                    0BD        
2370001300400B   100010511617623                                                                                                                                                                                                                
2370001300401A0000002370093690000000311138 GILDASIO DE JESUS             0000000000000000000004082022BRL000000000000000000000000125178                    04082022000000000125178                                                    0BD        
2370001300402B   100017040126605                                                                                                                                                                                                                
2370001300403A0000002370392920000003822885 ERLLON RODRIGUES DE SOUZA     0000000000000000000004082022BRL000000000000000000000000121745                    04082022000000000121745                                                    0BD        
2370001300404B   100014980560679                                                                                                                                                                                                                
2370001300405A0000002370081500000010037166 JEFFERSON DE OLIVEIRA SILVA   0000000000000000000004082022BRL000000000000000000000000121999                    04082022000000000121999                                                    0BD        
2370001300406B   100013302030622                                                                                                                                                                                                                
2370001300407A0000002370162410000000257958 LENILSON MIKI FERREIRA SOARES 0000000000000000000004082022BRL000000000000000000000000129324                    04082022000000000129324                                                    0BD        
2370001300408B   100002012488676                                                                                                                                                                                                                
2370001300189A0000002370563320000000069655 HEVERTON ZIMERER OLIVEIRA PALM0000000000000000000004082022BRL000000000000000000000000160986                    04082022000000000160986                                                    0BD        
2370001300190B   100014728404617                                                                                                                                                                                                                
2370001300409A0000002370248300000000451436 WANDERSON RODRIGUES LIMAS     0000000000000000000004082022BRL000000000000000000000000123467                    04082022000000000123467                                                    0BD        
2370001300410B   100012332709665                                                                                                                                                                                                                
2370001300411A0000002370693020000000185906 ALLAN DA SILVA FILHO          0000000000000000000004082022BRL000000000000000000000000200946                    04082022000000000200946                                                    0BD        
2370001300412B   100005776484545                                                                                                                                                                                                                
2370001300413A0000002370387170000005686334 MARLON DA SILVA MACHADO       0000000000000000000004082022BRL000000000000000000000000112468                    04082022000000000112468                                                    0BD        
2370001300414B   100017996476683                                                                                                                                                                                                                
2370001300415A0000002370093690000000290807 ITALO NATAN FERREIRA SILVA    0000000000000000000004082022BRL000000000000000000000000123660                    04082022000000000123660                                                    0BD        
2370001300416B   100015687513620                                                                                                                                                                                                                
2370001300417A0000002370387170000000838888 TALISSON COSTA SANTOS         0000000000000000000004082022BRL000000000000000000000000123719                    04082022000000000123719                                                    0BD        
2370001300418B   100019069463610                                                                                                                                                                                                                
2370001300419A0000002370011040000000073466 CICERO FRANCISCO DA SILVA     0000000000000000000004082022BRL000000000000000000000000346662                    04082022000000000346662                                                    0BD        
2370001300420B   100056415303449                                                                                                                                                                                                                
2370001300421A0000002370086050000000242721 IRENEU SOARES GOMES           0000000000000000000004082022BRL000000000000000000000000238623                    04082022000000000238623                                                    0BD        
2370001300422B   100004860155645                                                                                                                                                                                                                
2370001300423A0000002370375080000001089587 GLAYDSON FERNANDES SILVA      0000000000000000000004082022BRL000000000000000000000000376322                    04082022000000000376322                                                    0BD        
2370001300424B   100012164717627                                                                                                                                                                                                                
2370001300425A0000002370043910000000149217 SAIANE FERNANDES SIMAS        0000000000000000000004082022BRL000000000000000000000000490569                    04082022000000000490569                                                    0BD        
2370001300426B   100003166151028                                                                                                                                                                                                                
2370001300427A0000002370693020000010009391 CASSIO LUCIO DE SOUZA         0000000000000000000004082022BRL000000000000000000000000264814                    04082022000000000264814                                                    0BD        
2370001300428B   100066331390634                                                                                                                                                                                                                
2370001300429A0000002370252400000000243868 BRUNO AUGUSTO DO ESPIRITO SANT0000000000000000000004082022BRL000000000000000000000000238238                    04082022000000000238238                                                    0BD        
2370001300430B   100005120035647                                                                                                                                                                                                                
2370001300431A0000002370091720000005500052 LUCIANO DE JESUS SANTOS       0000000000000000000004082022BRL000000000000000000000000200591                    04082022000000000200591                                                    0BD        
2370001300432B   100004808761696                                                                                                                                                                                                                
2370001300433A0000002370246270000000253278 KENED WILKER RIBEIRO          0000000000000000000004082022BRL000000000000000000000000129407                    04082022000000000129407                                                    0BD        
2370001300434B   100002096618606                                                                                                                                                                                                                
2370001300435A0000002370654800000005407621 EDGARD ALEXANDRE DA CRUZ      0000000000000000000004082022BRL000000000000000000000000215863                    04082022000000000215863                                                    0BD        
2370001300436B   100004166347616                                                                                                                                                                                                                
2370001300437A0000002370693020000000137421 JOAO PEDRO ARAUJO DA SILVA SAN0000000000000000000004082022BRL000000000000000000000000159199                    04082022000000000159199                                                    0BD        
2370001300438B   100013814692640                                                                                                                                                                                                                
2370001300439A0000002370654800000005407931 ALEXANDRE JOSE GONCALVES      0000000000000000000004082022BRL000000000000000000000000230255                    04082022000000000230255                                                    0BD        
2370001300440B   100008394367690                                                                                                                                                                                                                
2370001300441A0000002370732020000003335941 ARTHUR BERNARDO ALVES MEIRELES0000000000000000000004082022BRL000000000000000000000000131583                    04082022000000000131583                                                    0BD        
2370001300442B   100015816886606                                                                                                                                                                                                                
2370001300443A0000002370248300000000727490 NILTON FABRICIO DA SILVA NASCI0000000000000000000004082022BRL000000000000000000000000229215                    04082022000000000229215                                                    0BD        
2370001300444B   100005013555450                                                                                                                                                                                                                
2370001300445A0000002370555300000000085448 FABIO JUNIO VIEIRA DOS SANTOS 0000000000000000000004082022BRL000000000000000000000000230158                    04082022000000000230158                                                    0BD        
2370001300446B   100008903289609                                                                                                                                                                                                                
2370001300447A0000002370252400000000247936 PAULO JOSE DOS SANTOS         0000000000000000000004082022BRL000000000000000000000000332769                    04082022000000000332769                                                    0BD        
2370001300448B   100003190241562                                                                                                                                                                                                                
2370001300449A0000002370156790000000223905 THIAGO ANTONIO FERREIRA       0000000000000000000004082022BRL000000000000000000000000282771                    04082022000000000282771                                                    0BD        
2370001300450B   100007903920626                                                                                                                                                                                                                
2370001300451A0000002370695900000000077054 KELIMAR FERREIRA CHAVES       0000000000000000000004082022BRL000000000000000000000000212963                    04082022000000000212963                                                    0BD        
2370001300452B   100011280959630                                                                                                                                                                                                                
2370001300453A0000002370221280000000662895 SEBASTIAO LUCIO XAVIER        0000000000000000000004082022BRL000000000000000000000000320688                    04082022000000000320688                                                    0BD        
2370001300454B   100027774309691                                                                                                                                                                                                                
2370001300191A0000002370196740000003513602 ROSSINO SANTOS ALENCAR        0000000000000000000004082022BRL000000000000000000000000399050                    04082022000000000399050                                                    0BD        
2370001300192B   100061803316349                                                                                                                                                                                                                
2370001300251A0000002370617600000008464677 SAMANTHA DE PAULA LOPES FARIAS0000000000000000000004082022BRL000000000000000000000000314704                    04082022000000000314704                                                    0BD        
2370001300252B   100007481816441                                                                                                                                                                                                                
2370001300253A0000002370168530000000629499 PAULO HENRIQUE GOMES          0000000000000000000004082022BRL000000000000000000000000466703                    04082022000000000466703                                                    0BD        
2370001300254B   100007222541640                                                                                                                                                                                                                
2370001300255A0000002370156600000000421758 OTAVIO HENRIQUE DOMINGOS      0000000000000000000004082022BRL000000000000000000000000200979                    04082022000000000200979                                                    0BD        
2370001300256B   100002196552607                                                                                                                                                                                                                
2370001300257A0000002370386010000000653861 FERNANDO LOURENCO CARLOS      0000000000000000000004082022BRL000000000000000000000000313129                    04082022000000000313129                                                    0BD        
2370001300258B   100007118758639                                                                                                                                                                                                                
2370001300329A0000002370070300000000020630 ALBENIR FONSECA DA COSTA      0000000000000000000004082022BRL000000000000000000000000359053                    04082022000000000359053                                                    0BD        
2370001300330B   100002502337380                                                                                                                                                                                                                
2370001300331A0000002370761550000000810029 GUILHERME RAFAEL DUARTE ROCHA 0000000000000000000004082022BRL000000000000000000000000522183                    04082022000000000522183                                                    0BD        
2370001300332B   100006430957640                                                                                                                                                                                                                
2370001300333A0000002370188990000000535605 JARDEL ALVES DOS SANTOS       0000000000000000000004082022BRL000000000000000000000000120781                    04082022000000000120781                                                    0BD        
2370001300334B   100011901999637                                                                                                                                                                                                                
2370001300335A0000002370248300000000458228 JOSE GILVANY OLIVEIRA         0000000000000000000004082022BRL000000000000000000000000319307                    04082022000000000319307                                                    0BD        
2370001300336B   100004304618440                                                                                                                                                                                                                
2370001300337A0000002370761550000007710062 JOSE VICTOR SILVA BATISTA     0000000000000000000004082022BRL000000000000000000000000166980                    04082022000000000166980                                                    0BD        
2370001300338B   100016091083619                                                                                                                                                                                                                
2370001300339A0000002370554090000000049077 JOSE DA SILVA OLIVEIRA        0000000000000000000004082022BRL000000000000000000000000437571                    04082022000000000437571                                                    0BD        
2370001300340B   100084368233620                                                                                                                                                                                                                
2370001300341A0000002370179140000000256137 WASHINGTON DE SOUZA MANHAES   0000000000000000000004082022BRL000000000000000000000000182810                    04082022000000000182810                                                    0BD        
2370001300342B   100003866853718                                                                                                                                                                                                                
2370001300343A0000002370555300000000066362 JORGE ERNESTO DE SOUZA JUNIOR 0000000000000000000004082022BRL000000000000000000000000153926                    04082022000000000153926                                                    0BD        
2370001300344B   100062351990404                                                                                                                                                                                                                
2370001300345A0000002370169180000000527068 RODRIGO ARAUJO SOUZA          0000000000000000000004082022BRL000000000000000000000000239177                    04082022000000000239177                                                    0BD        
2370001300346B   100000415497590                                                                                                                                                                                                                
2370001300347A0000002370146300000001064940 ARTHUR GABRIEL DE SOUZA       0000000000000000000004082022BRL000000000000000000000000129578                    04082022000000000129578                                                    0BD        
2370001300348B   100002027905685                                                                                                                                                                                                                
2370001300349A0000002370098730000000485454 FRANCISCO DAS CHAGAS SILVA    0000000000000000000004082022BRL000000000000000000000000338387                    04082022000000000338387                                                    0BD        
2370001300350B   100038059525387                                                                                                                                                                                                                
2370001300351A0000002370368890000000167282 JAILSON DAMASCENO DE PAIVA    0000000000000000000004082022BRL000000000000000000000000383520                    04082022000000000383520                                                    0BD        
2370001300352B   100026920905515                                                                                                                                                                                                                
2370001300353A0000002370188990000006100147 RONALDO FEITOZA DOS SANTOS    0000000000000000000004082022BRL000000000000000000000000343800                    04082022000000000343800                                                    0BD        
2370001300354B   100068685211468                                                                                                                                                                                                                
2370001300193A0000002370059080000005106613 DERLI LEONELO LETRARI JUNIOR  0000000000000000000004082022BRL000000000000000000000000265728                    04082022000000000265728                                                    0BD        
2370001300194B   100078111188153                                                                                                                                                                                                                
2370001300195A0000002370103830000006106234 MARCELO JOSE DA SILVA         0000000000000000000004082022BRL000000000000000000000000287515                    04082022000000000287515                                                    0BD        
2370001300196B   100004646286440                                                                                                                                                                                                                
2370001300197A0000002370015380000001164759 LUIZ DALCIO RODRIGUES         0000000000000000000004082022BRL000000000000000000000000239393                    04082022000000000239393                                                    0BD        
2370001300198B   100038658925234                                                                                                                                                                                                                
2370001300199A0000002370194700000000259136 ADRIANO DOS SANTOS AMORIM     0000000000000000000004082022BRL000000000000000000000000377496                    04082022000000000377496                                                    0BD        
2370001300200B   100000225741237                                                                                                                                                                                                                
2370001300201A0000002370046420000004813065 ANA APARECIDA COUTINHO AMORIM 0000000000000000000004082022BRL000000000000000000000000541030                    04082022000000000541030                                                    0BD        
2370001300202B   100008618760676                                                                                                                                                                                                                
2370001300203A0000002370373700000002506823 LUCAS CAMPEZATO PALAZZI       0000000000000000000004082022BRL000000000000000000000000422634                    04082022000000000422634                                                    0BD        
2370001300204B   100037117596880                                                                                                                                                                                                                
2370001300205A0000002370373700000001681796 JOYCE DA CONCEICAO SANTOS     0000000000000000000004082022BRL000000000000000000000000168434                    04082022000000000168434                                                    0BD        
2370001300206B   100013767373610                                                                                                                                                                                                                
2370001300207A0000002370683650000000006645 VANILSON PEREIRA DE SOUZA     0000000000000000000004082022BRL000000000000000000000000376107                    04082022000000000376107                                                    0BD        
2370001300208B   100008755733476                                                                                                                                                                                                                
2370001300209A0000002370196740000000396427 EMERSON LUCAS DIAS FERREIRA   0000000000000000000004082022BRL000000000000000000000000145458                    04082022000000000145458                                                    0BD        
2370001300210B   100015261291674                                                                                                                                                                                                                
2370001300211A0000002370373700000003684288 WIRLLAN BATISTA DIAS          0000000000000000000004082022BRL000000000000000000000000165234                    04082022000000000165234                                                    0BD        
2370001300212B   100013027061607                                                                                                                                                                                                                
2370001300213A0000002370354910000010012287 ONICIO PINHEIRO DA SILVA      0000000000000000000004082022BRL000000000000000000000000343395                    04082022000000000343395                                                    0BD        
2370001300214B   100010530667835                                                                                                                                                                                                                
2370001300215A0000002370693020000000093890 UBALDO BEZERRA DOS SANTOS     0000000000000000000004082022BRL000000000000000000000000227088                    04082022000000000227088                                                    0BD        
2370001300216B   100035747714520                                                                                                                                                                                                                
2370001300217A0000002370026230000000167533 NELSON DA MATA LIMA           0000000000000000000004082022BRL000000000000000000000000339688                    04082022000000000339688                                                    0BD        
2370001300218B   100088911519120                                                                                                                                                                                                                
2370001300219A0000002370154070000000179469 CRISTIANO MARTINS DA SILVA    0000000000000000000004082022BRL000000000000000000000000547237                    04082022000000000547237                                                    0BD        
2370001300220B   100001549431188                                                                                                                                                                                                                
2370001300221A0000002370358400000000026344 JOSE SILVA OLIVEIRA           0000000000000000000004082022BRL000000000000000000000000283772                    04082022000000000283772                                                    0BD        
2370001300222B   100094450722434                                                                                                                                                                                                                
2370001300223A0000002370321070000000382183 JOSE PEREIRA DA SILVA         0000000000000000000004082022BRL000000000000000000000000253800                    04082022000000000253800                                                    0BD        
2370001300224B   100034419667400                                                                                                                                                                                                                
2370001300225A0000002370373700000005077095 OCLENIO ALVES DE SENAS        0000000000000000000004082022BRL000000000000000000000000303682                    04082022000000000303682                                                    0BD        
2370001300226B   100042439043249                                                                                                                                                                                                                
2370001300227A0000002370633630000008402841 ELIOENAI SANTOS VIEIRA        0000000000000000000004082022BRL000000000000000000000000239024                    04082022000000000239024                                                    0BD        
2370001300228B   100094229198272                                                                                                                                                                                                                
2370001300229A0000002370196740000000395994 EDERNEY BENTO DE LIMA         0000000000000000000004082022BRL000000000000000000000000549476                    04082022000000000549476                                                    0BD        
2370001300230B   100035940079873                                                                                                                                                                                                                
2370001300231A0000002370780260000003801306 MARCOS LUIZ SANTOS BESERRA    0000000000000000000004082022BRL000000000000000000000000309573                    04082022000000000309573                                                    0BD        
2370001300232B   100000672957540                                                                                                                                                                                                                
2370001300233A0000002370373890000001856960 EDVAN DE JESUS SANTANA        0000000000000000000004082022BRL000000000000000000000000362687                    04082022000000000362687                                                    0BD        
2370001300234B   100001419044532                                                                                                                                                                                                                
2370001300235A0000002370196740000000399728 WELSON SANTOS OLIVEIRA        0000000000000000000004082022BRL000000000000000000000000320954                    04082022000000000320954                                                    0BD        
2370001300236B   100006750103570                                                                                                                                                                                                                
2370001300355A0000002370065990000000121010 MARCONES CARNEIRO DE MORAIS   0000000000000000000004082022BRL000000000000000000000000279417                    04082022000000000279417                                                    0BD        
2370001300356B   100004449646495                                                                                                                                                                                                                
2370001300357A0000002370188990000000589004 NILTRO GUALBERTO PEIXOTO      0000000000000000000004082022BRL000000000000000000000000132294                    04082022000000000132294                                                    0BD        
2370001300358B   100078452910720                                                                                                                                                                                                                
2370001300359A0000002370372810000007485085 ROMULO BATISTA DO NASCIMENTO  0000000000000000000004082022BRL000000000000000000000000155769                    04082022000000000155769                                                    0BD        
2370001300360B   100011627429689                                                                                                                                                                                                                
2370001300361A0000002370081760000000176320 PEDRO VITORIO DE BARROS NETO  0000000000000000000004082022BRL000000000000000000000000225237                    04082022000000000225237                                                    0BD        
2370001300362B   100001843468433                                                                                                                                                                                                                
2370001300363A0000002370293860000000369616 HANNAH COSTA OLIVEIRA         0000000000000000000004082022BRL000000000000000000000000743315                    04082022000000000743315                                                    0BD        
2370001300364B   100001851712658                                                                                                                                                                                                                
2370001300365A0000002370138890000000298204 GETULIO MODESTO ARAUJO        0000000000000000000004082022BRL000000000000000000000000359886                    04082022000000000359886                                                    0BD        
2370001300366B   100086758179834                                                                                                                                                                                                                
2370001300367A0000002370695900000000003565 RICARDO MACHADO DA SILVA      0000000000000000000004082022BRL000000000000000000000000024116                    04082022000000000024116                                                    0BD        
2370001300368B   100007884644690                                                                                                                                                                                                                
2370001300369A0000002370146300000000850110 MARCOS RENIVALDO FREIRE ALVES 0000000000000000000004082022BRL000000000000000000000000325731                    04082022000000000325731                                                    0BD        
2370001300370B   100097924300597                                                                                                                                                                                                                
2370001300371A0000002370693020000000112542 EDUARDO SANTOS SILVA          0000000000000000000004082022BRL000000000000000000000000361824                    04082022000000000361824                                                    0BD        
2370001300372B   100034612661591                                                                                                                                                                                                                
2370001300373A0000002370091720000000028223 BRENO ROCHA ANTUNES           0000000000000000000004082022BRL000000000000000000000000233383                    04082022000000000233383                                                    0BD        
2370001300374B   100013251882635                                                                                                                                                                                                                
2370001300375A0000002370372810000003560880 ARTHUR SOARES CARDOSO         0000000000000000000004082022BRL000000000000000000000000236938                    04082022000000000236938                                                    0BD        
2370001300376B   100015550887673                                                                                                                                                                                                                
2370001300377A0000002370679890000010009103 RAIMUNDO NONATO ALVES PEREIRA 0000000000000000000004082022BRL000000000000000000000000342089                    04082022000000000342089                                                    002AT      
2370001300378B   100000141210346                                                                                                                                                                                                                
2370001300237A0000002370373890000002947013 GILVAN DE SOUSA NUNES         0000000000000000000004082022BRL000000000000000000000000212186                    04082022000000000212186                                                    0BD        
2370001300238B   100004741142442                                                                                                                                                                                                                
