23700000         21718578600016102280               0348430000003175006 CONSTRUTORA BARBOSA MELLO S/A                                         20609202204055600000108001600PROCESSADO                                                           
23700011C3001040 21718578600016102280               0348430000003175006 CONSTRUTORA BARBOSA MELLO S/A                                         AVENIDA PORTUGAL                                  BELO HORIZONTE           000MG        00        
2370001300001A0000002370293860000000062073 CLEUJAQUES GOMES DA SILVA     0000000000000000000005092022BRL000000000000000000000000375005PGIT010000038128    060920220000000003750050000000000000000000000000000000000000000            000        
2370001300002B   100082689814668                                                                                          000          000000000375005000000000000000000000000000000000000000000000000000000000000                              
2370001300003A0000002370168530000000555614 DANIEL FELIPE MORENO          0000000000000000000005092022BRL000000000000000000000000312285PGIT010000038636    060920220000000003122850000000000000000000000000000000000000000            000        
2370001300004B   100004796663428                                                                                          000          000000000312285000000000000000000000000000000000000000000000000000000000000                              
2370001300005A0000002370386280000001584049 VALDIR LOZADO SANTOS          0000000000000000000005092022BRL000000000000000000000000292001PGIT010000039118    060920220000000002920010000000000000000000000000000000000000000            000        
2370001300006B   100058530029100                                                                                          000          000000000292001000000000000000000000000000000000000000000000000000000000000                              
2370001300007A0000002370248560000000574228 JHENIFER STEPHANIE ARAUJO     0000000000000000000005092022BRL000000000000000000000000485465PGIT010000038244    060920220000000004854650000000000000000000000000000000000000000            000        
2370001300008B   100001786549654                                                                                          000          000000000485465000000000000000000000000000000000000000000000000000000000000                              
2370001300009A0000002370693020000000093300 JORGE GARCIA LIMA SANTANA     0000000000000000000005092022BRL000000000000000000000000349783PGIT010000038864    060920220000000003497830000000000000000000000000000000000000000            000        
2370001300010B   100005555553560                                                                                          000          000000000349783000000000000000000000000000000000000000000000000000000000000                              
2370001300011A0000002370261070000000120545 MARCIO MARQUES DA SILVA       0000000000000000000005092022BRL000000000000000000000000543217PGIT010000038245    060920220000000005432170000000000000000000000000000000000000000            000        
2370001300012B   100004102968644                                                                                          000          000000000543217000000000000000000000000000000000000000000000000000000000000                              
2370001300013A0000002370671560000001265741 JOSE VILEMOS SCHULTZ          0000000000000000000005092022BRL000000000000000000000000235252PGIT010000038658    060920220000000002352520000000000000000000000000000000000000000            000        
2370001300014B   100004569582664                                                                                          000          000000000235252000000000000000000000000000000000000000000000000000000000000                              
2370001300015A0000002370306430000000659312 EDNO NOGUEIRA GONCALVES       0000000000000000000005092022BRL000000000000000000000000419845PGIT010000038659    060920220000000004198450000000000000000000000000000000000000000            000        
2370001300016B   100005847678622                                                                                          000          000000000419845000000000000000000000000000000000000000000000000000000000000                              
2370001300017A0000002370185540000000115754 PATRICK BRAS FONSECA          0000000000000000000005092022BRL000000000000000000000000194889PGIT010000038660    060920220000000001948890000000000000000000000000000000000000000            000        
2370001300018B   100001586361635                                                                                          000          000000000194889000000000000000000000000000000000000000000000000000000000000                              
2370001300019A0000002370202220000007200072 JOSE DO CARMO DOS SANTOS      0000000000000000000005092022BRL000000000000000000000000458451PGIT010000038661    060920220000000004584510000000000000000000000000000000000000000            000        
2370001300020B   100001706018703                                                                                          000          000000000458451000000000000000000000000000000000000000000000000000000000000                              
2370001300021A0000002370186350000000208736 BEATRIZ APARECIDA DE SOUZA SAN0000000000000000000005092022BRL000000000000000000000000011845PGIT010000039026    060920220000000000118450000000000000000000000000000000000000000            000        
2370001300022B   100014657175602                                                                                          000          000000000011845000000000000000000000000000000000000000000000000000000000000                              
2370001300023A0000002370637460000000012009 LAIRTON GOMES DE PAULO        0000000000000000000005092022BRL000000000000000000000000477679PGIT010000039027    060920220000000004776790000000000000000000000000000000000000000            000        
2370001300024B   100011424426677                                                                                          000          000000000477679000000000000000000000000000000000000000000000000000000000000                              
2370001300025A0000002370263870000004964438 OTTO DE FARIA MENDES          0000000000000000000005092022BRL000000000000000000000001149834PGIT010000039028    060920220000000011498340000000000000000000000000000000000000000            000        
2370001300026B   100003777457663                                                                                          000          000000001149834000000000000000000000000000000000000000000000000000000000000                              
2370001300027A0000002370150320000007007299 REGIANE DAS GRACAS PEIXOTO    0000000000000000000005092022BRL000000000000000000000000487028PGIT010000039029    060920220000000004870280000000000000000000000000000000000000000            000        
2370001300028B   100003299370650                                                                                          000          000000000487028000000000000000000000000000000000000000000000000000000000000                              
2370001300029A0000002370156790000000170461 MARCELY ITATIANE PINHO AMARO  0000000000000000000005092022BRL000000000000000000000000721948PGIT010000039191    060920220000000007219480000000000000000000000000000000000000000            000        
2370001300030B   100003521618684                                                                                          000          000000000721948000000000000000000000000000000000000000000000000000000000000                              
2370001300031A0000002370248300000003500705 ADIVANIO GOMES SOUZA          0000000000000000000005092022BRL000000000000000000000000594057PGIT010000039192    060920220000000005940570000000000000000000000000000000000000000            000        
2370001300032B   100027424376810                                                                                          000          000000000594057000000000000000000000000000000000000000000000000000000000000                              
2370001300033A0000002370200870000005772478 FREDSON LEMOS DA SILVA        0000000000000000000005092022BRL000000000000000000000000327573PGIT010000039193    060920220000000003275730000000000000000000000000000000000000000            000        
2370001300034B   100079196985291                                                                                          000          000000000327573000000000000000000000000000000000000000000000000000000000000                              
2370001300035A0000002370645050000000132578 LEANDRO DOS SANTOS SILVA      0000000000000000000005092022BRL000000000000000000000000459546PGIT010000039194    060920220000000004595460000000000000000000000000000000000000000            000        
2370001300036B   100060304947326                                                                                          000          000000000459546000000000000000000000000000000000000000000000000000000000000                              
2370001300037A0000002370716090000002209322 DENILSON DA CONCEICAO VANZELER0000000000000000000005092022BRL000000000000000000000000253745PGIT010000039195    060920220000000002537450000000000000000000000000000000000000000            000        
2370001300038B   100003938818220                                                                                          000          000000000253745000000000000000000000000000000000000000000000000000000000000                              
2370001300039A0000002370645050000000107603 DELCIELTON PEREIRA            0000000000000000000005092022BRL000000000000000000000000212397PGIT010000039196    060920220000000002123970000000000000000000000000000000000000000            000        
2370001300040B   100007302865337                                                                                          000          000000000212397000000000000000000000000000000000000000000000000000000000000                              
2370001300041A0000002370200870000000636967 CLAUDENILSON MENDONCA FURTADO 0000000000000000000005092022BRL000000000000000000000000305021PGIT010000039197    060920220000000003050210000000000000000000000000000000000000000            000        
2370001300042B   100000666155267                                                                                          000          000000000305021000000000000000000000000000000000000000000000000000000000000                              
2370001300043A0000002370200870000000909270 JURANDIR SILVA PORTELA        0000000000000000000005092022BRL000000000000000000000000140162PGIT010000039225    060920220000000001401620000000000000000000000000000000000000000            000        
2370001300044B   100062716328234                                                                                          000          000000000140162000000000000000000000000000000000000000000000000000000000000                              
2370001300045A0000002370200870000000921033 FRANCISCO GILDASIO DA SILVA   0000000000000000000005092022BRL000000000000000000000000047822PGIT010000039226    060920220000000000478220000000000000000000000000000000000000000            000        
2370001300046B   100000662873246                                                                                          000          000000000047822000000000000000000000000000000000000000000000000000000000000                              
2370001300047A0000002370573550000000037664 JACIRLEI MELO DE BRITO        0000000000000000000005092022BRL000000000000000000000000517597PGIT010000039227    060920220000000005175970000000000000000000000000000000000000000            000        
2370001300048B   100066149207234                                                                                          000          000000000517597000000000000000000000000000000000000000000000000000000000000                              
2370001300049A0000002370200870000000850578 DAYANNE KELLY PAIS SOUSA      0000000000000000000005092022BRL000000000000000000000000430220PGIT010000039228    060920220000000004302200000000000000000000000000000000000000000            000        
2370001300050B   100002732608394                                                                                          000          000000000430220000000000000000000000000000000000000000000000000000000000000                              
2370001300051A0000002370141170000000290351 TIAGO ALMEIDA DA COSTA        0000000000000000000005092022BRL000000000000000000000000147589PGIT010000039229    060920220000000001475890000000000000000000000000000000000000000            000        
2370001300052B   100005570486216                                                                                          000          000000000147589000000000000000000000000000000000000000000000000000000000000                              
2370001300053A0000002370373890000005808561 LEANDRO RODRIGUES DIAS DE LIMA0000000000000000000005092022BRL000000000000000000000000293296PGIT010000039230    060920220000000002932960000000000000000000000000000000000000000            000        
2370001300054B   100003222521212                                                                                          000          000000000293296000000000000000000000000000000000000000000000000000000000000                              
2370001300055A0000002370752640000002787601 FELIPE SILVA NASCIMENTO       0000000000000000000005092022BRL000000000000000000000000520888PGIT010000039231    060920220000000005208880000000000000000000000000000000000000000            000        
2370001300056B   100001478560274                                                                                          000          000000000520888000000000000000000000000000000000000000000000000000000000000                              
2370001300057A0000002370386010000005532043 VINICIU CAMPOS DOS SANTOS     0000000000000000000005092022BRL000000000000000000000000178063PGIT010000039232    060920220000000001780630000000000000000000000000000000000000000            000        
2370001300058B   100005961208265                                                                                          000          000000000178063000000000000000000000000000000000000000000000000000000000000                              
2370001300059A0000002370386280000006373631 CICERO ALVES DA SILVA         0000000000000000000005092022BRL000000000000000000000000202242PGIT010000039126    060920220000000002022420000000000000000000000000000000000000000            000        
2370001300060B   100078072115391                                                                                          000          000000000202242000000000000000000000000000000000000000000000000000000000000                              
2370001300061A0000002370104640000005120802 DEUZANILDO BENICIO DO NASCIMEN0000000000000000000005092022BRL000000000000000000000000352390PGIT010000039233    060920220000000003523900000000000000000000000000000000000000000            000        
2370001300062B   100096036737300                                                                                          000          000000000352390000000000000000000000000000000000000000000000000000000000000                              
2370001300063A0000002370093690000000283517 NICOLAU ELCE FERNANDES PESSOA 0000000000000000000005092022BRL000000000000000000000000216395PGIT010000039127    060920220000000002163950000000000000000000000000000000000000000            000        
2370001300064B   100088814564604                                                                                          000          000000000216395000000000000000000000000000000000000000000000000000000000000                              
2370001300065A0000002370248560000000217395 CARLOS ROBERTO OLIVEIRA       0000000000000000000005092022BRL000000000000000000000000570418PGIT010000039090    060920220000000005704180000000000000000000000000000000000000000            000        
2370001300066B   100093699883604                                                                                          000          000000000570418000000000000000000000000000000000000000000000000000000000000                              
2370001300067A0000002370386280000007055056 LUCINEI SANTANA MEDEIROS      0000000000000000000005092022BRL000000000000000000000000472583PGIT010000039128    060920220000000004725830000000000000000000000000000000000000000            000        
2370001300068B   100010788848623                                                                                          000          000000000472583000000000000000000000000000000000000000000000000000000000000                              
2370001300069A0000002370320000000000034398 JOSE AMARO FERREIRA           0000000000000000000005092022BRL000000000000000000000001087500PGIT010000039129    060920220000000010875000000000000000000000000000000000000000000            000        
2370001300070B   100064789365972                                                                                          000          000000001087500000000000000000000000000000000000000000000000000000000000000                              
2370001300071A0000002370303920000000157899 CARLOS DANIEL SZADKOSKI       0000000000000000000005092022BRL000000000000000000000003625000PGIT010000039130    060920220000000036250000000000000000000000000000000000000000000            000        
2370001300072B   100093082568149                                                                                          000          000000003625000000000000000000000000000000000000000000000000000000000000000                              
2370001300073A0000002370229930000001310429 MARCO ANTONIO GOMES DA SILVA  0000000000000000000005092022BRL000000000000000000000001631250PGIT010000039131    060920220000000016312500000000000000000000000000000000000000000            000        
2370001300074B   100080424210606                                                                                          000          000000001631250000000000000000000000000000000000000000000000000000000000000                              
2370001300075A0000002370373890000004975723 FABRICIO MAGNO TEIXEIRA       0000000000000000000005092022BRL000000000000000000000000128679PGIT010000039091    060920220000000001286790000000000000000000000000000000000000000            000        
2370001300076B   100008379859600                                                                                          000          000000000128679000000000000000000000000000000000000000000000000000000000000                              
2370001300077A0000002370046770000005204879 ISAIAS FELISBERTO DOS SANTOS  0000000000000000000005092022BRL000000000000000000000000241148PGIT010000039119    060920220000000002411480000000000000000000000000000000000000000            000        
2370001300078B   100073241466604                                                                                          000          000000000241148000000000000000000000000000000000000000000000000000000000000                              
2370001300079A0000002370563320000000173304 OLIMPIO APARECIDO DE PAULA    0000000000000000000005092022BRL000000000000000000000000402561PGIT010000039120    060920220000000004025610000000000000000000000000000000000000000            000        
2370001300080B   100026399512204                                                                                          000          000000000402561000000000000000000000000000000000000000000000000000000000000                              
2370001300081A0000002370188990000000657131 ANDRELANDIO SILVA DOS SANTOS  0000000000000000000005092022BRL000000000000000000000000155042PGIT010000038933    060920220000000001550420000000000000000000000000000000000000000            000        
2370001300082B   100001948577518                                                                                          000          000000000155042000000000000000000000000000000000000000000000000000000000000                              
2370001300083A0000002370548440000000049921 VALTER PEREIRA ROCHA          0000000000000000000005092022BRL000000000000000000000000383828PGIT010000038934    060920220000000003838280000000000000000000000000000000000000000            000        
2370001300084B   100030771676115                                                                                          000          000000000383828000000000000000000000000000000000000000000000000000000000000                              
2370001300085A0000002370303920000000021784 ANDERSON DOS REIS SOUZA       0000000000000000000005092022BRL000000000000000000000002175000PGIT010000039136    060920220000000021750000000000000000000000000000000000000000000            000        
2370001300086B   100071271384272                                                                                          000          000000002175000000000000000000000000000000000000000000000000000000000000000                              
2370001300087A0000002370664190000000088765 DAMIAO FERREIRA DE LIMA       0000000000000000000005092022BRL000000000000000000000001812500PGIT010000039137    060920220000000018125000000000000000000000000000000000000000000            000        
2370001300088B   100047724153604                                                                                          000          000000001812500000000000000000000000000000000000000000000000000000000000000                              
2370001300089A0000002370046500000000057231 JONATHAN ANDERSEN ROCHA MOREIR0000000000000000000005092022BRL000000000000000000000000239546PGIT010000039138    060920220000000002395460000000000000000000000000000000000000000            000        
2370001300090B   100011341256669                                                                                          000          000000000239546000000000000000000000000000000000000000000000000000000000000                              
2370001300091A0000002370226670000000046396 KLEBER SANTOS FILHO           0000000000000000000005092022BRL000000000000000000000000181250PGIT010000039139    060920220000000001812500000000000000000000000000000000000000000            000        
2370001300092B   100077177231234                                                                                          000          000000000181250000000000000000000000000000000000000000000000000000000000000                              
2370001300093A0000002370303920000007465491 GILDACI SANTOS SILVA          0000000000000000000005092022BRL000000000000000000000000280876PGIT010000039140    060920220000000002808760000000000000000000000000000000000000000            000        
2370001300094B   100000522659276                                                                                          000          000000000280876000000000000000000000000000000000000000000000000000000000000                              
2370001300095A0000002370093690000000046353 ALEXANDRE GERMANO DOS SANTOS  0000000000000000000005092022BRL000000000000000000000000156680PGIT010000038865    060920220000000001566800000000000000000000000000000000000000000            000        
2370001300096B   100010511617623                                                                                          000          000000000156680000000000000000000000000000000000000000000000000000000000000                              
2370001300097A0000002370093690000000311138 GILDASIO DE JESUS             0000000000000000000005092022BRL000000000000000000000000203229PGIT010000038866    060920220000000002032290000000000000000000000000000000000000000            000        
2370001300098B   100017040126605                                                                                          000          000000000203229000000000000000000000000000000000000000000000000000000000000                              
2370001300099A0000002370392920000003822885 ERLLON RODRIGUES DE SOUZA     0000000000000000000005092022BRL000000000000000000000000238644PGIT010000038867    060920220000000002386440000000000000000000000000000000000000000            000        
2370001300100B   100014980560679                                                                                          000          000000000238644000000000000000000000000000000000000000000000000000000000000                              
2370001300101A0000002370081500000010037166 JEFFERSON DE OLIVEIRA SILVA   0000000000000000000005092022BRL000000000000000000000000157027PGIT010000038868    060920220000000001570270000000000000000000000000000000000000000            000        
2370001300102B   100013302030622                                                                                          000          000000000157027000000000000000000000000000000000000000000000000000000000000                              
2370001300103A0000002370162410000000257958 LENILSON MIKI FERREIRA SOARES 0000000000000000000005092022BRL000000000000000000000000194289PGIT010000038869    060920220000000001942890000000000000000000000000000000000000000            000        
2370001300104B   100002012488676                                                                                          000          000000000194289000000000000000000000000000000000000000000000000000000000000                              
2370001300105A0000002370248300000000451436 WANDERSON RODRIGUES LIMAS     0000000000000000000005092022BRL000000000000000000000000229829PGIT010000038870    060920220000000002298290000000000000000000000000000000000000000            000        
2370001300106B   100012332709665                                                                                          000          000000000229829000000000000000000000000000000000000000000000000000000000000                              
2370001300107A0000002370303920000000182001 JUNIELSON FERREIRA            0000000000000000000005092022BRL000000000000000000000000096218PGIT010000039141    060920220000000000962180000000000000000000000000000000000000000            000        
2370001300108B   100070013332201                                                                                          000          000000000096218000000000000000000000000000000000000000000000000000000000000                              
2370001300109A0000002370150320000001286293 FERNANDO TOME MONTEIRO        0000000000000000000005092022BRL000000000000000000000000517683PGIT010000038701    060920220000000005176830000000000000000000000000000000000000000            000        
2370001300110B   100005966022607                                                                                          000          000000000517683000000000000000000000000000000000000000000000000000000000000                              
2370001300111A0000002370671560000000148792 VINCENZO SGROMO               0000000000000000000005092022BRL000000000000000000000000848871PGIT010000038702    060920220000000008488710000000000000000000000000000000000000000            000        
2370001300112B   100011765388619                                                                                          000          000000000848871000000000000000000000000000000000000000000000000000000000000                              
2370001300113A0000002370147100000000585785 JOSE EVERSON TEIXEIRA         0000000000000000000005092022BRL000000000000000000000000536332PGIT010000038703    060920220000000005363320000000000000000000000000000000000000000            000        
2370001300114B   100095437606672                                                                                          000          000000000536332000000000000000000000000000000000000000000000000000000000000                              
2370001300115A0000002370067420000000059625 LUCAS SILVA SANTOS            0000000000000000000005092022BRL000000000000000000000000732329PGIT010000038704    060920220000000007323290000000000000000000000000000000000000000            000        
2370001300116B   100002924602521                                                                                          000          000000000732329000000000000000000000000000000000000000000000000000000000000                              
2370001300117A0000002370093690000005504899 DIOGO CESAR T DOS SANTOS      0000000000000000000005092022BRL000000000000000000000000579677PGIT010000038705    060920220000000005796770000000000000000000000000000000000000000            000        
2370001300118B   100010737452609                                                                                          000          000000000579677000000000000000000000000000000000000000000000000000000000000                              
2370001300119A0000002370693020000000086363 JOSENALDO MENDES CAJE         0000000000000000000005092022BRL000000000000000000000000466454PGIT010000038706    060920220000000004664540000000000000000000000000000000000000000            000        
2370001300120B   100003586580550                                                                                          000          000000000466454000000000000000000000000000000000000000000000000000000000000                              
2370001300121A0000002370693020000000114855 MARIA HELENA RIBEIRO DE ARAUJO0000000000000000000005092022BRL000000000000000000000000120464PGIT010000038707    060920220000000001204640000000000000000000000000000000000000000            000        
2370001300122B   100029604320297                                                                                          000          000000000120464000000000000000000000000000000000000000000000000000000000000                              
2370001300123A0000002370564720000000038296 ADILIO SOARES BARBOSA         0000000000000000000005092022BRL000000000000000000000000557620PGIT010000038708    060920220000000005576200000000000000000000000000000000000000000            000        
2370001300124B   100006122621625                                                                                          000          000000000557620000000000000000000000000000000000000000000000000000000000000                              
2370001300125A0000002370146300000000999628 VANILCIO JOSE DA SILVA        0000000000000000000005092022BRL000000000000000000000000445900PGIT010000038709    060920220000000004459000000000000000000000000000000000000000000            000        
2370001300126B   100042561175120                                                                                          000          000000000445900000000000000000000000000000000000000000000000000000000000000                              
2370001300127A0000002370185540000000476676 ROSILENE CRISTINA BARBOSA     0000000000000000000005092022BRL000000000000000000000000127661PGIT010000038647    060920220000000001276610000000000000000000000000000000000000000            000        
2370001300128B   100005086448603                                                                                          000          000000000127661000000000000000000000000000000000000000000000000000000000000                              
2370001300129A0000002370555300000005009600 REGINALDO DE SOUZA OLIVEIRA   0000000000000000000005092022BRL000000000000000000000000519352PGIT010000038648    060920220000000005193520000000000000000000000000000000000000000            000        
2370001300130B   100059622989691                                                                                          000          000000000519352000000000000000000000000000000000000000000000000000000000000                              
2370001300131A0000002370105960000000012653 RODRIGO VILELA MENDONCA       0000000000000000000005092022BRL000000000000000000000006525000PGIT010000039142    060920220000000065250000000000000000000000000000000000000000000            000        
2370001300132B   100077773799687                                                                                          000          000000006525000000000000000000000000000000000000000000000000000000000000000                              
2370001300133A0000002370303920000000086568 NILSON RODRIGUES DA SILVA     0000000000000000000005092022BRL000000000000000000000000091152PGIT010000039143    060920220000000000911520000000000000000000000000000000000000000            000        
2370001300134B   100000941541207                                                                                          000          000000000091152000000000000000000000000000000000000000000000000000000000000                              
2370001300135A0000002370170940000000167363 GILBERTO PINHEIRO             0000000000000000000005092022BRL000000000000000000000001812500PGIT010000039144    060920220000000018125000000000000000000000000000000000000000000            000        
2370001300136B   100057601496600                                                                                          000          000000001812500000000000000000000000000000000000000000000000000000000000000                              
2370001300137A0000002370248300000003508161 MARCOS VINICIUS DE SALLES     0000000000000000000005092022BRL000000000000000000000000094957PGIT010000039145    060920220000000000949570000000000000000000000000000000000000000            000        
2370001300138B   100011734575697                                                                                          000          000000000094957000000000000000000000000000000000000000000000000000000000000                              
2370001300139A0000002370303920000005503728 BALTAZAR COSME DA SILVA       0000000000000000000005092022BRL000000000000000000000000203000PGIT010000039146    060920220000000002030000000000000000000000000000000000000000000            000        
2370001300140B   100042143373368                                                                                          000          000000000203000000000000000000000000000000000000000000000000000000000000000                              
2370001300141A0000002370176120000000025194 MARCOS VINICIUS FERREIRA BARRO0000000000000000000005092022BRL000000000000000000000000398750PGIT010000039147    060920220000000003987500000000000000000000000000000000000000000            000        
2370001300142B   100001803319305                                                                                          000          000000000398750000000000000000000000000000000000000000000000000000000000000                              
2370001300143A0000002370568120000001259830 SABINO ROCHA NETO             0000000000000000000005092022BRL000000000000000000000000252810PGIT010000038649    060920220000000002528100000000000000000000000000000000000000000            000        
2370001300144B   100098600907691                                                                                          000          000000000252810000000000000000000000000000000000000000000000000000000000000                              
2370001300145A0000002370210750000001144430 JOAO BATISTA RUELA            0000000000000000000005092022BRL000000000000000000000000405345PGIT010000038926    060920220000000004053450000000000000000000000000000000000000000            000        
2370001300146B   100019081898604                                                                                          000          000000000405345000000000000000000000000000000000000000000000000000000000000                              
2370001300147A0000002370196740000000455326 MARCIO GOMES DOS SANTOS       0000000000000000000005092022BRL000000000000000000000000173888PGIT010000038927    060920220000000001738880000000000000000000000000000000000000000            000        
2370001300148B   100077846788515                                                                                          000          000000000173888000000000000000000000000000000000000000000000000000000000000                              
2370001300149A0000002370386280000001999109 KELLY APARECIDA MARCELINO DE A0000000000000000000005092022BRL000000000000000000000000391216PGIT010000038928    060920220000000003912160000000000000000000000000000000000000000            000        
2370001300150B   100005214219695                                                                                          000          000000000391216000000000000000000000000000000000000000000000000000000000000                              
2370001300151A0000002370145670000000347361 ELIZIARIO PEREIRA DOS SANTOS  0000000000000000000005092022BRL000000000000000000000000172795PGIT010000038929    060920220000000001727950000000000000000000000000000000000000000            000        
2370001300152B   100009955796448                                                                                          000          000000000172795000000000000000000000000000000000000000000000000000000000000                              
2370001300153A0000002370078200000005270448 JOSIAS GUILHERME DA SILVA     0000000000000000000005092022BRL000000000000000000000000168038PGIT010000038930    060920220000000001680380000000000000000000000000000000000000000            000        
2370001300154B   100005085937350                                                                                          000          000000000168038000000000000000000000000000000000000000000000000000000000000                              
2370001300155A0000002370693020000000171433 FELIPE CAUAN FRAZAO NUNES     0000000000000000000005092022BRL000000000000000000000000178890PGIT010000038931    060920220000000001788900000000000000000000000000000000000000000            000        
2370001300156B   100010311263500                                                                                          000          000000000178890000000000000000000000000000000000000000000000000000000000000                              
2370001300157A0000002370193480000000023183 CELIO CANDEIA DA SILVA        0000000000000000000005092022BRL000000000000000000000000398299PGIT010000038932    060920220000000003982990000000000000000000000000000000000000000            000        
2370001300158B   100026904594691                                                                                          000          000000000398299000000000000000000000000000000000000000000000000000000000000                              
2370001300159A0000002370549330000000032816 TIAGO SOUSA DA SILVA          0000000000000000000005092022BRL000000000000000000000000167419PGIT010000038935    060920220000000001674190000000000000000000000000000000000000000            000        
2370001300160B   100003784476376                                                                                          000          000000000167419000000000000000000000000000000000000000000000000000000000000                              
2370001300161A0000002370246270000000222275 EDUARDO SOARES DE PINHO       0000000000000000000005092022BRL000000000000000000000000654213PGIT010000038439    060920220000000006542130000000000000000000000000000000000000000            000        
2370001300162B   100005046478650                                                                                          000          000000000654213000000000000000000000000000000000000000000000000000000000000                              
2370001300163A0000002370186190000000183288 WASHINGTON JOVIANO SALES      0000000000000000000005092022BRL000000000000000000000000359916PGIT010000038440    060920220000000003599160000000000000000000000000000000000000000            000        
2370001300164B   100005062569605                                                                                          000          000000000359916000000000000000000000000000000000000000000000000000000000000                              
2370001300165A0000002370217760000000131709 COSMO RAMOS DO NASCIMENTO     0000000000000000000005092022BRL000000000000000000000000671767PGIT010000038441    060920220000000006717670000000000000000000000000000000000000000            000        
2370001300166B   100085583553472                                                                                          000          000000000671767000000000000000000000000000000000000000000000000000000000000                              
2370001300167A0000002370120330000000556297 GUSTAVO SENA HORTA PEREIRA    0000000000000000000005092022BRL000000000000000000000000126130PGIT010000038389    060920220000000001261300000000000000000000000000000000000000000            000        
2370001300168B   100011980858608                                                                                          000          000000000126130000000000000000000000000000000000000000000000000000000000000                              
2370001300169A0000002370102860000000355046 GEISY CAROLINA COSTA          0000000000000000000005092022BRL000000000000000000000000237821PGIT010000038390    060920220000000002378210000000000000000000000000000000000000000            000        
2370001300170B   100011402182635                                                                                          000          000000000237821000000000000000000000000000000000000000000000000000000000000                              
2370001300171A0000002370189100000006321763 ALESSANDRA APARECIDA DOS SANTO0000000000000000000005092022BRL000000000000000000000000117448PGIT010000038334    060920220000000001174480000000000000000000000000000000000000000            000        
2370001300172B   100006853817656                                                                                          000          000000000117448000000000000000000000000000000000000000000000000000000000000                              
2370001300173A0000002370732020000003319016 JAILSON CORDEIRO DE SOUZA     0000000000000000000005092022BRL000000000000000000000000168668PGIT010000038936    060920220000000001686680000000000000000000000000000000000000000            000        
2370001300174B   100064381609549                                                                                          000          000000000168668000000000000000000000000000000000000000000000000000000000000                              
2370001300175A0000002370373700000006631339 VICTOR WENDER QUEIROZ DE OLIVE0000000000000000000005092022BRL000000000000000000000000232287PGIT010000038937    060920220000000002322870000000000000000000000000000000000000000            000        
2370001300176B   100015250629644                                                                                          000          000000000232287000000000000000000000000000000000000000000000000000000000000                              
2370001300177A0000002370372810000002894343 PABLO NUNES CARDOSO COELHO    0000000000000000000005092022BRL000000000000000000000000159299PGIT010000038938    060920220000000001592990000000000000000000000000000000000000000            000        
2370001300178B   100013165157618                                                                                          000          000000000159299000000000000000000000000000000000000000000000000000000000000                              
2370001300179A0000002370114360000006720501 ANDRE MARCIO VIEIRA CAIRES    0000000000000000000005092022BRL000000000000000000000000260368PGIT010000038939    060920220000000002603680000000000000000000000000000000000000000            000        
2370001300180B   100004749178357                                                                                          000          000000000260368000000000000000000000000000000000000000000000000000000000000                              
2370001300181A0000002370051260000072972732 AMILCAR FERNANDES DE OLIVEIRA 0000000000000000000005092022BRL000000000000000000000000404400PGIT010000038940    060920220000000004044000000000000000000000000000000000000000000            000        
2370001300182B   100073399035691                                                                                          000          000000000404400000000000000000000000000000000000000000000000000000000000000                              
2370001300183A0000002370597900000000057223 JOSE ERINALDO SANTOS          0000000000000000000005092022BRL000000000000000000000000154022PGIT010000038941    060920220000000001540220000000000000000000000000000000000000000            000        
2370001300184B   100042071887549                                                                                          000          000000000154022000000000000000000000000000000000000000000000000000000000000                              
2370001300185A0000002370200870000000235822 VICENTE REIS DE BARROS        0000000000000000000005092022BRL000000000000000000000000212151PGIT010000039271    060920220000000002121510000000000000000000000000000000000000000            000        
2370001300186B   100087338467234                                                                                          000          000000000212151000000000000000000000000000000000000000000000000000000000000                              
2370001300187A0000002370216870000000217042 GIOVANA COELHO DA SILVA       0000000000000000000005092022BRL000000000000000000000000551997PGIT010000038714    060920220000000005519970000000000000000000000000000000000000000            000        
2370001300188B   100014031564686                                                                                          000          000000000551997000000000000000000000000000000000000000000000000000000000000                              
2370001300189A0000002370209150000000337986 PAULO BATISTA DE MORAIS       0000000000000000000005092022BRL000000000000000000000000380942PGIT010000038715    060920220000000003809420000000000000000000000000000000000000000            000        
2370001300190B   100006192903662                                                                                          000          000000000380942000000000000000000000000000000000000000000000000000000000000                              
2370001300191A0000002370155800000000153087 RODRIGO DE PAULO RODRIGUES SOU0000000000000000000005092022BRL000000000000000000000000602390PGIT010000038716    060920220000000006023900000000000000000000000000000000000000000            000        
2370001300192B   100005477276665                                                                                          000          000000000602390000000000000000000000000000000000000000000000000000000000000                              
2370001300193A0000002370342150000000922196 AGATHA EVELYN ROCHA MOREIRA SA0000000000000000000005092022BRL000000000000000000000000263884PGIT010000038717    060920220000000002638840000000000000000000000000000000000000000            000        
2370001300194B   100015797720647                                                                                          000          000000000263884000000000000000000000000000000000000000000000000000000000000                              
2370001300195A0000002370614090000000016349 ANDRE DA SILVA DIAS           0000000000000000000005092022BRL000000000000000000000000537913PGIT010000038718    060920220000000005379130000000000000000000000000000000000000000            000        
2370001300196B   100090545761620                                                                                          000          000000000537913000000000000000000000000000000000000000000000000000000000000                              
2370001300197A0000002370093690000000018260 RUBENS MARQUES ALVES PEREIRA  0000000000000000000005092022BRL000000000000000000000000428317PGIT010000038719    060920220000000004283170000000000000000000000000000000000000000            000        
2370001300198B   100006272254628                                                                                          000          000000000428317000000000000000000000000000000000000000000000000000000000000                              
2370001300199A0000002370693020000000129879 LUCAS DE OLIVEIRA SANTOS      0000000000000000000005092022BRL000000000000000000000000278465PGIT010000038720    060920220000000002784650000000000000000000000000000000000000000            000        
2370001300200B   100013625806789                                                                                          000          000000000278465000000000000000000000000000000000000000000000000000000000000                              
2370001300201A0000002370693020000000071226 PEDRO MARTINS NETO            0000000000000000000005092022BRL000000000000000000000000726900PGIT010000038721    060920220000000007269000000000000000000000000000000000000000000            000        
2370001300202B   100002914598386                                                                                          000          000000000726900000000000000000000000000000000000000000000000000000000000000                              
2370001300203A0000002370093690000000200190 JONATAH ALVES DE AGUIAR       0000000000000000000005092022BRL000000000000000000000000435451PGIT010000038722    060920220000000004354510000000000000000000000000000000000000000            000        
2370001300204B   100014633799606                                                                                          000          000000000435451000000000000000000000000000000000000000000000000000000000000                              
2370001300205A0000002370693020000000132713 JOHN RELSON DA CONCEICAO LIMA 0000000000000000000005092022BRL000000000000000000000000250792PGIT010000038723    060920220000000002507920000000000000000000000000000000000000000            000        
2370001300206B   100004823523296                                                                                          000          000000000250792000000000000000000000000000000000000000000000000000000000000                              
2370001300207A0000002370272940000000154156 JURACI MOREIRA DA SILVA       0000000000000000000005092022BRL000000000000000000000000340477PGIT010000038129    060920220000000003404770000000000000000000000000000000000000000            000        
2370001300208B   100021957738634                                                                                          000          000000000340477000000000000000000000000000000000000000000000000000000000000                              
2370001300209A0000002370091560000003500683 LUCAS VAZ DE ALMEIDA          0000000000000000000005092022BRL000000000000000000000000494516PGIT010000038724    060920220000000004945160000000000000000000000000000000000000000            000        
2370001300210B   100010516144650                                                                                          000          000000000494516000000000000000000000000000000000000000000000000000000000000                              
2370001300211A0000002370229000000000009229 NILSON ALVES HENRIQUE         0000000000000000000005092022BRL000000000000000000000000587682PGIT010000038725    060920220000000005876820000000000000000000000000000000000000000            000        
2370001300212B   100053958993915                                                                                          000          000000000587682000000000000000000000000000000000000000000000000000000000000                              
2370001300213A0000002370168530000007417250 LUCIANO DA SILVA DE OLIVEIRA  0000000000000000000005092022BRL000000000000000000000000326523PGIT010000038477    060920220000000003265230000000000000000000000000000000000000000            000        
2370001300214B   100007158909646                                                                                          000          000000000326523000000000000000000000000000000000000000000000000000000000000                              
2370001300215A0000002370186190000000233625 MILTON APARECIDO FERREIRA     0000000000000000000005092022BRL000000000000000000000000361758PGIT010000038726    060920220000000003617580000000000000000000000000000000000000000            000        
2370001300216B   100009669498627                                                                                          000          000000000361758000000000000000000000000000000000000000000000000000000000000                              
2370001300217A0000002370693020000000145513 ELIAS RODRIGUES DE SOUSA      0000000000000000000005092022BRL000000000000000000000000530759PGIT010000038727    060920220000000005307590000000000000000000000000000000000000000            000        
2370001300218B   100004736886382                                                                                          000          000000000530759000000000000000000000000000000000000000000000000000000000000                              
2370001300219A0000002370563320000000084999 ROGER TELLES SILVA            0000000000000000000005092022BRL000000000000000000000000696964PGIT010000038728    060920220000000006969640000000000000000000000000000000000000000            000        
2370001300220B   100008246332619                                                                                          000          000000000696964000000000000000000000000000000000000000000000000000000000000                              
2370001300221A0000002370671560000000229539 ISABELLY CRISTINE PEREIRA SANT0000000000000000000005092022BRL000000000000000000000000050394PGIT010000038382    060920220000000000503940000000000000000000000000000000000000000            000        
2370001300222B   100002263930620                                                                                          000          000000000050394000000000000000000000000000000000000000000000000000000000000                              
2370001300223A0000002370200870000005957702 LEANDRO OLIVEIRA DE FRANCA    0000000000000000000005092022BRL000000000000000000000000404055PGIT010000039341    060920220000000004040550000000000000000000000000000000000000000            000        
2370001300224B   100099404516368                                                                                          000          000000000404055000000000000000000000000000000000000000000000000000000000000                              
2370001300225A0000002370303920000000022373 RAIMUNDO DE SOUSA             0000000000000000000005092022BRL000000000000000000000000213671PGIT010000039339    060920220000000002136710000000000000000000000000000000000000000            000        
2370001300226B   100069772738287                                                                                          000          000000000213671000000000000000000000000000000000000000000000000000000000000                              
2370001300227A0000002370141170000000344532 MISAEL MACHADO MONTEIRO       0000000000000000000005092022BRL000000000000000000000000155274PGIT010000039340    060920220000000001552740000000000000000000000000000000000000000            000        
2370001300228B   100070049746260                                                                                          000          000000000155274000000000000000000000000000000000000000000000000000000000000                              
2370001300229A0000002370196740000000490083 HELIO EUGENIO DA SILVA        0000000000000000000005092022BRL000000000000000000000000183207PGIT010000038436    060920220000000001832070000000000000000000000000000000000000000            000        
2370001300230B   100003113102650                                                                                          000          000000000183207000000000000000000000000000000000000000000000000000000000000                              
2370001300231A0000002370168530000000599689 KAREN CRISTINA RODRIGUES OLIVE0000000000000000000005092022BRL000000000000000000000000450282PGIT010000038437    060920220000000004502820000000000000000000000000000000000000000            000        
2370001300232B   100004154638661                                                                                          000          000000000450282000000000000000000000000000000000000000000000000000000000000                              
2370001300233A0000002370221280000000686115 RENATO SOARES MARTIMIANO      0000000000000000000005092022BRL000000000000000000000000365632PGIT010000038438    060920220000000003656320000000000000000000000000000000000000000            000        
2370001300234B   100085764876672                                                                                          000          000000000365632000000000000000000000000000000000000000000000000000000000000                              
2370001300235A0000002370138890000000345474 ADRIANO BATISTA FRANCO        0000000000000000000005092022BRL000000000000000000000000346254PGIT010000039290    060920220000000003462540000000000000000000000000000000000000000            000        
2370001300236B   100084022663200                                                                                          000          000000000346254000000000000000000000000000000000000000000000000000000000000                              
2370001300237A0000002370780260000004092694 WENDOL LIMA BARBOSA DOS SANTOS0000000000000000000005092022BRL000000000000000000000000271705PGIT010000038923    060920220000000002717050000000000000000000000000000000000000000            000        
2370001300238B   100001110917309                                                                                          000          000000000271705000000000000000000000000000000000000000000000000000000000000                              
2370001300239A0000002370604100000000141615 PEDRO LEITE CARDOSO           0000000000000000000005092022BRL000000000000000000000000279458PGIT010000038924    060920220000000002794580000000000000000000000000000000000000000            000        
2370001300240B   100003259085408                                                                                          000          000000000279458000000000000000000000000000000000000000000000000000000000000                              
2370001300241A0000002370068230000000245747 FRANCISCO GLAUBER LIMA MAIA   0000000000000000000005092022BRL000000000000000000000000222293PGIT010000038925    060920220000000002222930000000000000000000000000000000000000000            000        
2370001300242B   100089634900330                                                                                          000          000000000222293000000000000000000000000000000000000000000000000000000000000                              
2370001300243A0000002370200870000000982261 FRANCISCO CARDOSO DA SILVA    0000000000000000000005092022BRL000000000000000000000000272851PGIT010000039274    060920220000000002728510000000000000000000000000000000000000000            000        
2370001300244B   100000362997314                                                                                          000          000000000272851000000000000000000000000000000000000000000000000000000000000                              
2370001300245A0000002370528090000006010954 IVALDO MARANHAO NUNES         0000000000000000000005092022BRL000000000000000000000000152919PGIT010000039275    060920220000000001529190000000000000000000000000000000000000000            000        
2370001300246B   100060842835350                                                                                          000          000000000152919000000000000000000000000000000000000000000000000000000000000                              
2370001300247A0000002370200870000000232262 VERISMEIRE RODRIGUES DOS SANTO0000000000000000000005092022BRL000000000000000000000000150881PGIT010000039276    060920220000000001508810000000000000000000000000000000000000000            000        
2370001300248B   100082905118253                                                                                          000          000000000150881000000000000000000000000000000000000000000000000000000000000                              
2370001300249A0000002370303920000005601851 FRANCISCO DAS CHAGAS NASCIMENT0000000000000000000005092022BRL000000000000000000000000193198PGIT010000039277    060920220000000001931980000000000000000000000000000000000000000            000        
2370001300250B   100036470716334                                                                                          000          000000000193198000000000000000000000000000000000000000000000000000000000000                              
2370001300251A0000002370645050000000152862 WILSON PEREIRA BARBOSA        0000000000000000000005092022BRL000000000000000000000000312421PGIT010000039278    060920220000000003124210000000000000000000000000000000000000000            000        
2370001300252B   100061746754249                                                                                          000          000000000312421000000000000000000000000000000000000000000000000000000000000                              
2370001300253A0000002370118190000006075045 BENEDITO AIRES RABELO NETO    0000000000000000000005092022BRL000000000000000000000000374798PGIT010000039279    060920220000000003747980000000000000000000000000000000000000000            000        
2370001300254B   100000343829339                                                                                          000          000000000374798000000000000000000000000000000000000000000000000000000000000                              
2370001300255A0000002370690510000000054526 SAMUEL DOS SANTOS COUTINHO    0000000000000000000005092022BRL000000000000000000000000128461PGIT010000039280    060920220000000001284610000000000000000000000000000000000000000            000        
2370001300256B   100070358409152                                                                                          000          000000000128461000000000000000000000000000000000000000000000000000000000000                              
2370001300257A0000002370141170000000440760 SEBASTIAO LEANDRO MAMEDE      0000000000000000000005092022BRL000000000000000000000000344518PGIT010000039291    060920220000000003445180000000000000000000000000000000000000000            000        
2370001300258B   100014666065253                                                                                          000          000000000344518000000000000000000000000000000000000000000000000000000000000                              
2370001300259A0000002370103320000005106915 SAMUEL ALVES TEIXEIRA         0000000000000000000005092022BRL000000000000000000000000411626PGIT010000038695    060920220000000004116260000000000000000000000000000000000000000            000        
2370001300260B   100008398212632                                                                                          000          000000000411626000000000000000000000000000000000000000000000000000000000000                              
2370001300261A0000002370050610000005414598 LEONARDO DE MACEDO DUTRA      0000000000000000000005092022BRL000000000000000000000000410710PGIT010000038971    060920220000000004107100000000000000000000000000000000000000000            000        
2370001300262B   100005959163683                                                                                          000          000000000410710000000000000000000000000000000000000000000000000000000000000                              
2370001300263A0000002370310110000000260703 JOSE SANTANA DE SOUSA         0000000000000000000005092022BRL000000000000000000000000201708PGIT010000038972    060920220000000002017080000000000000000000000000000000000000000            000        
2370001300264B   100005158844488                                                                                          000          000000000201708000000000000000000000000000000000000000000000000000000000000                              
2370001300265A0000002370247240000000489425 ALAN CONCEICAO ALVES          0000000000000000000005092022BRL000000000000000000000000126948PGIT010000038973    060920220000000001269480000000000000000000000000000000000000000            000        
2370001300266B   100005359303565                                                                                          000          000000000126948000000000000000000000000000000000000000000000000000000000000                              
2370001300267A0000002370103160000000409650 SANDRO DE OLIVEIRA MONTEIRO   0000000000000000000005092022BRL000000000000000000000000113706PGIT010000038974    060920220000000001137060000000000000000000000000000000000000000            000        
2370001300268B   100089687930268                                                                                          000          000000000113706000000000000000000000000000000000000000000000000000000000000                              
2370001300269A0000002370145750000000400157 DIONARIO ANTUNES LOPES        0000000000000000000005092022BRL000000000000000000000000175642PGIT010000038975    060920220000000001756420000000000000000000000000000000000000000            000        
2370001300270B   100051770075100                                                                                          000          000000000175642000000000000000000000000000000000000000000000000000000000000                              
2370001300271A0000002370761550000005078458 CLAUDIO DA SILVA CRUZ         0000000000000000000005092022BRL000000000000000000000000165756PGIT010000038976    060920220000000001657560000000000000000000000000000000000000000            000        
2370001300272B   100071559000287                                                                                          000          000000000165756000000000000000000000000000000000000000000000000000000000000                              
2370001300273A0000002370097170000000273635 JOAO LUIZ DE ALMEIDA          0000000000000000000005092022BRL000000000000000000000000121888PGIT010000038977    060920220000000001218880000000000000000000000000000000000000000            000        
2370001300274B   100055366180325                                                                                          000          000000000121888000000000000000000000000000000000000000000000000000000000000                              
2370001300275A0000002370656410000010014182 PABLO CRISTIEN MAFRA COURA    0000000000000000000005092022BRL000000000000000000000000165357PGIT010000038978    060920220000000001653570000000000000000000000000000000000000000            000        
2370001300276B   100011771565632                                                                                          000          000000000165357000000000000000000000000000000000000000000000000000000000000                              
2370001300277A0000002370693020000000185906 ALLAN DA SILVA FILHO          0000000000000000000005092022BRL000000000000000000000000296640PGIT010000038871    060920220000000002966400000000000000000000000000000000000000000            000        
2370001300278B   100005776484545                                                                                          000          000000000296640000000000000000000000000000000000000000000000000000000000000                              
2370001300279A0000002370189100000006321755 EDSON RODRIGUES DOS SANTOS    0000000000000000000005092022BRL000000000000000000000000117448PGIT010000038335    060920220000000001174480000000000000000000000000000000000000000            000        
2370001300280B   100011571915680                                                                                          000          000000000117448000000000000000000000000000000000000000000000000000000000000                              
2370001300281A0000002370386010000006107400 MATHEUS SANTIAGO SIMOES LIMA  0000000000000000000005092022BRL000000000000000000000000198001PGIT010000038806    060920220000000001980010000000000000000000000000000000000000000            000        
2370001300282B   100005354969239                                                                                          000          000000000198001000000000000000000000000000000000000000000000000000000000000                              
2370001300283A0000002370156600000006802206 ROBERTO LOURENCO              0000000000000000000005092022BRL000000000000000000000000521749PGIT010000038756    060920220000000005217490000000000000000000000000000000000000000            000        
2370001300284B   100093910037615                                                                                          000          000000000521749000000000000000000000000000000000000000000000000000000000000                              
2370001300285A0000002370373700000005412064 SEVERINO JOAO DA SILVA JUNIOR 0000000000000000000005092022BRL000000000000000000000000471681PGIT010000038757    060920220000000004716810000000000000000000000000000000000000000            000        
2370001300286B   100008857307476                                                                                          000          000000000471681000000000000000000000000000000000000000000000000000000000000                              
2370001300287A0000002370322980000010002885 EDUARDO ARISTIDES             0000000000000000000005092022BRL000000000000000000000000334242PGIT010000038415    060920220000000003342420000000000000000000000000000000000000000            000        
2370001300288B   100094057079491                                                                                          000          000000000334242000000000000000000000000000000000000000000000000000000000000                              
2370001300289A0000002370597900000000004693 JOSE ROBSON SOARES DOS SANTOS 0000000000000000000005092022BRL000000000000000000000000606641PGIT010000038416    060920220000000006066410000000000000000000000000000000000000000            000        
2370001300290B   100005207904566                                                                                          000          000000000606641000000000000000000000000000000000000000000000000000000000000                              
2370001300291A0000002370693020000000102172 JOSE CARLOS DA SILVA          0000000000000000000005092022BRL000000000000000000000000252625PGIT010000038807    060920220000000002526250000000000000000000000000000000000000000            000        
2370001300292B   100002519725427                                                                                          000          000000000252625000000000000000000000000000000000000000000000000000000000000                              
2370001300293A0000002370246270000000130796 REGINALDO ALVES DE MOURA      0000000000000000000005092022BRL000000000000000000000000266733PGIT010000038808    060920220000000002667330000000000000000000000000000000000000000            000        
2370001300294B   100007676593689                                                                                          000          000000000266733000000000000000000000000000000000000000000000000000000000000                              
2370001300295A0000002370386280000003561976 CHARLES JEFFERSON MENDES      0000000000000000000005092022BRL000000000000000000000000160354PGIT010000038809    060920220000000001603540000000000000000000000000000000000000000            000        
2370001300296B   100009089602631                                                                                          000          000000000160354000000000000000000000000000000000000000000000000000000000000                              
2370001300297A0000002370185030000000114367 DORIVAL LUIZ JUNIOR           0000000000000000000005092022BRL000000000000000000000000999456PGIT010000038417    060920220000000009994560000000000000000000000000000000000000000            000        
2370001300298B   100030951516833                                                                                          000          000000000999456000000000000000000000000000000000000000000000000000000000000                              
2370001300299A0000002370276000000000524859 NILSON RODRIGUES DE SOUZA     0000000000000000000005092022BRL000000000000000000000000495507PGIT010000038370    060920220000000004955070000000000000000000000000000000000000000            000        
2370001300300B   100004836794617                                                                                          000          000000000495507000000000000000000000000000000000000000000000000000000000000                              
2370001300301A0000002370693020000000137367 JOAO VITOR MARTINS LEITE      0000000000000000000005092022BRL000000000000000000000000244592PGIT010000038371    060920220000000002445920000000000000000000000000000000000000000            000        
2370001300302B   100012642957667                                                                                          000          000000000244592000000000000000000000000000000000000000000000000000000000000                              
2370001300303A0000002370150160000010040728 LUCIANO SILVA SOARES          0000000000000000000005092022BRL000000000000000000000000412165PGIT010000038810    060920220000000004121650000000000000000000000000000000000000000            000        
2370001300304B   100095222944620                                                                                          000          000000000412165000000000000000000000000000000000000000000000000000000000000                              
2370001300305A0000002370196740000003513602 ROSSINO SANTOS ALENCAR        0000000000000000000005092022BRL000000000000000000000000424285PGIT010000038766    060920220000000004242850000000000000000000000000000000000000000            000        
2370001300306B   100061803316349                                                                                          000          000000000424285000000000000000000000000000000000000000000000000000000000000                              
2370001300307A0000002370349240000002696673 HERALDO MOREIRA FERREIRA JUNIO0000000000000000000005092022BRL000000000000000000000000607572PGIT010000038372    060920220000000006075720000000000000000000000000000000000000000            000        
2370001300308B   100003236626682                                                                                          000          000000000607572000000000000000000000000000000000000000000000000000000000000                              
2370001300309A0000002370085080000000056553 PAULO ROBERTO DE ALMEIDA CARVA0000000000000000000005092022BRL000000000000000000000000685822PGIT010000038373    060920220000000006858220000000000000000000000000000000000000000            000        
2370001300310B   100015664996668                                                                                          000          000000000685822000000000000000000000000000000000000000000000000000000000000                              
2370001300311A0000002370276000000000536296 MAFRAN CARDOSO DE MATOS       0000000000000000000005092022BRL000000000000000000000000505267PGIT010000038374    060920220000000005052670000000000000000000000000000000000000000            000        
2370001300312B   100007011257640                                                                                          000          000000000505267000000000000000000000000000000000000000000000000000000000000                              
2370001300313A0000002370173020000000368318 JOSE DA SILVA PERDIGAO        0000000000000000000005092022BRL000000000000000000000000456383PGIT010000038375    060920220000000004563830000000000000000000000000000000000000000            000        
2370001300314B   100078945445668                                                                                          000          000000000456383000000000000000000000000000000000000000000000000000000000000                              
2370001300315A0000002370154820000000526223 WELBERT JOSE SOUZA DE SOUSA   0000000000000000000005092022BRL000000000000000000000000292468PGIT010000038758    060920220000000002924680000000000000000000000000000000000000000            000        
2370001300316B   100065834313272                                                                                          000          000000000292468000000000000000000000000000000000000000000000000000000000000                              
2370001300317A0000002370241630000000164577 CARLOS HENRIQUE PEREIRA       0000000000000000000005092022BRL000000000000000000000000325609PGIT010000038376    060920220000000003256090000000000000000000000000000000000000000            000        
2370001300318B   100085903981615                                                                                          000          000000000325609000000000000000000000000000000000000000000000000000000000000                              
2370001300319A0000002370693020000005737770 FERNANDO MADUREIRA SOARES COST0000000000000000000005092022BRL000000000000000000000000508285PGIT010000038377    060920220000000005082850000000000000000000000000000000000000000            000        
2370001300320B   100012428152602                                                                                          000          000000000508285000000000000000000000000000000000000000000000000000000000000                              
2370001300321A0000002370343550000000133485 AMINADABE ANTONIO DA SILVA    0000000000000000000005092022BRL000000000000000000000000676227PGIT010000038378    060920220000000006762270000000000000000000000000000000000000000            000        
2370001300322B   100003192264683                                                                                          000          000000000676227000000000000000000000000000000000000000000000000000000000000                              
2370001300323A0000002370294590000000217247 KAUAN LEANDRO DE OLIVEIRA VASC0000000000000000000005092022BRL000000000000000000000000050235PGIT010000038379    060920220000000000502350000000000000000000000000000000000000000            000        
2370001300324B   100015134081603                                                                                          000          000000000050235000000000000000000000000000000000000000000000000000000000000                              
2370001300325A0000002370118270000000147362 WILLIAM MACHADO DE OLIVEIRA   0000000000000000000005092022BRL000000000000000000000000048719PGIT010000038380    060920220000000000487190000000000000000000000000000000000000000            000        
2370001300326B   100010525481648                                                                                          000          000000000048719000000000000000000000000000000000000000000000000000000000000                              
2370001300327A0000002370294590000000217689 AITZBER KARINE RODRIGUES LOPES0000000000000000000005092022BRL000000000000000000000000043743PGIT010000038381    060920220000000000437430000000000000000000000000000000000000000            000        
2370001300328B   100014790791629                                                                                          000          000000000043743000000000000000000000000000000000000000000000000000000000000                              
2370001300329A0000002370196740000000488372 LEONARDO DOS SANTOS ALVES     0000000000000000000005092022BRL000000000000000000000000248219PGIT010000038435    060920220000000002482190000000000000000000000000000000000000000            000        
2370001300330B   100011898344647                                                                                          000          000000000248219000000000000000000000000000000000000000000000000000000000000                              
2370001300331A0000002370141170000000356999 KLISMAN LIMA FERRAZ           0000000000000000000005092022BRL000000000000000000000000271942PGIT010000039330    060920220000000002719420000000000000000000000000000000000000000            000        
2370001300332B   100003207140203                                                                                          000          000000000271942000000000000000000000000000000000000000000000000000000000000                              
2370001300333A0000002370200870000005255376 RAIMUNDO NONATO DE S CASTRO   0000000000000000000005092022BRL000000000000000000000000233910PGIT010000039331    060920220000000002339100000000000000000000000000000000000000000            000        
2370001300334B   100004050425319                                                                                          000          000000000233910000000000000000000000000000000000000000000000000000000000000                              
2370001300335A0000002370622940000000079634 GENYS DOS SANTOS PEREIRA      0000000000000000000005092022BRL000000000000000000000000139973PGIT010000039332    060920220000000001399730000000000000000000000000000000000000000            000        
2370001300336B   100010799640379                                                                                          000          000000000139973000000000000000000000000000000000000000000000000000000000000                              
2370001300337A0000002370059080000005106613 DERLI LEONELO LETRARI JUNIOR  0000000000000000000005092022BRL000000000000000000000000315205PGIT010000038767    060920220000000003152050000000000000000000000000000000000000000            000        
2370001300338B   100078111188153                                                                                          000          000000000315205000000000000000000000000000000000000000000000000000000000000                              
2370001300339A0000002370248300000003500373 MARELEI FATIMA RIFFEL         0000000000000000000005092022BRL000000000000000000000000584845PGIT010000038768    060920220000000005848450000000000000000000000000000000000000000            000        
2370001300340B   100077761758972                                                                                          000          000000000584845000000000000000000000000000000000000000000000000000000000000                              
2370001300341A0000002370156600000000421758 OTAVIO HENRIQUE DOMINGOS      0000000000000000000005092022BRL000000000000000000000000330776PGIT010000038799    060920220000000003307760000000000000000000000000000000000000000            000        
2370001300342B   100002196552607                                                                                          000          000000000330776000000000000000000000000000000000000000000000000000000000000                              
2370001300343A0000002370168530000000301965 JOSE ISMAEL DA SILVA          0000000000000000000005092022BRL000000000000000000000000591022PGIT010000038408    060920220000000005910220000000000000000000000000000000000000000            000        
2370001300344B   100076887774615                                                                                          000          000000000591022000000000000000000000000000000000000000000000000000000000000                              
2370001300345A0000002370664190000000077968 HEITOR MARTINS OLIVEIRA       0000000000000000000005092022BRL000000000000000000000000770269PGIT010000038409    060920220000000007702690000000000000000000000000000000000000000            000        
2370001300346B   100012282046676                                                                                          000          000000000770269000000000000000000000000000000000000000000000000000000000000                              
2370001300347A0000002370289910000000218316 JULIANA CRISTINA ALVES        0000000000000000000005092022BRL000000000000000000000000507799PGIT010000038410    060920220000000005077990000000000000000000000000000000000000000            000        
2370001300348B   100007157952602                                                                                          000          000000000507799000000000000000000000000000000000000000000000000000000000000                              
2370001300349A0000002370168530000000806056 EDINEI DA SILVA RODRIGUES     0000000000000000000005092022BRL000000000000000000000000546932PGIT010000038411    060920220000000005469320000000000000000000000000000000000000000            000        
2370001300350B   100009657335647                                                                                          000          000000000546932000000000000000000000000000000000000000000000000000000000000                              
2370001300351A0000002370693020000010002044 ICARO AUGUSTO COELHO COSTA    0000000000000000000005092022BRL000000000000000000000000391547PGIT010000038749    060920220000000003915470000000000000000000000000000000000000000            000        
2370001300352B   100010261673610                                                                                          000          000000000391547000000000000000000000000000000000000000000000000000000000000                              
2370001300353A0000002370290330000000208183 AMILTON ANTONIO DOS SANTOS    0000000000000000000005092022BRL000000000000000000000000233033PGIT010000038750    060920220000000002330330000000000000000000000000000000000000000            000        
2370001300354B   100086293672615                                                                                          000          000000000233033000000000000000000000000000000000000000000000000000000000000                              
2370001300355A0000002370290250000005015979 ELIEZER FERREIRA DOS ANJOS    0000000000000000000005092022BRL000000000000000000000000672255PGIT010000038751    060920220000000006722550000000000000000000000000000000000000000            000        
2370001300356B   100008636499631                                                                                          000          000000000672255000000000000000000000000000000000000000000000000000000000000                              
2370001300357A0000002370373890000003214915 SAULO DE SOUZA                0000000000000000000005092022BRL000000000000000000000000490336PGIT010000038752    060920220000000004903360000000000000000000000000000000000000000            000        
2370001300358B   100007499643670                                                                                          000          000000000490336000000000000000000000000000000000000000000000000000000000000                              
2370001300359A0000002370693020000010006880 LUIZ VICENTE ALVES NETO       0000000000000000000005092022BRL000000000000000000000000254228PGIT010000038753    060920220000000002542280000000000000000000000000000000000000000            000        
2370001300360B   100004357589509                                                                                          000          000000000254228000000000000000000000000000000000000000000000000000000000000                              
2370001300361A0000002370780260000004130154 SILVANIO COSTA SILVA          0000000000000000000005092022BRL000000000000000000000000391974PGIT010000038769    060920220000000003919740000000000000000000000000000000000000000            000        
2370001300362B   100002948888530                                                                                          000          000000000391974000000000000000000000000000000000000000000000000000000000000                              
2370001300363A0000002370103830000006106234 MARCELO JOSE DA SILVA         0000000000000000000005092022BRL000000000000000000000000361208PGIT010000038770    060920220000000003612080000000000000000000000000000000000000000            000        
2370001300364B   100004646286440                                                                                          000          000000000361208000000000000000000000000000000000000000000000000000000000000                              
2370001300365A0000002370015380000001164759 LUIZ DALCIO RODRIGUES         0000000000000000000005092022BRL000000000000000000000000322416PGIT010000038771    060920220000000003224160000000000000000000000000000000000000000            000        
2370001300366B   100038658925234                                                                                          000          000000000322416000000000000000000000000000000000000000000000000000000000000                              
2370001300367A0000002370302440000000215422 CARLOS ROBERTO DE ALMEIDA     0000000000000000000005092022BRL000000000000000000000000538841PGIT010000038412    060920220000000005388410000000000000000000000000000000000000000            000        
2370001300368B   100047037180653                                                                                          000          000000000538841000000000000000000000000000000000000000000000000000000000000                              
2370001300369A0000002370168530000000415898 TIAGO FERREIRA DE MOURA       0000000000000000000005092022BRL000000000000000000000000250155PGIT010000038413    060920220000000002501550000000000000000000000000000000000000000            000        
2370001300370B   100008649753680                                                                                          000          000000000250155000000000000000000000000000000000000000000000000000000000000                              
2370001300371A0000002370150320000006395910 GILMAR APARECIDO GOMES        0000000000000000000005092022BRL000000000000000000000000118649PGIT010000038414    060920220000000001186490000000000000000000000000000000000000000            000        
2370001300372B   100008529470621                                                                                          000          000000000118649000000000000000000000000000000000000000000000000000000000000                              
2370001300373A0000002370196740000003507637 IRISLEIQUE DENIO ANIBAL SILVA 0000000000000000000005092022BRL000000000000000000000000458389PGIT010000038772    060920220000000004583890000000000000000000000000000000000000000            000        
2370001300374B   100001793069360                                                                                          000          000000000458389000000000000000000000000000000000000000000000000000000000000                              
2370001300375A0000002370248300000000394521 GIDINALDO ARAUJO DOS SANTOS   0000000000000000000005092022BRL000000000000000000000000282019PGIT010000038754    060920220000000002820190000000000000000000000000000000000000000            000        
2370001300376B   100082472408587                                                                                          000          000000000282019000000000000000000000000000000000000000000000000000000000000                              
2370001300377A0000002370141170000000451681 RICARDO REIS DE SOUSA         0000000000000000000005092022BRL000000000000000000000000174332PGIT010000039333    060920220000000001743320000000000000000000000000000000000000000            000        
2370001300378B   100004752477360                                                                                          000          000000000174332000000000000000000000000000000000000000000000000000000000000                              
2370001300379A0000002370101110000008221693 ELIEZEX PORTO PAIVA           0000000000000000000005092022BRL000000000000000000000000399834PGIT010000039334    060920220000000003998340000000000000000000000000000000000000000            000        
2370001300380B   100066136954249                                                                                          000          000000000399834000000000000000000000000000000000000000000000000000000000000                              
2370001300381A0000002370212100000000279552 ANDERSON SOUSA CARVALHO       0000000000000000000005092022BRL000000000000000000000000273515PGIT010000039335    060920220000000002735150000000000000000000000000000000000000000            000        
2370001300382B   100095289313320                                                                                          000          000000000273515000000000000000000000000000000000000000000000000000000000000                              
2370001300383A0000002370217840000005242703 PAULO REIS DA SILVA           0000000000000000000005092022BRL000000000000000000000000157487PGIT010000039336    060920220000000001574870000000000000000000000000000000000000000            000        
2370001300384B   100092249574200                                                                                          000          000000000157487000000000000000000000000000000000000000000000000000000000000                              
2370001300385A0000002370303920000000054100 GERSON SARGES DOS REIS        0000000000000000000005092022BRL000000000000000000000000246117PGIT010000039337    060920220000000002461170000000000000000000000000000000000000000            000        
2370001300386B   100059927666268                                                                                          000          000000000246117000000000000000000000000000000000000000000000000000000000000                              
2370001300387A0000002370141170000005714567 EURICO DA IGREJA MACIEIRA     0000000000000000000005092022BRL000000000000000000000000225117PGIT010000039338    060920220000000002251170000000000000000000000000000000000000000            000        
2370001300388B   100058119787234                                                                                          000          000000000225117000000000000000000000000000000000000000000000000000000000000                              
2370001300389A0000002370253640000005614090 ROSANGELA APARECIDA ALVES BATI0000000000000000000005092022BRL000000000000000000000000101202PGIT010000038979    060920220000000001012020000000000000000000000000000000000000000            000        
2370001300390B   100000140743626                                                                                          000          000000000101202000000000000000000000000000000000000000000000000000000000000                              
2370001300391A0000002370248300000000420689 FRANCISCO RODRIGUES DOS SANTOS0000000000000000000005092022BRL000000000000000000000000282819PGIT010000038980    060920220000000002828190000000000000000000000000000000000000000            000        
2370001300392B   100001282024329                                                                                          000          000000000282819000000000000000000000000000000000000000000000000000000000000                              
2370001300393A0000002370195420000000221066 JOAO LUCIANO OLIVEIRA LIMA    0000000000000000000005092022BRL000000000000000000000000172314PGIT010000038981    060920220000000001723140000000000000000000000000000000000000000            000        
2370001300394B   100004294567600                                                                                          000          000000000172314000000000000000000000000000000000000000000000000000000000000                              
2370001300395A0000002370051340000000155403 LUIZ FELIPE APARECIDO SILVA   0000000000000000000005092022BRL000000000000000000000000613042PGIT010000039081    060920220000000006130420000000000000000000000000000000000000000            000        
2370001300396B   100012482716616                                                                                          000          000000000613042000000000000000000000000000000000000000000000000000000000000                              
2370001300397A0000002370373890000001044168 LEANDRO CARNEIRO LIMA         0000000000000000000005092022BRL000000000000000000000000205307PGIT010000039082    060920220000000002053070000000000000000000000000000000000000000            000        
2370001300398B   100008337663332                                                                                          000          000000000205307000000000000000000000000000000000000000000000000000000000000                              
2370001300399A0000002370246270000010004861 ENIR BERNADETE FLORA          0000000000000000000005092022BRL000000000000000000000000144303PGIT010000038910    060920220000000001443030000000000000000000000000000000000000000            000        
2370001300400B   100020392001691                                                                                          000          000000000144303000000000000000000000000000000000000000000000000000000000000                              
2370001300401A0000002370196740000000433624 JOAO MAURO FEITOSA DE CARVALHO0000000000000000000005092022BRL000000000000000000000000383320PGIT010000039083    060920220000000003833200000000000000000000000000000000000000000            000        
2370001300402B   100061145225322                                                                                          000          000000000383320000000000000000000000000000000000000000000000000000000000000                              
2370001300403A0000002370063510000010048230 JOSE BETIO GONCALVES DE OLIVEI0000000000000000000005092022BRL000000000000000000000000493815PGIT010000039084    060920220000000004938150000000000000000000000000000000000000000            000        
2370001300404B   100056552491115                                                                                          000          000000000493815000000000000000000000000000000000000000000000000000000000000                              
2370001300405A0000002370373890000003013928 CLEISON RAMIREZ COSTA         0000000000000000000005092022BRL000000000000000000000000398332PGIT010000039085    060920220000000003983320000000000000000000000000000000000000000            000        
2370001300406B   100098075551249                                                                                          000          000000000398332000000000000000000000000000000000000000000000000000000000000                              
2370001300407A0000002370579830000000036609 LESSANDRO CRUZ COSTA          0000000000000000000005092022BRL000000000000000000000000197081PGIT010000039086    060920220000000001970810000000000000000000000000000000000000000            000        
2370001300408B   100007627449367                                                                                          000          000000000197081000000000000000000000000000000000000000000000000000000000000                              
2370001300409A0000002370196740000000438960 JOSE MARCIANO RODRIGUES DA COS0000000000000000000005092022BRL000000000000000000000000395957PGIT010000039087    060920220000000003959570000000000000000000000000000000000000000            000        
2370001300410B   100001848730535                                                                                          000          000000000395957000000000000000000000000000000000000000000000000000000000000                              
2370001300411A0000002370563320000000300829 JOSE MARIA FERREIRA           0000000000000000000005092022BRL000000000000000000000000426616PGIT010000039088    060920220000000004266160000000000000000000000000000000000000000            000        
2370001300412B   100000823239683                                                                                          000          000000000426616000000000000000000000000000000000000000000000000000000000000                              
