23700000         21718578600016155571               034843000000317512P CONSTRUTORA BARBOSA MELLO S/A                                         20509202221503700000108001600PROCESSADO                                                           
23700011C3001040 21718578600016155571               034843000000317512P CONSTRUTORA BARBOSA MELLO S/A                                         AVENIDA PORTUGAL                                  BELO HORIZONTE           000MG        00        
2370001300001A0000002370168530000000906476 REYNALDO DE OLIVEIRA          0000000000000000000005092022BRL000000000000000000000004264961PGIT010000009202    050920220000000042649610000000000000000000000000000000000000000            000        
2370001300002B   100025330829615                                                                                          000          000000004264961000000000000000000000000000000000000000000000000000000000000                              
2370001300003A0000002370141170000000045136 OLINDINO LIMA DA SILVA        0000000000000000000005092022BRL000000000000000000000000204615PGIT010000009292    050920220000000002046150000000000000000000000000000000000000000            000        
2370001300004B   100037244663234                                                                                          000          000000000204615000000000000000000000000000000000000000000000000000000000000                              
2370001300005A0000002370151480000005017220 MARCONE OLIVEIRA DE SOUSA     0000000000000000000005092022BRL000000000000000000000000194384PGIT010000009293    050920220000000001943840000000000000000000000000000000000000000            000        
2370001300006B   100039213617291                                                                                          000          000000000194384000000000000000000000000000000000000000000000000000000000000                              
2370001300007A0000002370141170000000434752 FRANCISCO DAS CHAGAS DE LIMA P0000000000000000000005092022BRL000000000000000000000000157544PGIT010000009294    050920220000000001575440000000000000000000000000000000000000000            000        
2370001300008B   100002387765141                                                                                          000          000000000157544000000000000000000000000000000000000000000000000000000000000                              
2370001300009A0000002370690780000006251021 LEOJAIME AGUIAR DE SOUSA      0000000000000000000005092022BRL000000000000000000000000218804PGIT010000009295    050920220000000002188040000000000000000000000000000000000000000            000        
2370001300010B   100004274912159                                                                                          000          000000000218804000000000000000000000000000000000000000000000000000000000000                              
2370001300011A0000002370110370000000063819 ARNALDO RODRIGUES SOARES      0000000000000000000005092022BRL000000000000000000000000195601PGIT010000009296    050920220000000001956010000000000000000000000000000000000000000            000        
2370001300012B   100003490666399                                                                                          000          000000000195601000000000000000000000000000000000000000000000000000000000000                              
2370001300013A0000002370141170000000434434 GUILHERME DOS SANTOS DE MELO  0000000000000000000005092022BRL000000000000000000000000204483PGIT010000009297    050920220000000002044830000000000000000000000000000000000000000            000        
2370001300014B   100005370544212                                                                                          000          000000000204483000000000000000000000000000000000000000000000000000000000000                              
2370001300015A0000002370573200000000057061 GUSTAVO FEITOSA MACIEL        0000000000000000000005092022BRL000000000000000000000000119066PGIT010000009298    050920220000000001190660000000000000000000000000000000000000000            000        
2370001300016B   100003157171224                                                                                          000          000000000119066000000000000000000000000000000000000000000000000000000000000                              
2370001300017A0000002370200870000000393509 ARIDIELSON LIMA DA SILVA      0000000000000000000005092022BRL000000000000000000000000194754PGIT010000009474    050920220000000001947540000000000000000000000000000000000000000            000        
2370001300018B   100002897421290                                                                                          000          000000000194754000000000000000000000000000000000000000000000000000000000000                              
2370001300019A0000002370257200000000739022 ISAIAS DA SILVA MENDES        0000000000000000000005092022BRL000000000000000000000000799072PGIT010000009274    050920220000000007990720000000000000000000000000000000000000000            000        
2370001300020B   100009788460798                                                                                          000          000000000799072000000000000000000000000000000000000000000000000000000000000                              
2370001300021A0000002370200870000000912565 JEFFERSON PAULO GOMES LIMA    0000000000000000000005092022BRL000000000000000000000000404623PGIT010000009236    050920220000000004046230000000000000000000000000000000000000000            000        
2370001300022B   100001029474222                                                                                          000          000000000404623000000000000000000000000000000000000000000000000000000000000                              
2370001300023A0000002370200870000000508667 REGILENE FERNANDES ROCHA      0000000000000000000005092022BRL000000000000000000000000569983PGIT010000009237    050920220000000005699830000000000000000000000000000000000000000            000        
2370001300024B   100060494837365                                                                                          000          000000000569983000000000000000000000000000000000000000000000000000000000000                              
2370001300025A0000002370200870000000416215 RAYONES ANDRADE               0000000000000000000005092022BRL000000000000000000000000194133PGIT010000009238    050920220000000001941330000000000000000000000000000000000000000            000        
2370001300026B   100006386230302                                                                                          000          000000000194133000000000000000000000000000000000000000000000000000000000000                              
2370001300027A0000002370200870000000918547 OSMANO ARAUJO SILVA           0000000000000000000005092022BRL000000000000000000000000178187PGIT010000009239    050920220000000001781870000000000000000000000000000000000000000            000        
2370001300028B   100059315350200                                                                                          000          000000000178187000000000000000000000000000000000000000000000000000000000000                              
2370001300029A0000002370373890000006398871 JARDEL TEIXEIRA PEREIRA       0000000000000000000005092022BRL000000000000000000000000156530PGIT010000009466    050920220000000001565300000000000000000000000000000000000000000            000        
2370001300030B   100005068178306                                                                                          000          000000000156530000000000000000000000000000000000000000000000000000000000000                              
2370001300031A0000002370200870000001007823 MANOEL DO NASCIMENTO ARAUJO LO0000000000000000000005092022BRL000000000000000000000000266974PGIT010000009467    050920220000000002669740000000000000000000000000000000000000000            000        
2370001300032B   100003041218356                                                                                          000          000000000266974000000000000000000000000000000000000000000000000000000000000                              
2370001300033A0000002370030850000005032857 JOSE DOMINGOS SOS SANTOS DA SI0000000000000000000005092022BRL000000000000000000000000199070PGIT010000009468    050920220000000001990700000000000000000000000000000000000000000            000        
2370001300034B   100002450159304                                                                                          000          000000000199070000000000000000000000000000000000000000000000000000000000000                              
2370001300035A0000002370200870000000754285 MATHEUS SILVA MARTINS         0000000000000000000005092022BRL000000000000000000000000097331PGIT010000009276    050920220000000000973310000000000000000000000000000000000000000            000        
2370001300036B   100002965549285                                                                                          000          000000000097331000000000000000000000000000000000000000000000000000000000000                              
2370001300037A0000002370141170000000433772 FRANCISCO SILVA               0000000000000000000005092022BRL000000000000000000000000205373PGIT010000009277    050920220000000002053730000000000000000000000000000000000000000            000        
2370001300038B   100042371376272                                                                                          000          000000000205373000000000000000000000000000000000000000000000000000000000000                              
2370001300039A0000002370200870000005704863 JOSE MENDES LIMA FILHO        0000000000000000000005092022BRL000000000000000000000000216710PGIT010000009469    050920220000000002167100000000000000000000000000000000000000000            000        
2370001300040B   100003498738364                                                                                          000          000000000216710000000000000000000000000000000000000000000000000000000000000                              
2370001300041A0000002370200870000000665843 ADRIEL PEREIRA BARROS         0000000000000000000005092022BRL000000000000000000000000172005PGIT010000009475    050920220000000001720050000000000000000000000000000000000000000            000        
2370001300042B   100003528601205                                                                                          000          000000000172005000000000000000000000000000000000000000000000000000000000000                              
2370001300043A0000002370200870000000054038 ANTONIO ALVES VIEIRA          0000000000000000000005092022BRL000000000000000000000000180996PGIT010000009476    050920220000000001809960000000000000000000000000000000000000000            000        
2370001300044B   100049953532320                                                                                          000          000000000180996000000000000000000000000000000000000000000000000000000000000                              
2370001300045A0000002370200870000000895377 ELSON COELHO FERREIRA         0000000000000000000005092022BRL000000000000000000000000134274PGIT010000009477    050920220000000001342740000000000000000000000000000000000000000            000        
2370001300046B   100007518476312                                                                                          000          000000000134274000000000000000000000000000000000000000000000000000000000000                              
2370001300047A0000002370752640000005525705 ANTONIO DA SILVA LEAL         0000000000000000000005092022BRL000000000000000000000000217583PGIT010000009470    050920220000000002175830000000000000000000000000000000000000000            000        
2370001300048B   100089157370249                                                                                          000          000000000217583000000000000000000000000000000000000000000000000000000000000                              
2370001300049A0000002370645050000000180076 FRANCISCO TONES FERREIRA DA SI0000000000000000000005092022BRL000000000000000000000000321742PGIT010000009471    050920220000000003217420000000000000000000000000000000000000000            000        
2370001300050B   100058851720215                                                                                          000          000000000321742000000000000000000000000000000000000000000000000000000000000                              
2370001300051A0000002370200870000000996025 SILVESTRE DA CONCEICAO SILVA  0000000000000000000005092022BRL000000000000000000000000243914PGIT010000009472    050920220000000002439140000000000000000000000000000000000000000            000        
2370001300052B   100003103132360                                                                                          000          000000000243914000000000000000000000000000000000000000000000000000000000000                              
2370001300053A0000002370200870000000663689 IVANDO SANDES PEREIRA PENHA   0000000000000000000005092022BRL000000000000000000000000396737PGIT010000009473    050920220000000003967370000000000000000000000000000000000000000            000        
2370001300054B   100070516863304                                                                                          000          000000000396737000000000000000000000000000000000000000000000000000000000000                              
2370001300055A0000002370385800000004555945 FERNANDO SILVA DE SOUSA       0000000000000000000005092022BRL000000000000000000000000131036PGIT010000009278    050920220000000001310360000000000000000000000000000000000000000            000        
2370001300056B   100001249042208                                                                                          000          000000000131036000000000000000000000000000000000000000000000000000000000000                              
2370001300057A0000002370645050000000123889 ROSELIO COSTA CAMPOS          0000000000000000000005092022BRL000000000000000000000000138744PGIT010000009279    050920220000000001387440000000000000000000000000000000000000000            000        
2370001300058B   100000777010208                                                                                          000          000000000138744000000000000000000000000000000000000000000000000000000000000                              
2370001300059A0000002370200870000000982318 JOSE WILLIAM PEREIRA          0000000000000000000005092022BRL000000000000000000000000196665PGIT010000009280    050920220000000001966650000000000000000000000000000000000000000            000        
2370001300060B   100095416170344                                                                                          000          000000000196665000000000000000000000000000000000000000000000000000000000000                              
2370001300061A0000002370387170000006926010 AUGUSTO HENRIQUE LIMA FERREIRA0000000000000000000005092022BRL000000000000000000000000204295PGIT010000009281    050920220000000002042950000000000000000000000000000000000000000            000        
2370001300062B   100004560681201                                                                                          000          000000000204295000000000000000000000000000000000000000000000000000000000000                              
2370001300063A0000002370182100000000059161 RAYKLER RANJEL GUIMARAES DOS S0000000000000000000005092022BRL000000000000000000000000234051PGIT010000009275    050920220000000002340510000000000000000000000000000000000000000            000        
2370001300064B   100007260055332                                                                                          000          000000000234051000000000000000000000000000000000000000000000000000000000000                              
2370001300065A0000002370200870000000706248 NELSINARIA PALHARES FREITAS   0000000000000000000005092022BRL000000000000000000000000112459PGIT010000009423    050920220000000001124590000000000000000000000000000000000000000            000        
2370001300066B   100002029690295                                                                                          000          000000000112459000000000000000000000000000000000000000000000000000000000000                              
2370001300067A0000002370200870000000912107 IGOR FREITAS TEIXEIRA         0000000000000000000005092022BRL000000000000000000000000208341PGIT010000009253    050920220000000002083410000000000000000000000000000000000000000            000        
2370001300068B   100008170921376                                                                                          000          000000000208341000000000000000000000000000000000000000000000000000000000000                              
2370001300069A0000002370103160000001080849 ADEJARMO GONCALVES DOS SANTOS 0000000000000000000005092022BRL000000000000000000000000218626PGIT010000009254    050920220000000002186260000000000000000000000000000000000000000            000        
2370001300070B   100032979266272                                                                                          000          000000000218626000000000000000000000000000000000000000000000000000000000000                              
2370001300071A0000002370194700000000045799 GILSON JOSE LOPES DOS SANTOS  0000000000000000000005092022BRL000000000000000000000000210337PGIT010000009255    050920220000000002103370000000000000000000000000000000000000000            000        
2370001300072B   100000775558303                                                                                          000          000000000210337000000000000000000000000000000000000000000000000000000000000                              
2370001300073A0000002370200870000000343595 JOSE ANTONIO DA SILVA BATISTA 0000000000000000000005092022BRL000000000000000000000000206114PGIT010000009256    050920220000000002061140000000000000000000000000000000000000000            000        
2370001300074B   100074773267291                                                                                          000          000000000206114000000000000000000000000000000000000000000000000000000000000                              
2370001300075A0000002370217840000005915856 WELTON DA SILVA DIAS          0000000000000000000005092022BRL000000000000000000000000176298PGIT010000009257    050920220000000001762980000000000000000000000000000000000000000            000        
2370001300076B   100002435766254                                                                                          000          000000000176298000000000000000000000000000000000000000000000000000000000000                              
2370001300077A0000002370200870000000956953 RODRIGO SILVA ROCHA           0000000000000000000005092022BRL000000000000000000000000113878PGIT010000009258    050920220000000001138780000000000000000000000000000000000000000            000        
2370001300078B   100002486216294                                                                                          000          000000000113878000000000000000000000000000000000000000000000000000000000000                              
2370001300079A0000002370200870000000827177 MARCELO SANTIAGO DA CRUZ      0000000000000000000005092022BRL000000000000000000000000256213PGIT010000009259    050920220000000002562130000000000000000000000000000000000000000            000        
2370001300080B   100001580216226                                                                                          000          000000000256213000000000000000000000000000000000000000000000000000000000000                              
2370001300081A0000002370200870000000877050 FABIO VILHENA DE ARAUJO       0000000000000000000005092022BRL000000000000000000000000198457PGIT010000009515    050920220000000001984570000000000000000000000000000000000000000            000        
2370001300082B   100087300753272                                                                                          000          000000000198457000000000000000000000000000000000000000000000000000000000000                              
2370001300083A0000002370200870000000644951 JHONATA ARAUJO DA SILVA       0000000000000000000005092022BRL000000000000000000000000081142PGIT010000009516    050920220000000000811420000000000000000000000000000000000000000            000        
2370001300084B   100003680229275                                                                                          000          000000000081142000000000000000000000000000000000000000000000000000000000000                              
2370001300085A0000002370200870000000758515 GUYBSON DOS SANTOS SOUSA      0000000000000000000005092022BRL000000000000000000000000223532PGIT010000009260    050920220000000002235320000000000000000000000000000000000000000            000        
2370001300086B   100005782836202                                                                                          000          000000000223532000000000000000000000000000000000000000000000000000000000000                              
2370001300087A0000002370200870000000328561 JOAO DE OLIVEIRA DUARTE       0000000000000000000005092022BRL000000000000000000000000144429PGIT010000009480    050920220000000001444290000000000000000000000000000000000000000            000        
2370001300088B   100087883244272                                                                                          000          000000000144429000000000000000000000000000000000000000000000000000000000000                              
2370001300089A0000002370617600000002573598 PEDRO HENRIQUE BARROS ROCHA   0000000000000000000005092022BRL000000000000000000000000132504PGIT010000009481    050920220000000001325040000000000000000000000000000000000000000            000        
2370001300090B   100006893989210                                                                                          000          000000000132504000000000000000000000000000000000000000000000000000000000000                              
2370001300091A0000002370573200000000176087 MARCOS VINICIUS LIMA DA SILVA 0000000000000000000005092022BRL000000000000000000000000151832PGIT010000009482    050920220000000001518320000000000000000000000000000000000000000            000        
2370001300092B   100002432136209                                                                                          000          000000000151832000000000000000000000000000000000000000000000000000000000000                              
2370001300093A0000002370200870000000731935 MARCOS COSTA DOS SANTOS       0000000000000000000005092022BRL000000000000000000000000274387PGIT010000009422    050920220000000002743870000000000000000000000000000000000000000            000        
2370001300094B   100091093465204                                                                                          000          000000000274387000000000000000000000000000000000000000000000000000000000000                              
2370001300095A0000002370141170000000485977 LARISSA BRENDA RODRIGUES CUTRI0000000000000000000005092022BRL000000000000000000000000558103PGIT010000009499    050920220000000005581030000000000000000000000000000000000000000            000        
2370001300096B   100002290909238                                                                                          000          000000000558103000000000000000000000000000000000000000000000000000000000000                              
2370001300097A0000002370200870000000739790 LUCIVALDO CANTAO APINAJES     0000000000000000000005092022BRL000000000000000000000000115126PGIT010000009329    050920220000000001151260000000000000000000000000000000000000000            000        
2370001300098B   100000314040226                                                                                          000          000000000115126000000000000000000000000000000000000000000000000000000000000                              
2370001300099A0000002370141170000000440582 JORGE LUIS PEREIRA DE AGUIAR  0000000000000000000005092022BRL000000000000000000000000144082PGIT010000009330    050920220000000001440820000000000000000000000000000000000000000            000        
2370001300100B   100062858835306                                                                                          000          000000000144082000000000000000000000000000000000000000000000000000000000000                              
2370001300101A0000002370141170000000440906 FRANCISCO DE SOUSA            0000000000000000000005092022BRL000000000000000000000000259896PGIT010000009331    050920220000000002598960000000000000000000000000000000000000000            000        
2370001300102B   100000463386329                                                                                          000          000000000259896000000000000000000000000000000000000000000000000000000000000                              
2370001300103A0000002370200870000000996122 LINDIOMAR BATISTA RIBEIRO     0000000000000000000005092022BRL000000000000000000000000114676PGIT010000009332    050920220000000001146760000000000000000000000000000000000000000            000        
2370001300104B   100004330567113                                                                                          000          000000000114676000000000000000000000000000000000000000000000000000000000000                              
2370001300105A0000002370200870000000998427 MAXIMIANO CORREA PIMENTEL     0000000000000000000005092022BRL000000000000000000000000178339PGIT010000009333    050920220000000001783390000000000000000000000000000000000000000            000        
2370001300106B   100016572106268                                                                                          000          000000000178339000000000000000000000000000000000000000000000000000000000000                              
2370001300107A0000002370200870000000828033 ROGERIO PEREIRA DA SILVA      0000000000000000000005092022BRL000000000000000000000000204198PGIT010000009307    050920220000000002041980000000000000000000000000000000000000000            000        
2370001300108B   100005891799260                                                                                          000          000000000204198000000000000000000000000000000000000000000000000000000000000                              
2370001300109A0000002370780260000000166790 FRANCISCO JHAMYSON BORGES DE A0000000000000000000005092022BRL000000000000000000000000247563PGIT010000009308    050920220000000002475630000000000000000000000000000000000000000            000        
2370001300110B   100002970301164                                                                                          000          000000000247563000000000000000000000000000000000000000000000000000000000000                              
2370001300111A0000002370200870000000981168 ELEILSON DE SOUZA             0000000000000000000005092022BRL000000000000000000000000210037PGIT010000009309    050920220000000002100370000000000000000000000000000000000000000            000        
2370001300112B   100060248175335                                                                                          000          000000000210037000000000000000000000000000000000000000000000000000000000000                              
2370001300113A0000002370141170000000434957 SAMUEL DE SOUSA SANTOS        0000000000000000000005092022BRL000000000000000000000000187666PGIT010000009310    050920220000000001876660000000000000000000000000000000000000000            000        
2370001300114B   100054682789287                                                                                          000          000000000187666000000000000000000000000000000000000000000000000000000000000                              
2370001300115A0000002370141170000000258741 JULIO CESAR DE SOUZA MARQUES  0000000000000000000005092022BRL000000000000000000000000268018PGIT010000009311    050920220000000002680180000000000000000000000000000000000000000            000        
2370001300116B   100000172181364                                                                                          000          000000000268018000000000000000000000000000000000000000000000000000000000000                              
2370001300117A0000002370573200000000036048 DANIEL RIBEIRO SOARES         0000000000000000000005092022BRL000000000000000000000000136993PGIT010000009478    050920220000000001369930000000000000000000000000000000000000000            000        
2370001300118B   100004067962207                                                                                          000          000000000136993000000000000000000000000000000000000000000000000000000000000                              
2370001300119A0000002370062030000000358193 FRANCISCO VIEIRA OLIVEIRA     0000000000000000000005092022BRL000000000000000000000000191261PGIT010000009479    050920220000000001912610000000000000000000000000000000000000000            000        
2370001300120B   100008348443118                                                                                          000          000000000191261000000000000000000000000000000000000000000000000000000000000                              
2370001300121A0000002370138890000000436631 FRANCINILDO VILANOVA BARBOSA  0000000000000000000005092022BRL000000000000000000000000239815PGIT010000009249    050920220000000002398150000000000000000000000000000000000000000            000        
2370001300122B   100004867124354                                                                                          000          000000000239815000000000000000000000000000000000000000000000000000000000000                              
2370001300123A0000002370200870000000711489 FRANCISCO DE ASSIS PEREIRA MIR0000000000000000000005092022BRL000000000000000000000000329153PGIT010000009250    050920220000000003291530000000000000000000000000000000000000000            000        
2370001300124B   100000661299155                                                                                          000          000000000329153000000000000000000000000000000000000000000000000000000000000                              
2370001300125A0000002370221870000000524247 TIELSON CARMO BRAVERES        0000000000000000000005092022BRL000000000000000000000000310385PGIT010000009251    050920220000000003103850000000000000000000000000000000000000000            000        
2370001300126B   100004902005328                                                                                          000          000000000310385000000000000000000000000000000000000000000000000000000000000                              
2370001300127A0000002370200870000005254442 ELIELSON NUNES JANSEN         0000000000000000000005092022BRL000000000000000000000000778829PGIT010000009380    050920220000000007788290000000000000000000000000000000000000000            000        
2370001300128B   100005167005370                                                                                          000          000000000778829000000000000000000000000000000000000000000000000000000000000                              
2370001300129A0000002370069980000000118940 ANTONIEL PEREIRA DA SILVA     0000000000000000000005092022BRL000000000000000000000000732516PGIT010000009381    050920220000000007325160000000000000000000000000000000000000000            000        
2370001300130B   100085245364204                                                                                          000          000000000732516000000000000000000000000000000000000000000000000000000000000                              
2370001300131A0000002370141170000000028509 RIVALDO FRANCA TEODORO        0000000000000000000005092022BRL000000000000000000000000313957PGIT010000009382    050920220000000003139570000000000000000000000000000000000000000            000        
2370001300132B   100005482452581                                                                                          000          000000000313957000000000000000000000000000000000000000000000000000000000000                              
2370001300133A0000002370303920000000151467 IZAQUE RIBEIRO DE SOUZA       0000000000000000000005092022BRL000000000000000000000000272772PGIT010000009383    050920220000000002727720000000000000000000000000000000000000000            000        
2370001300134B   100004810908356                                                                                          000          000000000272772000000000000000000000000000000000000000000000000000000000000                              
2370001300135A0000002370716090000004477170 JOAO COLACO RODRIGUES JUNIOR  0000000000000000000005092022BRL000000000000000000000000131998PGIT010000009484    050920220000000001319980000000000000000000000000000000000000000            000        
2370001300136B   100061676587306                                                                                          000          000000000131998000000000000000000000000000000000000000000000000000000000000                              
2370001300137A0000002370200870000005745640 EDJHONES NERES ALVES          0000000000000000000005092022BRL000000000000000000000000110653PGIT010000009506    050920220000000001106530000000000000000000000000000000000000000            000        
2370001300138B   100001124036202                                                                                          000          000000000110653000000000000000000000000000000000000000000000000000000000000                              
2370001300139A0000002370200870000005775191 CICERO SILVA                  0000000000000000000005092022BRL000000000000000000000000110653PGIT010000009507    050920220000000001106530000000000000000000000000000000000000000            000        
2370001300140B   100000675952271                                                                                          000          000000000110653000000000000000000000000000000000000000000000000000000000000                              
2370001300141A0000002370200870000001084968 JOAO VITOR SALES DOS REIS     0000000000000000000005092022BRL000000000000000000000000110653PGIT010000009508    050920220000000001106530000000000000000000000000000000000000000            000        
2370001300142B   100006503057288                                                                                          000          000000000110653000000000000000000000000000000000000000000000000000000000000                              
2370001300143A0000002370200870000000779490 JARDESON DE OLIVEIRA CHAGAS   0000000000000000000005092022BRL000000000000000000000000110653PGIT010000009509    050920220000000001106530000000000000000000000000000000000000000            000        
2370001300144B   100003450307290                                                                                          000          000000000110653000000000000000000000000000000000000000000000000000000000000                              
2370001300145A0000002370200870000000696676 EURISMAR DE ARAUJO FARIAS     0000000000000000000005092022BRL000000000000000000000000110653PGIT010000009510    050920220000000001106530000000000000000000000000000000000000000            000        
2370001300146B   100002085625240                                                                                          000          000000000110653000000000000000000000000000000000000000000000000000000000000                              
2370001300147A0000002370200870000001149571 ARIOSMAR PORTO SANTOS         0000000000000000000005092022BRL000000000000000000000000110653PGIT010000009511    050920220000000001106530000000000000000000000000000000000000000            000        
2370001300148B   100030045037272                                                                                          000          000000000110653000000000000000000000000000000000000000000000000000000000000                              
2370001300149A0000002370200870000000548707 DAVID DA CONCEICAO SILVA      0000000000000000000005092022BRL000000000000000000000000110653PGIT010000009512    050920220000000001106530000000000000000000000000000000000000000            000        
2370001300150B   100003145343262                                                                                          000          000000000110653000000000000000000000000000000000000000000000000000000000000                              
2370001300151A0000002370200870000000022667 HARLEY SILVA CARDOSO          0000000000000000000005092022BRL000000000000000000000000110653PGIT010000009513    050920220000000001106530000000000000000000000000000000000000000            000        
2370001300152B   100003267299250                                                                                          000          000000000110653000000000000000000000000000000000000000000000000000000000000                              
2370001300153A0000002370200870000000840483 CLEITON ALIPIO LIMA DA SILVA  0000000000000000000005092022BRL000000000000000000000000110653PGIT010000009514    050920220000000001106530000000000000000000000000000000000000000            000        
2370001300154B   100096477024268                                                                                          000          000000000110653000000000000000000000000000000000000000000000000000000000000                              
2370001300155A0000002370200870000000881236 DIEGO SOUSA                   0000000000000000000005092022BRL000000000000000000000000214638PGIT010000009312    050920220000000002146380000000000000000000000000000000000000000            000        
2370001300156B   100003635470295                                                                                          000          000000000214638000000000000000000000000000000000000000000000000000000000000                              
2370001300157A0000002370601510000000095079 AUGUSTO CESAR SOUZA DA SILVA  0000000000000000000005092022BRL000000000000000000000000328330PGIT010000009313    050920220000000003283300000000000000000000000000000000000000000            000        
2370001300158B   100089948149300                                                                                          000          000000000328330000000000000000000000000000000000000000000000000000000000000                              
2370001300159A0000002370072180000000413526 ANTONIO VIANA DE MELO         0000000000000000000005092022BRL000000000000000000000000140032PGIT010000009314    050920220000000001400320000000000000000000000000000000000000000            000        
2370001300160B   100070095752315                                                                                          000          000000000140032000000000000000000000000000000000000000000000000000000000000                              
2370001300161A0000002370780260000005245613 GERSON DOS SANTOS DE COIMBRA  0000000000000000000005092022BRL000000000000000000000000163571PGIT010000009315    050920220000000001635710000000000000000000000000000000000000000            000        
2370001300162B   100070059471263                                                                                          000          000000000163571000000000000000000000000000000000000000000000000000000000000                              
2370001300163A0000002370780260000003015017 WILLIAN CRISTIAN ALVES DE SOUZ0000000000000000000005092022BRL000000000000000000000000174529PGIT010000009316    050920220000000001745290000000000000000000000000000000000000000            000        
2370001300164B   100007729716178                                                                                          000          000000000174529000000000000000000000000000000000000000000000000000000000000                              
2370001300165A0000002370200870000003621030 ANGELO CABRAL NETO            0000000000000000000005092022BRL000000000000000000000000629377PGIT010000009317    050920220000000006293770000000000000000000000000000000000000000            000        
2370001300166B   100000229009344                                                                                          000          000000000629377000000000000000000000000000000000000000000000000000000000000                              
2370001300167A0000002370200870000000949817 WENIS DA SILVA E SILVA        0000000000000000000005092022BRL000000000000000000000000202404PGIT010000009318    050920220000000002024040000000000000000000000000000000000000000            000        
2370001300168B   100002961036240                                                                                          000          000000000202404000000000000000000000000000000000000000000000000000000000000                              
2370001300169A0000002370138890000000332763 WTEMBERG SILVA FEITOSA        0000000000000000000005092022BRL000000000000000000000000384937PGIT010000009319    050920220000000003849370000000000000000000000000000000000000000            000        
2370001300170B   100062016091215                                                                                          000          000000000384937000000000000000000000000000000000000000000000000000000000000                              
2370001300171A0000002370780260000003420639 NEY ROBSON GOMES DA SILVA     0000000000000000000005092022BRL000000000000000000000000161910PGIT010000009320    050920220000000001619100000000000000000000000000000000000000000            000        
2370001300172B   100004868922394                                                                                          000          000000000161910000000000000000000000000000000000000000000000000000000000000                              
2370001300173A0000002370780260000004766946 TONY WILSON COSTA             0000000000000000000005092022BRL000000000000000000000000337154PGIT010000009321    050920220000000003371540000000000000000000000000000000000000000            000        
2370001300174B   100051478242272                                                                                          000          000000000337154000000000000000000000000000000000000000000000000000000000000                              
2370001300175A0000002370141170000000440973 SANAILTON SOBRINHO FORTE      0000000000000000000005092022BRL000000000000000000000000131730PGIT010000009334    050920220000000001317300000000000000000000000000000000000000000            000        
2370001300176B   100001955260230                                                                                          000          000000000131730000000000000000000000000000000000000000000000000000000000000                              
2370001300177A0000002370373700000000571644 ALESSANDRO SILVA RIBEIRO      0000000000000000000005092022BRL000000000000000000000000216123PGIT010000009335    050920220000000002161230000000000000000000000000000000000000000            000        
2370001300178B   100081221878204                                                                                          000          000000000216123000000000000000000000000000000000000000000000000000000000000                              
2370001300179A0000002370138890000006400663 SIMAO MENDES TEIXEIRA         0000000000000000000005092022BRL000000000000000000000000202879PGIT010000009336    050920220000000002028790000000000000000000000000000000000000000            000        
2370001300180B   100017236622249                                                                                          000          000000000202879000000000000000000000000000000000000000000000000000000000000                              
2370001300181A0000002370141170000000386235 TEDIJONES LASERDA DOS SANTOS  0000000000000000000005092022BRL000000000000000000000000309393PGIT010000009337    050920220000000003093930000000000000000000000000000000000000000            000        
2370001300182B   100062317318120                                                                                          000          000000000309393000000000000000000000000000000000000000000000000000000000000                              
2370001300183A0000002370200870000005711967 JOSE DE RIBAMAR ALVES DE SOUSA0000000000000000000005092022BRL000000000000000000000000179053PGIT010000009338    050920220000000001790530000000000000000000000000000000000000000            000        
2370001300184B   100093961294291                                                                                          000          000000000179053000000000000000000000000000000000000000000000000000000000000                              
2370001300185A0000002370200870000001017861 ITELVAN DA CONCEICAO          0000000000000000000005092022BRL000000000000000000000000224360PGIT010000009339    050920220000000002243600000000000000000000000000000000000000000            000        
2370001300186B   100000951682148                                                                                          000          000000000224360000000000000000000000000000000000000000000000000000000000000                              
2370001300187A0000002370076330000000207446 ELIAS LIMA DOS SANTOS         0000000000000000000005092022BRL000000000000000000000000181175PGIT010000009340    050920220000000001811750000000000000000000000000000000000000000            000        
2370001300188B   100071461990297                                                                                          000          000000000181175000000000000000000000000000000000000000000000000000000000000                              
2370001300189A0000002370690780000003010082 CLAUDIO ANTONIO PEREIRA LEAL  0000000000000000000005092022BRL000000000000000000000000414566PGIT010000009341    050920220000000004145660000000000000000000000000000000000000000            000        
2370001300190B   100002282595173                                                                                          000          000000000414566000000000000000000000000000000000000000000000000000000000000                              
2370001300191A0000002370200870000001011820 RONALDO DE JESUS SOUZA MENDONC0000000000000000000005092022BRL000000000000000000000000202937PGIT010000009342    050920220000000002029370000000000000000000000000000000000000000            000        
2370001300192B   100060515652300                                                                                          000          000000000202937000000000000000000000000000000000000000000000000000000000000                              
2370001300193A0000002370200870000001010883 WILDES VIANA PINTO            0000000000000000000005092022BRL000000000000000000000000204011PGIT010000009343    050920220000000002040110000000000000000000000000000000000000000            000        
2370001300194B   100079369910263                                                                                          000          000000000204011000000000000000000000000000000000000000000000000000000000000                              
2370001300195A0000002370200870000000824658 WILLIAM GONCALVES DE SOUZA    0000000000000000000005092022BRL000000000000000000000000182129PGIT010000009344    050920220000000001821290000000000000000000000000000000000000000            000        
2370001300196B   100001352118246                                                                                          000          000000000182129000000000000000000000000000000000000000000000000000000000000                              
2370001300197A0000002370318360000000032751 DULCIVAL SANTOS SOUZA JUNIOR  0000000000000000000005092022BRL000000000000000000000001967829PGIT010000009345    050920220000000019678290000000000000000000000000000000000000000            000        
2370001300198B   100000176194592                                                                                          000          000000001967829000000000000000000000000000000000000000000000000000000000000                              
2370001300199A0000002370200870000000826693 JOAO GOMES HOLOUKA            0000000000000000000005092022BRL000000000000000000000000238104PGIT010000009346    050920220000000002381040000000000000000000000000000000000000000            000        
2370001300200B   100001289478295                                                                                          000          000000000238104000000000000000000000000000000000000000000000000000000000000                              
2370001300201A0000002370098490000008010153 GILBERTO DA SILVA ALVES       0000000000000000000005092022BRL000000000000000000000000228110PGIT010000009500    050920220000000002281100000000000000000000000000000000000000000            000        
2370001300202B   100001058677217                                                                                          000          000000000228110000000000000000000000000000000000000000000000000000000000000                              
2370001300203A0000002370200870000001143506 PEDRO LUCAS SANTOS SILVA      0000000000000000000005092022BRL000000000000000000000000110653PGIT010000009501    050920220000000001106530000000000000000000000000000000000000000            000        
2370001300204B   100007015362252                                                                                          000          000000000110653000000000000000000000000000000000000000000000000000000000000                              
2370001300205A0000002370303920000000059145 WESLEY LOPES MOITINHO         0000000000000000000005092022BRL000000000000000000000000110653PGIT010000009502    050920220000000001106530000000000000000000000000000000000000000            000        
2370001300206B   100002690031264                                                                                          000          000000000110653000000000000000000000000000000000000000000000000000000000000                              
2370001300207A0000002370200870000000832480 JOSE VITOR MACHADO DE ALCOBACA0000000000000000000005092022BRL000000000000000000000000110653PGIT010000009503    050920220000000001106530000000000000000000000000000000000000000            000        
2370001300208B   100008763978369                                                                                          000          000000000110653000000000000000000000000000000000000000000000000000000000000                              
2370001300209A0000002370200870000000873624 JOSE NILSON SANTOS DE SOUSA   0000000000000000000005092022BRL000000000000000000000000110653PGIT010000009504    050920220000000001106530000000000000000000000000000000000000000            000        
2370001300210B   100068772823291                                                                                          000          000000000110653000000000000000000000000000000000000000000000000000000000000                              
2370001300211A0000002370104640000006027156 CLEBSON DA SILVA MATOS        0000000000000000000005092022BRL000000000000000000000000110653PGIT010000009505    050920220000000001106530000000000000000000000000000000000000000            000        
2370001300212B   100005661596359                                                                                          000          000000000110653000000000000000000000000000000000000000000000000000000000000                              
2370001300213A0000002370200870000000964255 MANOEL LOBATO                 0000000000000000000005092022BRL000000000000000000000000117880PGIT010000009299    050920220000000001178800000000000000000000000000000000000000000            000        
2370001300214B   100096330317291                                                                                          000          000000000117880000000000000000000000000000000000000000000000000000000000000                              
2370001300215A0000002370200870000000982032 JOSEVALDO SANTOS SAMENEZES    0000000000000000000005092022BRL000000000000000000000000202205PGIT010000009300    050920220000000002022050000000000000000000000000000000000000000            000        
2370001300216B   100005577922232                                                                                          000          000000000202205000000000000000000000000000000000000000000000000000000000000                              
2370001300217A0000002370200870000005243203 MANOEL SOUSA DA SILVA         0000000000000000000005092022BRL000000000000000000000000165016PGIT010000009301    050920220000000001650160000000000000000000000000000000000000000            000        
2370001300218B   100000073284351                                                                                          000          000000000165016000000000000000000000000000000000000000000000000000000000000                              
2370001300219A0000002370141170000000434116 ILDO JOSE VIEIRA DA SILVA     0000000000000000000005092022BRL000000000000000000000000201902PGIT010000009302    050920220000000002019020000000000000000000000000000000000000000            000        
2370001300220B   100058513752215                                                                                          000          000000000201902000000000000000000000000000000000000000000000000000000000000                              
2370001300221A0000002370141170000000435198 ANTONIO ORLANDO CARNEIRO DE SO0000000000000000000005092022BRL000000000000000000000000221183PGIT010000009303    050920220000000002211830000000000000000000000000000000000000000            000        
2370001300222B   100035139854368                                                                                          000          000000000221183000000000000000000000000000000000000000000000000000000000000                              
2370001300223A0000002370780260000000131954 AURILAN SOARES SOBRINHO       0000000000000000000005092022BRL000000000000000000000000080533PGIT010000009304    050920220000000000805330000000000000000000000000000000000000000            000        
2370001300224B   100000621334200                                                                                          000          000000000080533000000000000000000000000000000000000000000000000000000000000                              
2370001300225A0000002370200870000000627593 FELIPE DE SOUSA DIAS          0000000000000000000005092022BRL000000000000000000000000200813PGIT010000009305    050920220000000002008130000000000000000000000000000000000000000            000        
2370001300226B   100003505279200                                                                                          000          000000000200813000000000000000000000000000000000000000000000000000000000000                              
2370001300227A0000002370141170000000434310 JOAO CANDEIA RIBEIRO FILHO    0000000000000000000005092022BRL000000000000000000000000200651PGIT010000009306    050920220000000002006510000000000000000000000000000000000000000            000        
2370001300228B   100060724616381                                                                                          000          000000000200651000000000000000000000000000000000000000000000000000000000000                              
2370001300229A0000002370095980000000102822 JOAO EVANGELISTA DE PAULA BARB0000000000000000000005092022BRL000000000000000000000000297761PGIT010000009261    050920220000000002977610000000000000000000000000000000000000000            000        
2370001300230B   100002467366316                                                                                          000          000000000297761000000000000000000000000000000000000000000000000000000000000                              
2370001300231A0000002370200870000000824046 ROSANE PEREIRA AGUIAR         0000000000000000000005092022BRL000000000000000000000000165288PGIT010000009458    050920220000000001652880000000000000000000000000000000000000000            000        
2370001300232B   100002873668202                                                                                          000          000000000165288000000000000000000000000000000000000000000000000000000000000                              
2370001300233A0000002370102780000000184861 SERGIO RICARDO CORREA LICA    0000000000000000000005092022BRL000000000000000000000000190793PGIT010000009483    050920220000000001907930000000000000000000000000000000000000000            000        
2370001300234B   100006049108358                                                                                          000          000000000190793000000000000000000000000000000000000000000000000000000000000                              
2370001300235A0000002370200870000000349925 DOMINGOS IDELMAR PEREIRA DA SI0000000000000000000005092022BRL000000000000000000000000162421PGIT010000009348    050920220000000001624210000000000000000000000000000000000000000            000        
2370001300236B   100003724903367                                                                                          000          000000000162421000000000000000000000000000000000000000000000000000000000000                              
2370001300237A0000002370141170000000356808 JOSIMAR CHAVES BARBOSA        0000000000000000000005092022BRL000000000000000000000000217196PGIT010000009459    050920220000000002171960000000000000000000000000000000000000000            000        
2370001300238B   100067533124200                                                                                          000          000000000217196000000000000000000000000000000000000000000000000000000000000                              
2370001300239A0000002370200870000005401526 DANIEL LAGES DE SOUZA         0000000000000000000005092022BRL000000000000000000000000389734PGIT010000009349    050920220000000003897340000000000000000000000000000000000000000            000        
2370001300240B   100001852274301                                                                                          000          000000000389734000000000000000000000000000000000000000000000000000000000000                              
2370001300241A0000002370303920000005801028 AMIRALDO MOURA LADISLAU       0000000000000000000005092022BRL000000000000000000000000153082PGIT010000009350    050920220000000001530820000000000000000000000000000000000000000            000        
2370001300242B   100089715012272                                                                                          000          000000000153082000000000000000000000000000000000000000000000000000000000000                              
2370001300243A0000002370141170000000401455 ANTONIO CLAUDIO DE FRANCA FERR0000000000000000000005092022BRL000000000000000000000000161710PGIT010000009351    050920220000000001617100000000000000000000000000000000000000000            000        
2370001300244B   100002131732392                                                                                          000          000000000161710000000000000000000000000000000000000000000000000000000000000                              
2370001300245A0000002370138890000000175455 RAIMUNDO CARVALHO SILVA       0000000000000000000005092022BRL000000000000000000000000301170PGIT010000009352    050920220000000003011700000000000000000000000000000000000000000            000        
2370001300246B   100056598220297                                                                                          000          000000000301170000000000000000000000000000000000000000000000000000000000000                              
2370001300247A0000002370200870000001014722 MANOEL CRISTINEI DE SOUSA VIEI0000000000000000000005092022BRL000000000000000000000000300453PGIT010000009353    050920220000000003004530000000000000000000000000000000000000000            000        
2370001300248B   100001455186201                                                                                          000          000000000300453000000000000000000000000000000000000000000000000000000000000                              
2370001300249A0000002370200870000005752973 HELDER VIEIRA MENDONCA        0000000000000000000005092022BRL000000000000000000000000155947PGIT010000009354    050920220000000001559470000000000000000000000000000000000000000            000        
2370001300250B   100000954767250                                                                                          000          000000000155947000000000000000000000000000000000000000000000000000000000000                              
2370001300251A0000002370573200000005129893 ANTONIO GILBERTO DA SILVA NUNE0000000000000000000005092022BRL000000000000000000000000143343PGIT010000009355    050920220000000001433430000000000000000000000000000000000000000            000        
2370001300252B   100080562752234                                                                                          000          000000000143343000000000000000000000000000000000000000000000000000000000000                              
2370001300253A0000002370580840000005650615 CRISTINO DO NASCIMENTO LIMA   0000000000000000000005092022BRL000000000000000000000000824782PGIT010000009356    050920220000000008247820000000000000000000000000000000000000000            000        
2370001300254B   100059013214304                                                                                          000          000000000824782000000000000000000000000000000000000000000000000000000000000                              
2370001300255A0000002370138890000000345393 SAMUEL DE OLIVEIRA COSTA      0000000000000000000005092022BRL000000000000000000000000287504PGIT010000009424    050920220000000002875040000000000000000000000000000000000000000            000        
2370001300256B   100085815640204                                                                                          000          000000000287504000000000000000000000000000000000000000000000000000000000000                              
2370001300257A0000002370200870000000886858 EDELSO DE BRITO BORGES        0000000000000000000005092022BRL000000000000000000000000159841PGIT010000009425    050920220000000001598410000000000000000000000000000000000000000            000        
2370001300258B   100001468841246                                                                                          000          000000000159841000000000000000000000000000000000000000000000000000000000000                              
2370001300259A0000002370615300000000051772 RAIMUNDO FERREIRA FREITAS     0000000000000000000005092022BRL000000000000000000000000213060PGIT010000009426    050920220000000002130600000000000000000000000000000000000000000            000        
2370001300260B   100060830301291                                                                                          000          000000000213060000000000000000000000000000000000000000000000000000000000000                              
2370001300261A0000002370645050000000136298 DIEGO FELIX ALVES             0000000000000000000005092022BRL000000000000000000000000277744PGIT010000009427    050920220000000002777440000000000000000000000000000000000000000            000        
2370001300262B   100004137022194                                                                                          000          000000000277744000000000000000000000000000000000000000000000000000000000000                              
2370001300263A0000002370141170000000304611 VILAMAR SOARES DOS SANTOS     0000000000000000000005092022BRL000000000000000000000000430803PGIT010000009428    050920220000000004308030000000000000000000000000000000000000000            000        
2370001300264B   100085814733268                                                                                          000          000000000430803000000000000000000000000000000000000000000000000000000000000                              
2370001300265A0000002370141170000000332909 WELLINGTON CARLOS DOS SANTOS C0000000000000000000005092022BRL000000000000000000000000256704PGIT010000009429    050920220000000002567040000000000000000000000000000000000000000            000        
2370001300266B   100060223174360                                                                                          000          000000000256704000000000000000000000000000000000000000000000000000000000000                              
2370001300267A0000002370303920000000377201 CLEISON FERREIRA DA COSTA     0000000000000000000005092022BRL000000000000000000000000397604PGIT010000009430    050920220000000003976040000000000000000000000000000000000000000            000        
2370001300268B   100083047255253                                                                                          000          000000000397604000000000000000000000000000000000000000000000000000000000000                              
2370001300269A0000002370072180000005212782 KLEBER DA SILVA SANTOS        0000000000000000000005092022BRL000000000000000000000000220219PGIT010000009431    050920220000000002202190000000000000000000000000000000000000000            000        
2370001300270B   100060234670320                                                                                          000          000000000220219000000000000000000000000000000000000000000000000000000000000                              
2370001300271A0000002370200870000007009054 RONILDO NEVES COSTA PEREIRA   0000000000000000000005092022BRL000000000000000000000000216665PGIT010000009432    050920220000000002166650000000000000000000000000000000000000000            000        
2370001300272B   100003071123302                                                                                          000          000000000216665000000000000000000000000000000000000000000000000000000000000                              
2370001300273A0000002370141170000000011142 EDMAR MAXIMO DA SILVA         0000000000000000000005092022BRL000000000000000000000000279841PGIT010000009433    050920220000000002798410000000000000000000000000000000000000000            000        
2370001300274B   100033562938349                                                                                          000          000000000279841000000000000000000000000000000000000000000000000000000000000                              
2370001300275A0000002370200870000000290254 ATANAEL COSTA CARVALHO        0000000000000000000005092022BRL000000000000000000000000383147PGIT010000009434    050920220000000003831470000000000000000000000000000000000000000            000        
2370001300276B   100002748921380                                                                                          000          000000000383147000000000000000000000000000000000000000000000000000000000000                              
2370001300277A0000002370200870000005778573 DENNIS GEORGE SOUSA DA SILVA  0000000000000000000005092022BRL000000000000000000000000281551PGIT010000009435    050920220000000002815510000000000000000000000000000000000000000            000        
2370001300278B   100000439406250                                                                                          000          000000000281551000000000000000000000000000000000000000000000000000000000000                              
2370001300279A0000002370200870000005197120 JOAO BATISTA A DE OLIVEIRA    0000000000000000000005092022BRL000000000000000000000000283545PGIT010000009436    050920220000000002835450000000000000000000000000000000000000000            000        
2370001300280B   100072619112249                                                                                          000          000000000283545000000000000000000000000000000000000000000000000000000000000                              
2370001300281A0000002370693020000010010152 JOSE ANTONIO CHAGAS DE AZEVEDO0000000000000000000005092022BRL000000000000000000000000273328PGIT010000009437    050920220000000002733280000000000000000000000000000000000000000            000        
2370001300282B   100075357518300                                                                                          000          000000000273328000000000000000000000000000000000000000000000000000000000000                              
2370001300283A0000002370200870000000327387 JUNIOR CAVALCANTE LIMA        0000000000000000000005092022BRL000000000000000000000000147927PGIT010000009438    050920220000000001479270000000000000000000000000000000000000000            000        
2370001300284B   100091045797200                                                                                          000          000000000147927000000000000000000000000000000000000000000000000000000000000                              
2370001300285A0000002370200870000000947520 PAULO ROGERIO DE CARVALHO CRUZ0000000000000000000005092022BRL000000000000000000000000179229PGIT010000009439    050920220000000001792290000000000000000000000000000000000000000            000        
2370001300286B   100002997095310                                                                                          000          000000000179229000000000000000000000000000000000000000000000000000000000000                              
2370001300287A0000002370200870000000844721 RUITER DA SILVA MIRANDA       0000000000000000000005092022BRL000000000000000000000000342617PGIT010000009440    050920220000000003426170000000000000000000000000000000000000000            000        
2370001300288B   100013207830234                                                                                          000          000000000342617000000000000000000000000000000000000000000000000000000000000                              
2370001300289A0000002370200870000005725704 ROSENILDO MENDONCA FURTADO    0000000000000000000005092022BRL000000000000000000000000203692PGIT010000009441    050920220000000002036920000000000000000000000000000000000000000            000        
2370001300290B   100098156233387                                                                                          000          000000000203692000000000000000000000000000000000000000000000000000000000000                              
2370001300291A0000002370303920000000119571 MARINALDO SAGICA              0000000000000000000005092022BRL000000000000000000000000290395PGIT010000009204    050920220000000002903950000000000000000000000000000000000000000            000        
2370001300292B   100000352157208                                                                                          000          000000000290395000000000000000000000000000000000000000000000000000000000000                              
2370001300293A0000002370138890000005012198 DOMINGOS FERREIRA SILVA JUNIOR0000000000000000000005092022BRL000000000000000000000000242299PGIT010000009384    050920220000000002422990000000000000000000000000000000000000000            000        
2370001300294B   100000768304202                                                                                          000          000000000242299000000000000000000000000000000000000000000000000000000000000                              
2370001300295A0000002370200870000000788716 MARCO WAGNER SOUSA SILVA      0000000000000000000005092022BRL000000000000000000000000142747PGIT010000009485    050920220000000001427470000000000000000000000000000000000000000            000        
2370001300296B   100060942851234                                                                                          000          000000000142747000000000000000000000000000000000000000000000000000000000000                              
2370001300297A0000002370303920000000016187 ADEANDERSON CAMPOS            0000000000000000000005092022BRL000000000000000000000000194860PGIT010000009460    050920220000000001948600000000000000000000000000000000000000000            000        
2370001300298B   100061248507371                                                                                          000          000000000194860000000000000000000000000000000000000000000000000000000000000                              
2370001300299A0000002370141170000000053635 JOSE RAIMUNDO ARAUJO          0000000000000000000005092022BRL000000000000000000000000228697PGIT010000009461    050920220000000002286970000000000000000000000000000000000000000            000        
2370001300300B   100092173683349                                                                                          000          000000000228697000000000000000000000000000000000000000000000000000000000000                              
2370001300301A0000002370138890000000477354 FRANCISCO ABREU               0000000000000000000005092022BRL000000000000000000000000214520PGIT010000009462    050920220000000002145200000000000000000000000000000000000000000            000        
2370001300302B   100028092335869                                                                                          000          000000000214520000000000000000000000000000000000000000000000000000000000000                              
2370001300303A0000002370167210000000610542 RUAN GOMES DE MELO            0000000000000000000005092022BRL000000000000000000000000144364PGIT010000009486    050920220000000001443640000000000000000000000000000000000000000            000        
2370001300304B   100008255422277                                                                                          000          000000000144364000000000000000000000000000000000000000000000000000000000000                              
2370001300305A0000002370617600000003247082 BRUNO LENO CUTRIM DE OLIVEIRA 0000000000000000000005092022BRL000000000000000000000000123912PGIT010000009487    050920220000000001239120000000000000000000000000000000000000000            000        
2370001300306B   100010474837343                                                                                          000          000000000123912000000000000000000000000000000000000000000000000000000000000                              
2370001300307A0000002370200870000000896446 JAIRO FERREIRA DA SILVA       0000000000000000000005092022BRL000000000000000000000000217930PGIT010000009463    050920220000000002179300000000000000000000000000000000000000000            000        
2370001300308B   100079041493387                                                                                          000          000000000217930000000000000000000000000000000000000000000000000000000000000                              
2370001300309A0000002370558670000000051748 MOISES BARBOSA MARTINS        0000000000000000000005092022BRL000000000000000000000000258798PGIT010000009367    050920220000000002587980000000000000000000000000000000000000000            000        
2370001300310B   100069549133249                                                                                          000          000000000258798000000000000000000000000000000000000000000000000000000000000                              
2370001300311A0000002370133400000005014735 JONAS COSTA DOS SANTOS        0000000000000000000005092022BRL000000000000000000000000240203PGIT010000009368    050920220000000002402030000000000000000000000000000000000000000            000        
2370001300312B   100000784244103                                                                                          000          000000000240203000000000000000000000000000000000000000000000000000000000000                              
2370001300313A0000002370103160000000167410 SEBASTIAO DA CONCEICAO LOBATO 0000000000000000000005092022BRL000000000000000000000000741555PGIT010000009369    050920220000000007415550000000000000000000000000000000000000000            000        
2370001300314B   100057999023272                                                                                          000          000000000741555000000000000000000000000000000000000000000000000000000000000                              
2370001300315A0000002370200870000005214416 GILBERTO SOUSA DE ANDRADE     0000000000000000000005092022BRL000000000000000000000000189852PGIT010000009464    050920220000000001898520000000000000000000000000000000000000000            000        
2370001300316B   100091118840372                                                                                          000          000000000189852000000000000000000000000000000000000000000000000000000000000                              
2370001300317A0000002370200870000000342084 FRANCISCO MARISCAL DOS SANTOS 0000000000000000000005092022BRL000000000000000000000000200358PGIT010000009465    050920220000000002003580000000000000000000000000000000000000000            000        
2370001300318B   100080352413204                                                                                          000          000000000200358000000000000000000000000000000000000000000000000000000000000                              
2370001300319A0000002370200870000005750636 JOSE RAIMUNDO DE OLIVEIRA     0000000000000000000005092022BRL000000000000000000000000200430PGIT010000009370    050920220000000002004300000000000000000000000000000000000000000            000        
2370001300320B   100074535366349                                                                                          000          000000000200430000000000000000000000000000000000000000000000000000000000000                              
2370001300321A0000002370761550000006098274 PEDRO HENRIQUE FRAZAO DA SILVA0000000000000000000005092022BRL000000000000000000000000231119PGIT010000009371    050920220000000002311190000000000000000000000000000000000000000            000        
2370001300322B   100006154415214                                                                                          000          000000000231119000000000000000000000000000000000000000000000000000000000000                              
2370001300323A0000002370761550000004744977 LUCAS DA SILVA DE BARROS      0000000000000000000005092022BRL000000000000000000000000251314PGIT010000009372    050920220000000002513140000000000000000000000000000000000000000            000        
2370001300324B   100006128951309                                                                                          000          000000000251314000000000000000000000000000000000000000000000000000000000000                              
2370001300325A0000002370780260000002254182 FAGNER MAIA SANTIAGO          0000000000000000000005092022BRL000000000000000000000000211098PGIT010000009373    050920220000000002110980000000000000000000000000000000000000000            000        
2370001300326B   100001615712208                                                                                          000          000000000211098000000000000000000000000000000000000000000000000000000000000                              
2370001300327A0000002370200870000000722278 ADALTO DA SILVA DUTRA         0000000000000000000005092022BRL000000000000000000000000204335PGIT010000009206    050920220000000002043350000000000000000000000000000000000000000            000        
2370001300328B   100000296110329                                                                                          000          000000000204335000000000000000000000000000000000000000000000000000000000000                              
2370001300329A0000002370141170000005501474 JOSE DOS REIS FERREIRA CHAVES 0000000000000000000005092022BRL000000000000000000000000213635PGIT010000009207    050920220000000002136350000000000000000000000000000000000000000            000        
2370001300330B   100029238919372                                                                                          000          000000000213635000000000000000000000000000000000000000000000000000000000000                              
2370001300331A0000002370200870000000734500 DIOGO RIBEIRO DA COSTA        0000000000000000000005092022BRL000000000000000000000000941015PGIT010000009208    050920220000000009410150000000000000000000000000000000000000000            000        
2370001300332B   100097497100297                                                                                          000          000000000941015000000000000000000000000000000000000000000000000000000000000                              
2370001300333A0000002370141170000000012149 ADRIANO COIMBRA ELISEU SANTOS 0000000000000000000005092022BRL000000000000000000000000040303PGIT010000009209    050920220000000000403030000000000000000000000000000000000000000            000        
2370001300334B   100090881494291                                                                                          000          000000000040303000000000000000000000000000000000000000000000000000000000000                              
2370001300335A0000002370693020000000169617 VICTORIA DA SILVA PIRES       0000000000000000000005092022BRL000000000000000000000000692418PGIT010000009210    050920220000000006924180000000000000000000000000000000000000000            000        
2370001300336B   100009207316609                                                                                          000          000000000692418000000000000000000000000000000000000000000000000000000000000                              
2370001300337A0000002370101110000000126039 JORGE PAULO ARAUJO            0000000000000000000005092022BRL000000000000000000000000191029PGIT010000009211    050920220000000001910290000000000000000000000000000000000000000            000        
2370001300338B   100077942230325                                                                                          000          000000000191029000000000000000000000000000000000000000000000000000000000000                              
2370001300339A0000002370200870000005750628 JARDEL FARIAS DE SOUSA        0000000000000000000005092022BRL000000000000000000000000050398PGIT010000009525    050920220000000000503980000000000000000000000000000000000000000            000        
2370001300340B   100096321750344                                                                                          000          000000000050398000000000000000000000000000000000000000000000000000000000000                              
2370001300341A0000002370138890000000238120 FRANCISCO PAIVA RODRIGUES     0000000000000000000005092022BRL000000000000000000000000050398PGIT010000009526    050920220000000000503980000000000000000000000000000000000000000            000        
2370001300342B   100075688255234                                                                                          000          000000000050398000000000000000000000000000000000000000000000000000000000000                              
2370001300343A0000002370141170000005732360 JORGE ALEXANDRE PAZ LUZ       0000000000000000000005092022BRL000000000000000000000000216749PGIT010000009374    050920220000000002167490000000000000000000000000000000000000000            000        
2370001300344B   100000581997212                                                                                          000          000000000216749000000000000000000000000000000000000000000000000000000000000                              
2370001300345A0000002370386280000006600980 ELIELTON SILVA DE MATOS       0000000000000000000005092022BRL000000000000000000000000152311PGIT010000009375    050920220000000001523110000000000000000000000000000000000000000            000        
2370001300346B   100061224935381                                                                                          000          000000000152311000000000000000000000000000000000000000000000000000000000000                              
2370001300347A0000002370194700000000579718 ABRAAO TAVARES OLIVEIRA       0000000000000000000005092022BRL000000000000000000000000241507PGIT010000009376    050920220000000002415070000000000000000000000000000000000000000            000        
2370001300348B   100088144267249                                                                                          000          000000000241507000000000000000000000000000000000000000000000000000000000000                              
2370001300349A0000002370200870000005766087 GENIVALDO DA CRUZ DEMETRIO    0000000000000000000005092022BRL000000000000000000000000211950PGIT010000009409    050920220000000002119500000000000000000000000000000000000000000            000        
2370001300350B   100063732637204                                                                                          000          000000000211950000000000000000000000000000000000000000000000000000000000000                              
2370001300351A0000002370200870000000463558 MARCO MARTINS CAMPOS          0000000000000000000005092022BRL000000000000000000000000495889PGIT010000009410    050920220000000004958890000000000000000000000000000000000000000            000        
2370001300352B   100003427659658                                                                                          000          000000000495889000000000000000000000000000000000000000000000000000000000000                              
2370001300353A0000002370114280000010009332 ELIAS CARVALHO SANTOS         0000000000000000000005092022BRL000000000000000000000000201105PGIT010000009411    050920220000000002011050000000000000000000000000000000000000000            000        
2370001300354B   100074769405391                                                                                          000          000000000201105000000000000000000000000000000000000000000000000000000000000                              
2370001300355A0000002370761550000005217865 MARCOS SOUSA FERREIRA         0000000000000000000005092022BRL000000000000000000000000406789PGIT010000009377    050920220000000004067890000000000000000000000000000000000000000            000        
2370001300356B   100005859525311                                                                                          000          000000000406789000000000000000000000000000000000000000000000000000000000000                              
2370001300357A0000002370141170000000061077 JOSE DE RIBAMAR SANTOS        0000000000000000000005092022BRL000000000000000000000000050398PGIT010000009527    050920220000000000503980000000000000000000000000000000000000000            000        
2370001300358B   100084747471200                                                                                          000          000000000050398000000000000000000000000000000000000000000000000000000000000                              
2370001300359A0000002370104640000005316030 MARDONIO SILVA VIANA          0000000000000000000005092022BRL000000000000000000000000205343PGIT010000009347    050920220000000002053430000000000000000000000000000000000000000            000        
2370001300360B   100004032984310                                                                                          000          000000000205343000000000000000000000000000000000000000000000000000000000000                              
2370001300361A0000002370200870000000710865 FRANCISCO DA SILVA LIMA       0000000000000000000005092022BRL000000000000000000000000182594PGIT010000009420    050920220000000001825940000000000000000000000000000000000000000            000        
2370001300362B   100002166987311                                                                                          000          000000000182594000000000000000000000000000000000000000000000000000000000000                              
2370001300363A0000002370141170000000400394 ISMAEL DOS SANTOS PEREIRA     0000000000000000000005092022BRL000000000000000000000000029551PGIT010000009240    050920220000000000295510000000000000000000000000000000000000000            000        
2370001300364B   100005003541384                                                                                          000          000000000029551000000000000000000000000000000000000000000000000000000000000                              
2370001300365A0000002370141170000000328324 DANIEL GOMES DA SILVA         0000000000000000000005092022BRL000000000000000000000000210267PGIT010000009212    050920220000000002102670000000000000000000000000000000000000000            000        
2370001300366B   100003544690292                                                                                          000          000000000210267000000000000000000000000000000000000000000000000000000000000                              
2370001300367A0000002370303920000000129593 ACACIO LUIZ KERSTEN           0000000000000000000005092022BRL000000000000000000000000569144PGIT010000009215    050920220000000005691440000000000000000000000000000000000000000            000        
2370001300368B   100085694460987                                                                                          000          000000000569144000000000000000000000000000000000000000000000000000000000000                              
2370001300369A0000002370154820000005348218 EDIELSON MARQUES DA SILVA     0000000000000000000005092022BRL000000000000000000000000191832PGIT010000009216    050920220000000001918320000000000000000000000000000000000000000            000        
2370001300370B   100002260977227                                                                                          000          000000000191832000000000000000000000000000000000000000000000000000000000000                              
2370001300371A0000002370200870000005751500 CARLOS DE ARAUJO PIRES        0000000000000000000005092022BRL000000000000000000000000154560PGIT010000009241    050920220000000001545600000000000000000000000000000000000000000            000        
2370001300372B   100002241578258                                                                                          000          000000000154560000000000000000000000000000000000000000000000000000000000000                              
2370001300373A0000002370078620000010027128 GILMAR DA CRUZ SILVA COSTA    0000000000000000000005092022BRL000000000000000000000000226940PGIT010000009242    050920220000000002269400000000000000000000000000000000000000000            000        
2370001300374B   100060183049373                                                                                          000          000000000226940000000000000000000000000000000000000000000000000000000000000                              
2370001300375A0000002370196740000003510042 LEONARDO ALVES DE OLIVEIRA    0000000000000000000005092022BRL000000000000000000000000840952PGIT010000009217    050920220000000008409520000000000000000000000000000000000000000            000        
2370001300376B   100000127502203                                                                                          000          000000000840952000000000000000000000000000000000000000000000000000000000000                              
2370001300377A0000002370138890000000436356 ENIVALDO DE SOUSA SILVEIRA    0000000000000000000005092022BRL000000000000000000000000222246PGIT010000009218    050920220000000002222460000000000000000000000000000000000000000            000        
2370001300378B   100041293800368                                                                                          000          000000000222246000000000000000000000000000000000000000000000000000000000000                              
2370001300379A0000002370385800000002144034 JAILSON FERNANDES MACHADO     0000000000000000000005092022BRL000000000000000000000000237261PGIT010000009243    050920220000000002372610000000000000000000000000000000000000000            000        
2370001300380B   100005477010398                                                                                          000          000000000237261000000000000000000000000000000000000000000000000000000000000                              
2370001300381A0000002370141170000000185876 MARCELO DA COSTA PARDINHO     0000000000000000000005092022BRL000000000000000000000000451380PGIT010000009244    050920220000000004513800000000000000000000000000000000000000000            000        
2370001300382B   100076096750249                                                                                          000          000000000451380000000000000000000000000000000000000000000000000000000000000                              
2370001300383A0000002370385800000007362552 DANIELE NASCIMENTO SALDANHA   0000000000000000000005092022BRL000000000000000000000000176890PGIT010000009245    050920220000000001768900000000000000000000000000000000000000000            000        
2370001300384B   100003928111205                                                                                          000          000000000176890000000000000000000000000000000000000000000000000000000000000                              
2370001300385A0000002370141170000005824214 GENIVAL DAS CHAGAS SILVA      0000000000000000000005092022BRL000000000000000000000000177522PGIT010000009246    050920220000000001775220000000000000000000000000000000000000000            000        
2370001300386B   100063732602249                                                                                          000          000000000177522000000000000000000000000000000000000000000000000000000000000                              
2370001300387A0000002370196740000000445177 ALISON COELHO DE SOUZA        0000000000000000000005092022BRL000000000000000000000000851436PGIT010000009219    050920220000000008514360000000000000000000000000000000000000000            000        
2370001300388B   100096773235634                                                                                          000          000000000851436000000000000000000000000000000000000000000000000000000000000                              
2370001300389A0000002370141170000000198471 PAULO DE OLIVEIRA             0000000000000000000005092022BRL000000000000000000000000217912PGIT010000009220    050920220000000002179120000000000000000000000000000000000000000            000        
2370001300390B   100000670938335                                                                                          000          000000000217912000000000000000000000000000000000000000000000000000000000000                              
2370001300391A0000002370200870000000909238 ANTONIO CARLOS DOS SANTOS OLIV0000000000000000000005092022BRL000000000000000000000000218214PGIT010000009221    050920220000000002182140000000000000000000000000000000000000000            000        
2370001300392B   100054988900282                                                                                          000          000000000218214000000000000000000000000000000000000000000000000000000000000                              
2370001300393A0000002370138890000000420255 JOSAFA DA SILVA RIBEIRO       0000000000000000000005092022BRL000000000000000000000000177715PGIT010000009378    050920220000000001777150000000000000000000000000000000000000000            000        
2370001300394B   100035342242304                                                                                          000          000000000177715000000000000000000000000000000000000000000000000000000000000                              
2370001300395A0000002370021600000000165921 OSMIR LIMA DE SOUZA           0000000000000000000005092022BRL000000000000000000000000763059PGIT010000009379    050920220000000007630590000000000000000000000000000000000000000            000        
2370001300396B   100005092266473                                                                                          000          000000000763059000000000000000000000000000000000000000000000000000000000000                              
2370001300397A0000002370200870000000700401 RONALDO SIQUEIRA DE CARVALHO  0000000000000000000005092022BRL000000000000000000000000358847PGIT010000009222    050920220000000003588470000000000000000000000000000000000000000            000        
2370001300398B   100003424112259                                                                                          000          000000000358847000000000000000000000000000000000000000000000000000000000000                              
2370001300399A0000002370200870000000911593 MILSON JUNIOR BALBINO RODRIGUE0000000000000000000005092022BRL000000000000000000000000219366PGIT010000009223    050920220000000002193660000000000000000000000000000000000000000            000        
2370001300400B   100003267343259                                                                                          000          000000000219366000000000000000000000000000000000000000000000000000000000000                              
2370001300401A0000002370200870000000917257 MARCIVALDO PANTOJA LOBATO     0000000000000000000005092022BRL000000000000000000000000230736PGIT010000009224    050920220000000002307360000000000000000000000000000000000000000            000        
2370001300402B   100080932410278                                                                                          000          000000000230736000000000000000000000000000000000000000000000000000000000000                              
2370001300403A0000002370200870000000837539 RAIMUNDO FARIAS RAMOS         0000000000000000000005092022BRL000000000000000000000000224327PGIT010000009412    050920220000000002243270000000000000000000000000000000000000000            000        
2370001300404B   100000059489243                                                                                          000          000000000224327000000000000000000000000000000000000000000000000000000000000                              
2370001300405A0000002370386360000000028479 JOAO CRUZ DE CARVALHO         0000000000000000000005092022BRL000000000000000000000000556608PGIT010000009413    050920220000000005566080000000000000000000000000000000000000000            000        
2370001300406B   100037969463134                                                                                          000          000000000556608000000000000000000000000000000000000000000000000000000000000                              
2370001300407A0000002370373700000006018890 RENILDO RAMOS FERREIRA        0000000000000000000005092022BRL000000000000000000000000124451PGIT010000009414    050920220000000001244510000000000000000000000000000000000000000            000        
2370001300408B   100061311242309                                                                                          000          000000000124451000000000000000000000000000000000000000000000000000000000000                              
2370001300409A0000002370200870000000992313 LEONILDO MAURICIO TEIXEIRA    0000000000000000000005092022BRL000000000000000000000000245348PGIT010000009415    050920220000000002453480000000000000000000000000000000000000000            000        
2370001300410B   100031694330400                                                                                          000          000000000245348000000000000000000000000000000000000000000000000000000000000                              
2370001300411A0000002370200870000001148877 ALAN HENRIQUE DE MELO SOUSA   0000000000000000000005092022BRL000000000000000000000000044305PGIT010000009531    050920220000000000443050000000000000000000000000000000000000000            000        
2370001300412B   100006034718384                                                                                          000          000000000044305000000000000000000000000000000000000000000000000000000000000                              
