23700000         21718578600016102280               0348430000003175006 CONSTRUTORA BARBOSA MELLO S/A                                         20209202204052500000108001600PROCESSADO                                                           
23700011C3001040 21718578600016102280               0348430000003175006 CONSTRUTORA BARBOSA MELLO S/A                                         AVENIDA PORTUGAL                                  BELO HORIZONTE           000MG        00        
2370001300001A0000002370165860000003445569 ABRAHAO PAULO DE A DAROWISH   0000000000000000000001092022BRL000000000000000000000000056000PGIT010000037910    020920220000000000560000000000000000000000000000000000000000000            000        
2370001300002B   100001308328630                                                                                          000          000000000056000000000000000000000000000000000000000000000000000000000000000                              
2370001300003A0000002370248300000000435457 EDUARDO DE BRITO FURTADO      0000000000000000000001092022BRL000000000000000000000000375142PGIT010000038008    020920220000000003751420000000000000000000000000000000000000000            000        
2370001300004B   100001833225252                                                                                          000          000000000375142000000000000000000000000000000000000000000000000000000000000                              
2370001300005A0000002370040810000000970417 ULISSES SOUZA MARTINS         0000000000000000000001092022BRL000000000000000000000000320392PGIT010000038009    020920220000000003203920000000000000000000000000000000000000000            000        
2370001300006B   100065084136353                                                                                          000          000000000320392000000000000000000000000000000000000000000000000000000000000                              
2370001300007A0000002370141170000000259020 DIONE RODRIGUES BANDEIRA      0000000000000000000001092022BRL000000000000000000000000374142PGIT010000038064    020920220000000003741420000000000000000000000000000000000000000            000        
2370001300008B   100081403747253                                                                                          000          000000000374142000000000000000000000000000000000000000000000000000000000000                              
2370001300009A0000002370141170000000271365 ADELSON RODRIGUES DA COSTA    0000000000000000000001092022BRL000000000000000000000000233164PGIT010000037919    020920220000000002331640000000000000000000000000000000000000000            000        
2370001300010B   100098947893315                                                                                          000          000000000233164000000000000000000000000000000000000000000000000000000000000                              
2370001300011A0000002370303920000000270458 ANTONIO CARLOS SOARES         0000000000000000000001092022BRL000000000000000000000000203378PGIT010000037920    020920220000000002033780000000000000000000000000000000000000000            000        
2370001300012B   100050498347320                                                                                          000          000000000203378000000000000000000000000000000000000000000000000000000000000                              
2370001300013A0000002370200870000006015492 JOSE WILSON DOS SANTOS        0000000000000000000001092022BRL000000000000000000000000303919PGIT010000038041    020920220000000003039190000000000000000000000000000000000000000            000        
2370001300014B   100044946252304                                                                                          000          000000000303919000000000000000000000000000000000000000000000000000000000000                              
2370001300015A0000002370104640000005140382 THIAGO SENA FIGUEREDO         0000000000000000000001092022BRL000000000000000000000000348804PGIT010000038042    020920220000000003488040000000000000000000000000000000000000000            000        
2370001300016B   100060253068347                                                                                          000          000000000348804000000000000000000000000000000000000000000000000000000000000                              
2370001300017A0000002370303920000007400438 LUIZ DE ABREU MOREIRA         0000000000000000000001092022BRL000000000000000000000000108562PGIT010000037921    020920220000000001085620000000000000000000000000000000000000000            000        
2370001300018B   100056520611204                                                                                          000          000000000108562000000000000000000000000000000000000000000000000000000000000                              
2370001300019A0000002370303920000000029335 JANIO RODRIGUES FERREIRA      0000000000000000000001092022BRL000000000000000000000000367004PGIT010000038043    020920220000000003670040000000000000000000000000000000000000000            000        
2370001300020B   100066338247187                                                                                          000          000000000367004000000000000000000000000000000000000000000000000000000000000                              
2370001300021A0000002370081170000000226602 FRANCISCO DOS SANTOS SOUSA    0000000000000000000001092022BRL000000000000000000000000398232PGIT010000038010    020920220000000003982320000000000000000000000000000000000000000            000        
2370001300022B   100001830641190                                                                                          000          000000000398232000000000000000000000000000000000000000000000000000000000000                              
2370001300023A0000002370373700000000043869 JOSE CARLOS LOPES DA SILVA    0000000000000000000001092022BRL000000000000000000000000354805PGIT010000038011    020920220000000003548050000000000000000000000000000000000000000            000        
2370001300024B   100002339748305                                                                                          000          000000000354805000000000000000000000000000000000000000000000000000000000000                              
2370001300025A0000002370142060000005733340 JACICLEIDE QUADROS FERNANDES  0000000000000000000001092022BRL000000000000000000000000470814PGIT010000038012    020920220000000004708140000000000000000000000000000000000000000            000        
2370001300026B   100082687102253                                                                                          000          000000000470814000000000000000000000000000000000000000000000000000000000000                              
2370001300027A0000002370373890000002832763 EZIO ROMANELI JUNIOR          0000000000000000000001092022BRL000000000000000000000000352685PGIT010000038013    020920220000000003526850000000000000000000000000000000000000000            000        
2370001300028B   100001126666122                                                                                          000          000000000352685000000000000000000000000000000000000000000000000000000000000                              
2370001300029A0000002370392500000005004802 PEDRO PAULO RODRIGUES CARDOSO 0000000000000000000001092022BRL000000000000000000000000375227PGIT010000038014    020920220000000003752270000000000000000000000000000000000000000            000        
2370001300030B   100014202298268                                                                                          000          000000000375227000000000000000000000000000000000000000000000000000000000000                              
2370001300031A0000002370303920000007465491 GILDACI SANTOS SILVA          0000000000000000000001092022BRL000000000000000000000000147111PGIT010000037951    020920220000000001471110000000000000000000000000000000000000000            000        
2370001300032B   100000522659276                                                                                          000          000000000147111000000000000000000000000000000000000000000000000000000000000                              
2370001300033A0000002370303920000005501725 VILMAR RODRIGUES DOS SANTOS   0000000000000000000001092022BRL000000000000000000000000336908PGIT010000038074    020920220000000003369080000000000000000000000000000000000000000            000        
2370001300034B   100084156996115                                                                                          000          000000000336908000000000000000000000000000000000000000000000000000000000000                              
2370001300035A0000002370138890000000485055 ANTONIO JOSE PEREIRA DOS SANTO0000000000000000000001092022BRL000000000000000000000000387372PGIT010000038075    020920220000000003873720000000000000000000000000000000000000000            000        
2370001300036B   100023696737372                                                                                          000          000000000387372000000000000000000000000000000000000000000000000000000000000                              
2370001300037A0000002370067930000000160121 RODRIGO MARINHO DA SILVA      0000000000000000000001092022BRL000000000000000000000000413538PGIT010000038076    020920220000000004135380000000000000000000000000000000000000000            000        
2370001300038B   100078942578268                                                                                          000          000000000413538000000000000000000000000000000000000000000000000000000000000                              
2370001300039A0000002370138890000000023841 ELDON CARVALHO PINTO          0000000000000000000001092022BRL000000000000000000000000347392PGIT010000038077    020920220000000003473920000000000000000000000000000000000000000            000        
2370001300040B   100069786666372                                                                                          000          000000000347392000000000000000000000000000000000000000000000000000000000000                              
2370001300041A0000002370569520000000084530 ANGELINO ROZA DE LIMA FILHO   0000000000000000000001092022BRL000000000000000000000000381519PGIT010000038060    020920220000000003815190000000000000000000000000000000000000000            000        
2370001300042B   100060386653313                                                                                          000          000000000381519000000000000000000000000000000000000000000000000000000000000                              
2370001300043A0000002370107740000000236713 ANTONIO ALVES FERREIRA        0000000000000000000001092022BRL000000000000000000000000514791PGIT010000038061    020920220000000005147910000000000000000000000000000000000000000            000        
2370001300044B   100051555700349                                                                                          000          000000000514791000000000000000000000000000000000000000000000000000000000000                              
2370001300045A0000002370303920000000054984 FRANCISCO JUNIOR MEDEIROS CARV0000000000000000000001092022BRL000000000000000000000000467373PGIT010000038062    020920220000000004673730000000000000000000000000000000000000000            000        
2370001300046B   100000492099227                                                                                          000          000000000467373000000000000000000000000000000000000000000000000000000000000                              
2370001300047A0000002370101110000005555094 FRANCISCO DREWIS MEDEIROS DE C0000000000000000000001092022BRL000000000000000000000000502195PGIT010000038063    020920220000000005021950000000000000000000000000000000000000000            000        
2370001300048B   100098907620210                                                                                          000          000000000502195000000000000000000000000000000000000000000000000000000000000                              
2370001300049A0000002370303920000000028215 WELINDIANO PATRICK RODRIGUES D0000000000000000000001092022BRL000000000000000000000000319257PGIT010000038065    020920220000000003192570000000000000000000000000000000000000000            000        
2370001300050B   100001063939283                                                                                          000          000000000319257000000000000000000000000000000000000000000000000000000000000                              
2370001300051A0000002370110610000000189855 NAUDYMAX SANTANA PINTO        0000000000000000000001092022BRL000000000000000000000000323266PGIT010000037988    020920220000000003232660000000000000000000000000000000000000000            000        
2370001300052B   100065818920259                                                                                          000          000000000323266000000000000000000000000000000000000000000000000000000000000                              
2370001300053A0000002370303920000000246166 JUAN FERREIRA SALES DA SILVA  0000000000000000000001092022BRL000000000000000000000000229308PGIT010000038015    020920220000000002293080000000000000000000000000000000000000000            000        
2370001300054B   100070563103205                                                                                          000          000000000229308000000000000000000000000000000000000000000000000000000000000                              
2370001300055A0000002370617600000001647830 RAILTON PEREIRA DA SILVA      0000000000000000000001092022BRL000000000000000000000000328299PGIT010000038016    020920220000000003282990000000000000000000000000000000000000000            000        
2370001300056B   100000832955345                                                                                          000          000000000328299000000000000000000000000000000000000000000000000000000000000                              
2370001300057A0000002370303920000005504856 MARIA DO SOCORRO FARIAS SILVA 0000000000000000000001092022BRL000000000000000000000000167574PGIT010000038017    020920220000000001675740000000000000000000000000000000000000000            000        
2370001300058B   100023545976220                                                                                          000          000000000167574000000000000000000000000000000000000000000000000000000000000                              
2370001300059A0000002370664600000000876631 MILSON BEZERRA SOARES         0000000000000000000001092022BRL000000000000000000000000376117PGIT010000038018    020920220000000003761170000000000000000000000000000000000000000            000        
2370001300060B   100056385420353                                                                                          000          000000000376117000000000000000000000000000000000000000000000000000000000000                              
2370001300061A0000002370386280000001174479 FRANCINILDO CAMPOS LIMA       0000000000000000000001092022BRL000000000000000000000000389494PGIT010000038019    020920220000000003894940000000000000000000000000000000000000000            000        
2370001300062B   100099136023353                                                                                          000          000000000389494000000000000000000000000000000000000000000000000000000000000                              
2370001300063A0000002370303920000000300489 IGOR JOSE PINHEIRO DE SOUZA   0000000000000000000001092022BRL000000000000000000000000188170PGIT010000038078    020920220000000001881700000000000000000000000000000000000000000            000        
2370001300064B   100001409043282                                                                                          000          000000000188170000000000000000000000000000000000000000000000000000000000000                              
2370001300065A0000002370579910000000034509 VAGNER NOLETO RABELO          0000000000000000000001092022BRL000000000000000000000000398223PGIT010000038079    020920220000000003982230000000000000000000000000000000000000000            000        
2370001300066B   100003931553310                                                                                          000          000000000398223000000000000000000000000000000000000000000000000000000000000                              
2370001300067A0000002370303920000000367494 CARLOS EDUARDO DE SOUSA BARBOS0000000000000000000001092022BRL000000000000000000000000159935PGIT010000038080    020920220000000001599350000000000000000000000000000000000000000            000        
2370001300068B   100002373922240                                                                                          000          000000000159935000000000000000000000000000000000000000000000000000000000000                              
2370001300069A0000002370303920000000078018 CLEBSON SANDOVAL DA ROCHA CUNH0000000000000000000001092022BRL000000000000000000000000316764PGIT010000038081    020920220000000003167640000000000000000000000000000000000000000            000        
2370001300070B   100045855030210                                                                                          000          000000000316764000000000000000000000000000000000000000000000000000000000000                              
2370001300071A0000002370559800000000263966 GEDEON PEREIRA LEAL           0000000000000000000001092022BRL000000000000000000000000294788PGIT010000038082    020920220000000002947880000000000000000000000000000000000000000            000        
2370001300072B   100002227097230                                                                                          000          000000000294788000000000000000000000000000000000000000000000000000000000000                              
2370001300073A0000002370261740000000219371 ADAILDO BELFORT SANTOS        0000000000000000000001092022BRL000000000000000000000000336493PGIT010000038020    020920220000000003364930000000000000000000000000000000000000000            000        
2370001300074B   100064534960387                                                                                          000          000000000336493000000000000000000000000000000000000000000000000000000000000                              
2370001300075A0000002370200870000000827541 ZACARIAS MOREIRA ALBERNAS     0000000000000000000001092022BRL000000000000000000000000161966PGIT010000037968    020920220000000001619660000000000000000000000000000000000000000            000        
2370001300076B   100002631914279                                                                                          000          000000000161966000000000000000000000000000000000000000000000000000000000000                              
2370001300077A0000002370200870000000270652 FRANCISCO PEREIRA             0000000000000000000001092022BRL000000000000000000000000229532PGIT010000038093    020920220000000002295320000000000000000000000000000000000000000            000        
2370001300078B   100000010175350                                                                                          000          000000000229532000000000000000000000000000000000000000000000000000000000000                              
2370001300079A0000002370200870000000284807 GEAN CARLOS DOS SANTOS ALENCAR0000000000000000000001092022BRL000000000000000000000000339655PGIT010000038021    020920220000000003396550000000000000000000000000000000000000000            000        
2370001300080B   100040096424249                                                                                          000          000000000339655000000000000000000000000000000000000000000000000000000000000                              
2370001300081A0000002370645050000000028827 ROGERIO ELIAS GOMES           0000000000000000000001092022BRL000000000000000000000000298670PGIT010000038022    020920220000000002986700000000000000000000000000000000000000000            000        
2370001300082B   100062011766249                                                                                          000          000000000298670000000000000000000000000000000000000000000000000000000000000                              
2370001300083A0000002370558670000000178284 LUCINILDO FERREIRA SILVA LEMOS0000000000000000000001092022BRL000000000000000000000000355860PGIT010000038023    020920220000000003558600000000000000000000000000000000000000000            000        
2370001300084B   100060887958249                                                                                          000          000000000355860000000000000000000000000000000000000000000000000000000000000                              
2370001300085A0000002370133400000000100749 EDIVAN DA SILVA MARINHO       0000000000000000000001092022BRL000000000000000000000000341365PGIT010000038024    020920220000000003413650000000000000000000000000000000000000000            000        
2370001300086B   100001034424300                                                                                          000          000000000341365000000000000000000000000000000000000000000000000000000000000                              
2370001300087A0000002370200870000010035147 EVALDO FERREIRA DE OLIVEIRA   0000000000000000000001092022BRL000000000000000000000000333769PGIT010000038025    020920220000000003337690000000000000000000000000000000000000000            000        
2370001300088B   100076078620304                                                                                          000          000000000333769000000000000000000000000000000000000000000000000000000000000                              
2370001300089A0000002370138890000000202819 FRANCIERBETE GOMES DE OLIVEIRA0000000000000000000001092022BRL000000000000000000000000484321PGIT010000038026    020920220000000004843210000000000000000000000000000000000000000            000        
2370001300090B   100069434816220                                                                                          000          000000000484321000000000000000000000000000000000000000000000000000000000000                              
2370001300091A0000002370059400000006014330 EDILSON DA SILVA DIAS         0000000000000000000001092022BRL000000000000000000000000494720PGIT010000038027    020920220000000004947200000000000000000000000000000000000000000            000        
2370001300092B   100071848762291                                                                                          000          000000000494720000000000000000000000000000000000000000000000000000000000000                              
2370001300093A0000002370303920000000025194 GILBERTO CARLOS ROQUE         0000000000000000000001092022BRL000000000000000000000000325745PGIT010000038028    020920220000000003257450000000000000000000000000000000000000000            000        
2370001300094B   100008511955801                                                                                          000          000000000325745000000000000000000000000000000000000000000000000000000000000                              
2370001300095A0000002370373700000001774689 PAULO CESAR SILVA BARBOZA     0000000000000000000001092022BRL000000000000000000000000374298PGIT010000038029    020920220000000003742980000000000000000000000000000000000000000            000        
2370001300096B   100078269652334                                                                                          000          000000000374298000000000000000000000000000000000000000000000000000000000000                              
2370001300097A0000002370194700000000507717 IRONILDO SOUZA DO CARMO       0000000000000000000001092022BRL000000000000000000000000175216PGIT010000037922    020920220000000001752160000000000000000000000000000000000000000            000        
2370001300098B   100042729467220                                                                                          000          000000000175216000000000000000000000000000000000000000000000000000000000000                              
2370001300099A0000002370174340000000441996 PAULO ROBERTO BRITO NASCIMENTO0000000000000000000001092022BRL000000000000000000000000252438PGIT010000037969    020920220000000002524380000000000000000000000000000000000000000            000        
2370001300100B   100057166129204                                                                                          000          000000000252438000000000000000000000000000000000000000000000000000000000000                              
2370001300101A0000002370056810000000193305 CAROLINE ALVES LEONARDO       0000000000000000000001092022BRL000000000000000000000000821288PGIT010000037970    020920220000000008212880000000000000000000000000000000000000000            000        
2370001300102B   100012001338627                                                                                          000          000000000821288000000000000000000000000000000000000000000000000000000000000                              
2370001300103A0000002370200870000001070843 CESAR DA SILVA BEZERRA        0000000000000000000001092022BRL000000000000000000000000474089PGIT010000037971    020920220000000004740890000000000000000000000000000000000000000            000        
2370001300104B   100078741289315                                                                                          000          000000000474089000000000000000000000000000000000000000000000000000000000000                              
2370001300105A0000002370200870000000188670 REGINALDO OLIVEIRA FEITOZA    0000000000000000000001092022BRL000000000000000000000000320267PGIT010000037989    020920220000000003202670000000000000000000000000000000000000000            000        
2370001300106B   100082797951204                                                                                          000          000000000320267000000000000000000000000000000000000000000000000000000000000                              
2370001300107A0000002370097920000000059773 ELSON RIBEIRO FERREIRA        0000000000000000000001092022BRL000000000000000000000000342245PGIT010000037990    020920220000000003422450000000000000000000000000000000000000000            000        
2370001300108B   100047186690220                                                                                          000          000000000342245000000000000000000000000000000000000000000000000000000000000                              
2370001300109A0000002370303920000000289701 MARCILENE PEREIRA DA SILVA    0000000000000000000001092022BRL000000000000000000000000178987PGIT010000037991    020920220000000001789870000000000000000000000000000000000000000            000        
2370001300110B   100089526694287                                                                                          000          000000000178987000000000000000000000000000000000000000000000000000000000000                              
2370001300111A0000002370305200000000097470 ROBSON NASCIMENTO DE MEDEIROS 0000000000000000000001092022BRL000000000000000000000000814787PGIT010000037992    020920220000000008147870000000000000000000000000000000000000000            000        
2370001300112B   100000059727527                                                                                          000          000000000814787000000000000000000000000000000000000000000000000000000000000                              
2370001300113A0000002370303920000005518202 RAFAEL MARTINS DE MOURA       0000000000000000000001092022BRL000000000000000000000000280442PGIT010000037993    020920220000000002804420000000000000000000000000000000000000000            000        
2370001300114B   100054016673291                                                                                          000          000000000280442000000000000000000000000000000000000000000000000000000000000                              
2370001300115A0000002370221870000001478486 FRANCISCO MAURO FERREIRA      0000000000000000000001092022BRL000000000000000000000000371839PGIT010000038050    020920220000000003718390000000000000000000000000000000000000000            000        
2370001300116B   100022287795391                                                                                          000          000000000371839000000000000000000000000000000000000000000000000000000000000                              
2370001300117A0000002370303920000000024449 RAILTON LEITE CUNHA           0000000000000000000001092022BRL000000000000000000000000331942PGIT010000038051    020920220000000003319420000000000000000000000000000000000000000            000        
2370001300118B   100000518132382                                                                                          000          000000000331942000000000000000000000000000000000000000000000000000000000000                              
2370001300119A0000002370303920000005808375 JOSIVALDO DE PAIVA PEREIRA    0000000000000000000001092022BRL000000000000000000000000239800PGIT010000038052    020920220000000002398000000000000000000000000000000000000000000            000        
2370001300120B   100086425129204                                                                                          000          000000000239800000000000000000000000000000000000000000000000000000000000000                              
2370001300121A0000002370693020000000159883 GILVAN PASSOS LOPES           0000000000000000000001092022BRL000000000000000000000000367807PGIT010000038053    020920220000000003678070000000000000000000000000000000000000000            000        
2370001300122B   100000170300560                                                                                          000          000000000367807000000000000000000000000000000000000000000000000000000000000                              
2370001300123A0000002370303920000000385786 RUBERVAL FERREIRA PIMENTEL JUN0000000000000000000001092022BRL000000000000000000000000340777PGIT010000038054    020920220000000003407770000000000000000000000000000000000000000            000        
2370001300124B   100098911775304                                                                                          000          000000000340777000000000000000000000000000000000000000000000000000000000000                              
2370001300125A0000002370370790000000204854 JOZIAS MORAES RIOS            0000000000000000000001092022BRL000000000000000000000000443651PGIT010000038055    020920220000000004436510000000000000000000000000000000000000000            000        
2370001300126B   100056679742234                                                                                          000          000000000443651000000000000000000000000000000000000000000000000000000000000                              
2370001300127A0000002370303920000000048860 OZIEL PEREIRA DOS SANTOS      0000000000000000000001092022BRL000000000000000000000000277711PGIT010000038056    020920220000000002777110000000000000000000000000000000000000000            000        
2370001300128B   100000172296269                                                                                          000          000000000277711000000000000000000000000000000000000000000000000000000000000                              
2370001300129A0000002370386010000002506629 RUDSON MALHARD PEREIRA        0000000000000000000001092022BRL000000000000000000000000222038PGIT010000038094    020920220000000002220380000000000000000000000000000000000000000            000        
2370001300130B   100008801890702                                                                                          000          000000000222038000000000000000000000000000000000000000000000000000000000000                              
2370001300131A0000002370072180000001143620 ANDRE DE CERQUEIRA JACAS      0000000000000000000001092022BRL000000000000000000000000222038PGIT010000038095    020920220000000002220380000000000000000000000000000000000000000            000        
2370001300132B   100099735075334                                                                                          000          000000000222038000000000000000000000000000000000000000000000000000000000000                              
2370001300133A0000002370303920000000310328 JAILSON VIEIRA PINHEIRO       0000000000000000000001092022BRL000000000000000000000000222038PGIT010000038096    020920220000000002220380000000000000000000000000000000000000000            000        
2370001300134B   100004915448398                                                                                          000          000000000222038000000000000000000000000000000000000000000000000000000000000                              
2370001300135A0000002370341500000000338656 ARTHUR FIGUEIREDO SILVA       0000000000000000000001092022BRL000000000000000000000001242901PGIT010000037941    020920220000000012429010000000000000000000000000000000000000000            000        
2370001300136B   100009689633660                                                                                          000          000000001242901000000000000000000000000000000000000000000000000000000000000                              
2370001300137A0000002370241630000000319902 BRUNO NOGUEIRA LODI           0000000000000000000001092022BRL000000000000000000000001206788PGIT010000037942    020920220000000012067880000000000000000000000000000000000000000            000        
2370001300138B   100007636549654                                                                                          000          000000001206788000000000000000000000000000000000000000000000000000000000000                              
2370001300139A0000002370303920000005003067 MARIA VANDA DE B CARVALHO     0000000000000000000001092022BRL000000000000000000000000141996PGIT010000037943    020920220000000001419960000000000000000000000000000000000000000            000        
2370001300140B   100022183876204                                                                                          000          000000000141996000000000000000000000000000000000000000000000000000000000000                              
2370001300141A0000002370303920000000007994 TERTULIANO LUIZ BARBOSA       0000000000000000000001092022BRL000000000000000000000001147429PGIT010000037944    020920220000000011474290000000000000000000000000000000000000000            000        
2370001300142B   100002983471993                                                                                          000          000000001147429000000000000000000000000000000000000000000000000000000000000                              
2370001300143A0000002370200870000005724376 ERALDO MAGNO SILVA LIMA       0000000000000000000001092022BRL000000000000000000000000545967PGIT010000037945    020920220000000005459670000000000000000000000000000000000000000            000        
2370001300144B   100088568350291                                                                                          000          000000000545967000000000000000000000000000000000000000000000000000000000000                              
2370001300145A0000002370303920000000021784 ANDERSON DOS REIS SOUZA       0000000000000000000001092022BRL000000000000000000000001445318PGIT010000037946    020920220000000014453180000000000000000000000000000000000000000            000        
2370001300146B   100071271384272                                                                                          000          000000001445318000000000000000000000000000000000000000000000000000000000000                              
2370001300147A0000002370303920000000040061 OCIVAL BRAGA OLIVEIRA FILHO   0000000000000000000001092022BRL000000000000000000000000363435PGIT010000037947    020920220000000003634350000000000000000000000000000000000000000            000        
2370001300148B   100001167821297                                                                                          000          000000000363435000000000000000000000000000000000000000000000000000000000000                              
2370001300149A0000002370664190000000088765 DAMIAO FERREIRA DE LIMA       0000000000000000000001092022BRL000000000000000000000001334085PGIT010000037948    020920220000000013340850000000000000000000000000000000000000000            000        
2370001300150B   100047724153604                                                                                          000          000000001334085000000000000000000000000000000000000000000000000000000000000                              
2370001300151A0000002370194700000000234486 RIVADAVIA TAVARES DA SILVA PAN0000000000000000000001092022BRL000000000000000000000000308104PGIT010000037985    020920220000000003081040000000000000000000000000000000000000000            000        
2370001300152B   100024782750234                                                                                          000          000000000308104000000000000000000000000000000000000000000000000000000000000                              
2370001300153A0000002370046500000000057231 JONATHAN ANDERSEN ROCHA MOREIR0000000000000000000001092022BRL000000000000000000000000502739PGIT010000037949    020920220000000005027390000000000000000000000000000000000000000            000        
2370001300154B   100011341256669                                                                                          000          000000000502739000000000000000000000000000000000000000000000000000000000000                              
2370001300155A0000002370226670000000046396 KLEBER SANTOS FILHO           0000000000000000000001092022BRL000000000000000000000000501399PGIT010000037950    020920220000000005013990000000000000000000000000000000000000000            000        
2370001300156B   100077177231234                                                                                          000          000000000501399000000000000000000000000000000000000000000000000000000000000                              
2370001300157A0000002370138890000000122785 LUIS HAROLDO BRAGA            0000000000000000000001092022BRL000000000000000000000000415125PGIT010000037976    020920220000000004151250000000000000000000000000000000000000000            000        
2370001300158B   100022187103234                                                                                          000          000000000415125000000000000000000000000000000000000000000000000000000000000                              
2370001300159A0000002370133400000000187399 RAILSON FERREIRA BARROS       0000000000000000000001092022BRL000000000000000000000000200154PGIT010000037997    020920220000000002001540000000000000000000000000000000000000000            000        
2370001300160B   100003374222307                                                                                          000          000000000200154000000000000000000000000000000000000000000000000000000000000                              
2370001300161A0000002370141170000000374032 JEFERSON CUNHA SANTOS         0000000000000000000001092022BRL000000000000000000000000476802PGIT010000037994    020920220000000004768020000000000000000000000000000000000000000            000        
2370001300162B   100099063719272                                                                                          000          000000000476802000000000000000000000000000000000000000000000000000000000000                              
2370001300163A0000002370138890000006530796 GENEZIO JOSE DA SILVA         0000000000000000000001092022BRL000000000000000000000000220617PGIT010000038097    020920220000000002206170000000000000000000000000000000000000000            000        
2370001300164B   100055943870210                                                                                          000          000000000220617000000000000000000000000000000000000000000000000000000000000                              
2370001300165A0000002370200870000000826111 EDINILSON CHAVES SARAIVA      0000000000000000000001092022BRL000000000000000000000000220617PGIT010000038098    020920220000000002206170000000000000000000000000000000000000000            000        
2370001300166B   100073348031249                                                                                          000          000000000220617000000000000000000000000000000000000000000000000000000000000                              
2370001300167A0000002370693020000000172480 JOHN KENNEDY LOPES DOS SANTOS 0000000000000000000001092022BRL000000000000000000000000153971PGIT010000038099    020920220000000001539710000000000000000000000000000000000000000            000        
2370001300168B   100016016571610                                                                                          000          000000000153971000000000000000000000000000000000000000000000000000000000000                              
2370001300169A0000002370107230000000154598 JOSE COSTA DE ANDRADE         0000000000000000000001092022BRL000000000000000000000000223439PGIT010000038100    020920220000000002234390000000000000000000000000000000000000000            000        
2370001300170B   100001314247344                                                                                          000          000000000223439000000000000000000000000000000000000000000000000000000000000                              
2370001300171A0000002370645050000003503577 RAIMUNDO VICENTE FERREIRA     0000000000000000000001092022BRL000000000000000000000000222038PGIT010000038101    020920220000000002220380000000000000000000000000000000000000000            000        
2370001300172B   100002938635125                                                                                          000          000000000222038000000000000000000000000000000000000000000000000000000000000                              
2370001300173A0000002370303920000005602378 WELITON ALVES FRANCO          0000000000000000000001092022BRL000000000000000000000000446301PGIT010000037995    020920220000000004463010000000000000000000000000000000000000000            000        
2370001300174B   100001182619240                                                                                          000          000000000446301000000000000000000000000000000000000000000000000000000000000                              
2370001300175A0000002370040810000005968550 ANTONIO CARLOS DA SILVA       0000000000000000000001092022BRL000000000000000000000000443902PGIT010000037996    020920220000000004439020000000000000000000000000000000000000000            000        
2370001300176B   100084082178368                                                                                          000          000000000443902000000000000000000000000000000000000000000000000000000000000                              
2370001300177A0000002370645050000000029254 NATANAEL CALDAS DE FREITAS    0000000000000000000001092022BRL000000000000000000000000591224PGIT010000037998    020920220000000005912240000000000000000000000000000000000000000            000        
2370001300178B   100048765473272                                                                                          000          000000000591224000000000000000000000000000000000000000000000000000000000000                              
2370001300179A0000002370303920000000025291 JOSE DOS REIS ALMEIDA FILHO   0000000000000000000001092022BRL000000000000000000000000512366PGIT010000037972    020920220000000005123660000000000000000000000000000000000000000            000        
2370001300180B   100076453111349                                                                                          000          000000000512366000000000000000000000000000000000000000000000000000000000000                              
2370001300181A0000002370214660000000137294 MARLON FELISBINO DA SILVA     0000000000000000000001092022BRL000000000000000000000000599168PGIT010000037973    020920220000000005991680000000000000000000000000000000000000000            000        
2370001300182B   100050873938615                                                                                          000          000000000599168000000000000000000000000000000000000000000000000000000000000                              
2370001300183A0000002370279790000000286516 BRUNO REZENDE DUARTE          0000000000000000000001092022BRL000000000000000000000000587692PGIT010000037974    020920220000000005876920000000000000000000000000000000000000000            000        
2370001300184B   100009800749675                                                                                          000          000000000587692000000000000000000000000000000000000000000000000000000000000                              
2370001300185A0000002370141170000000312584 JANISLEIA FERREIRA GOMES NOLET0000000000000000000001092022BRL000000000000000000000000208107PGIT010000037975    020920220000000002081070000000000000000000000000000000000000000            000        
2370001300186B   100002497987270                                                                                          000          000000000208107000000000000000000000000000000000000000000000000000000000000                              
2370001300187A0000002370329130000005407621 VILMAR JOSE CAIXETA           0000000000000000000001092022BRL000000000000000000000000339704PGIT010000038030    020920220000000003397040000000000000000000000000000000000000000            000        
2370001300188B   100061189170191                                                                                          000          000000000339704000000000000000000000000000000000000000000000000000000000000                              
2370001300189A0000002370196740000003505464 ELSON DA COSTA SILVEIRA       0000000000000000000001092022BRL000000000000000000000000468534PGIT010000038031    020920220000000004685340000000000000000000000000000000000000000            000        
2370001300190B   100000754575209                                                                                          000          000000000468534000000000000000000000000000000000000000000000000000000000000                              
2370001300191A0000002370303920000005509653 LICINDO DOS SANTOS FERREIRA   0000000000000000000001092022BRL000000000000000000000000451314PGIT010000038032    020920220000000004513140000000000000000000000000000000000000000            000        
2370001300192B   100065804414291                                                                                          000          000000000451314000000000000000000000000000000000000000000000000000000000000                              
2370001300193A0000002370168610000000115290 JULIO FERREIRA DE SOUZA       0000000000000000000001092022BRL000000000000000000000000482580PGIT010000038033    020920220000000004825800000000000000000000000000000000000000000            000        
2370001300194B   100069271755200                                                                                          000          000000000482580000000000000000000000000000000000000000000000000000000000000                              
2370001300195A0000002370069630000000195162 FRANCISCO DARCIO MATOS ALMEIDA0000000000000000000001092022BRL000000000000000000000000503074PGIT010000037999    020920220000000005030740000000000000000000000000000000000000000            000        
2370001300196B   100005847993307                                                                                          000          000000000503074000000000000000000000000000000000000000000000000000000000000                              
2370001300197A0000002370133400000000068764 REGINALDO FARIAS DE SOUSA LEIT0000000000000000000001092022BRL000000000000000000000000387457PGIT010000038000    020920220000000003874570000000000000000000000000000000000000000            000        
2370001300198B   100066878900344                                                                                          000          000000000387457000000000000000000000000000000000000000000000000000000000000                              
2370001300199A0000002370101110000005534178 ADAILTON DA SILVA SODRE       0000000000000000000001092022BRL000000000000000000000000373975PGIT010000038001    020920220000000003739750000000000000000000000000000000000000000            000        
2370001300200B   100046071385253                                                                                          000          000000000373975000000000000000000000000000000000000000000000000000000000000                              
2370001300201A0000002370067930000000375403 ADENISON SILVA SOUSA          0000000000000000000001092022BRL000000000000000000000000501306PGIT010000038034    020920220000000005013060000000000000000000000000000000000000000            000        
2370001300202B   100085726958268                                                                                          000          000000000501306000000000000000000000000000000000000000000000000000000000000                              
2370001300203A0000002370151480000000154830 WALDOMIRO MARTINS SOBRINHO FIL0000000000000000000001092022BRL000000000000000000000000362009PGIT010000038035    020920220000000003620090000000000000000000000000000000000000000            000        
2370001300204B   100086381130210                                                                                          000          000000000362009000000000000000000000000000000000000000000000000000000000000                              
2370001300205A0000002370559050000000162795 CICERO FRANCISCO COSTA DA SILV0000000000000000000001092022BRL000000000000000000000000355893PGIT010000038036    020920220000000003558930000000000000000000000000000000000000000            000        
2370001300206B   100015959090287                                                                                          000          000000000355893000000000000000000000000000000000000000000000000000000000000                              
2370001300207A0000002370573200000005511003 DELYON SOARES SILVA           0000000000000000000001092022BRL000000000000000000000000219116PGIT010000038037    020920220000000002191160000000000000000000000000000000000000000            000        
2370001300208B   100074367943291                                                                                          000          000000000219116000000000000000000000000000000000000000000000000000000000000                              
2370001300209A0000002370194700000005361834 CARLOS MAGNO SILVA FERREIRA   0000000000000000000001092022BRL000000000000000000000000486840PGIT010000037967    020920220000000004868400000000000000000000000000000000000000000            000        
2370001300210B   100001759715280                                                                                          000          000000000486840000000000000000000000000000000000000000000000000000000000000                              
2370001300211A0000002370101110000007212860 ELIELSON SOUSA DA SILVA       0000000000000000000001092022BRL000000000000000000000000181693PGIT010000038111    020920220000000001816930000000000000000000000000000000000000000            000        
2370001300212B   100092493483200                                                                                          000          000000000181693000000000000000000000000000000000000000000000000000000000000                              
2370001300213A0000002370141170000000106054 ANTONIO MARCONE LIMA MATIAS   0000000000000000000001092022BRL000000000000000000000000173317PGIT010000038112    020920220000000001733170000000000000000000000000000000000000000            000        
2370001300214B   100055797458268                                                                                          000          000000000173317000000000000000000000000000000000000000000000000000000000000                              
2370001300215A0000002370200870000000373591 FABIANO FLORINDO DOS SANTOS   0000000000000000000001092022BRL000000000000000000000000160817PGIT010000038113    020920220000000001608170000000000000000000000000000000000000000            000        
2370001300216B   100067562795215                                                                                          000          000000000160817000000000000000000000000000000000000000000000000000000000000                              
2370001300217A0000002370138890000005357136 LUIZ ALBERTO DA SILVA GONCALVE0000000000000000000001092022BRL000000000000000000000000173317PGIT010000038114    020920220000000001733170000000000000000000000000000000000000000            000        
2370001300218B   100071404481249                                                                                          000          000000000173317000000000000000000000000000000000000000000000000000000000000                              
2370001300219A0000002370375080000005708583 MARCIONES TAVARES DE SOUSA    0000000000000000000001092022BRL000000000000000000000000173317PGIT010000038115    020920220000000001733170000000000000000000000000000000000000000            000        
2370001300220B   100000283737158                                                                                          000          000000000173317000000000000000000000000000000000000000000000000000000000000                              
2370001300221A0000002370200870000005214858 RENER EMATNE DA SILVA         0000000000000000000001092022BRL000000000000000000000000164918PGIT010000038116    020920220000000001649180000000000000000000000000000000000000000            000        
2370001300222B   100002670530613                                                                                          000          000000000164918000000000000000000000000000000000000000000000000000000000000                              
2370001300223A0000002370303920000000276863 MARCELA DO NASCIMENTO CRUZ    0000000000000000000001092022BRL000000000000000000000000113377PGIT010000038117    020920220000000001133770000000000000000000000000000000000000000            000        
2370001300224B   100001666680281                                                                                          000          000000000113377000000000000000000000000000000000000000000000000000000000000                              
2370001300225A0000002370200870000000261971 JORGE DE JESUS DA CRUZ        0000000000000000000001092022BRL000000000000000000000000131389PGIT010000038118    020920220000000001313890000000000000000000000000000000000000000            000        
2370001300226B   100096900881220                                                                                          000          000000000131389000000000000000000000000000000000000000000000000000000000000                              
2370001300227A0000002370200870000005707218 RENATO PEREIRA DA SILVA       0000000000000000000001092022BRL000000000000000000000000097848PGIT010000038119    020920220000000000978480000000000000000000000000000000000000000            000        
2370001300228B   100003030127141                                                                                          000          000000000097848000000000000000000000000000000000000000000000000000000000000                              
2370001300229A0000002370206800000000370363 CLEBER VERA BIZERRA           0000000000000000000001092022BRL000000000000000000000000151138PGIT010000038120    020920220000000001511380000000000000000000000000000000000000000            000        
2370001300230B   100084869321149                                                                                          000          000000000151138000000000000000000000000000000000000000000000000000000000000                              
2370001300231A0000002370138890000006526357 IZAQUEL MENDES DE SANTANA     0000000000000000000001092022BRL000000000000000000000000096151PGIT010000038121    020920220000000000961510000000000000000000000000000000000000000            000        
2370001300232B   100002282667344                                                                                          000          000000000096151000000000000000000000000000000000000000000000000000000000000                              
2370001300233A0000002370200870000000013277 FLAVIO PEREIRA MATOS          0000000000000000000001092022BRL000000000000000000000000106204PGIT010000038122    020920220000000001062040000000000000000000000000000000000000000            000        
2370001300234B   100084092041268                                                                                          000          000000000106204000000000000000000000000000000000000000000000000000000000000                              
2370001300235A0000002370067930000000200727 ERIVELTON DE ARAUJO CARNEIRO  0000000000000000000001092022BRL000000000000000000000000090076PGIT010000038123    020920220000000000900760000000000000000000000000000000000000000            000        
2370001300236B   100040034674268                                                                                          000          000000000090076000000000000000000000000000000000000000000000000000000000000                              
2370001300237A0000002370387170000001459546 PEDRO RAQUIEL FELIPE DOS SANTO0000000000000000000001092022BRL000000000000000000000000383215PGIT010000038044    020920220000000003832150000000000000000000000000000000000000000            000        
2370001300238B   100086065599204                                                                                          000          000000000383215000000000000000000000000000000000000000000000000000000000000                              
2370001300239A0000002370200870000007800592 FABIANO PEREIRA DA SILVA      0000000000000000000001092022BRL000000000000000000000000306808PGIT010000038045    020920220000000003068080000000000000000000000000000000000000000            000        
2370001300240B   100002555726462                                                                                          000          000000000306808000000000000000000000000000000000000000000000000000000000000                              
2370001300241A0000002370559800000000338060 TONI SILVA SOUSA              0000000000000000000001092022BRL000000000000000000000000353930PGIT010000038046    020920220000000003539300000000000000000000000000000000000000000            000        
2370001300242B   100091158877234                                                                                          000          000000000353930000000000000000000000000000000000000000000000000000000000000                              
2370001300243A0000002370303920000006015182 JOSE RICARDO DE MORAIS COSME  0000000000000000000001092022BRL000000000000000000000000297174PGIT010000038047    020920220000000002971740000000000000000000000000000000000000000            000        
2370001300244B   100098400126300                                                                                          000          000000000297174000000000000000000000000000000000000000000000000000000000000                              
2370001300245A0000002370693020000010009715 BRUNO SOUSA DA SILVA          0000000000000000000001092022BRL000000000000000000000000371206PGIT010000038048    020920220000000003712060000000000000000000000000000000000000000            000        
2370001300246B   100003367027367                                                                                          000          000000000371206000000000000000000000000000000000000000000000000000000000000                              
2370001300247A0000002370133400000000078328 RONALDO BEZERRA DE SALES E SIL0000000000000000000001092022BRL000000000000000000000000367069PGIT010000038049    020920220000000003670690000000000000000000000000000000000000000            000        
2370001300248B   100097557676572                                                                                          000          000000000367069000000000000000000000000000000000000000000000000000000000000                              
2370001300249A0000002370386280000004745124 IZAIAS COELHO SOARES          0000000000000000000001092022BRL000000000000000000000000314836PGIT010000038002    020920220000000003148360000000000000000000000000000000000000000            000        
2370001300250B   100088558401268                                                                                          000          000000000314836000000000000000000000000000000000000000000000000000000000000                              
2370001300251A0000002370102430000000067849 JOSUE MOURA SANTOS            0000000000000000000001092022BRL000000000000000000000000258969PGIT010000037923    020920220000000002589690000000000000000000000000000000000000000            000        
2370001300252B   100076000699204                                                                                          000          000000000258969000000000000000000000000000000000000000000000000000000000000                              
2370001300253A0000002370386280000004710037 ANTONIO FRANCISCO DOS SANTOS M0000000000000000000001092022BRL000000000000000000000000578969PGIT010000037927    020920220000000005789690000000000000000000000000000000000000000            000        
2370001300254B   100003554426393                                                                                          000          000000000578969000000000000000000000000000000000000000000000000000000000000                              
2370001300255A0000002370098570000000120472 FRANCISCO WAGNER DE OLIVEIRA S0000000000000000000001092022BRL000000000000000000000000538344PGIT010000037928    020920220000000005383440000000000000000000000000000000000000000            000        
2370001300256B   100000364810335                                                                                          000          000000000538344000000000000000000000000000000000000000000000000000000000000                              
2370001300257A0000002370386280000007174276 FAGNER DOS SANTOS MENDES      0000000000000000000001092022BRL000000000000000000000000423519PGIT010000037929    020920220000000004235190000000000000000000000000000000000000000            000        
2370001300258B   100072537523253                                                                                          000          000000000423519000000000000000000000000000000000000000000000000000000000000                              
2370001300259A0000002370303920000000271314 MICHAEL SILVA CARVALHO        0000000000000000000001092022BRL000000000000000000000000200853PGIT010000037930    020920220000000002008530000000000000000000000000000000000000000            000        
2370001300260B   100001393525385                                                                                          000          000000000200853000000000000000000000000000000000000000000000000000000000000                              
2370001300261A0000002370168610000000402435 VALMIR DA SILVA SOUSA         0000000000000000000001092022BRL000000000000000000000000189488PGIT010000037931    020920220000000001894880000000000000000000000000000000000000000            000        
2370001300262B   100051600005349                                                                                          000          000000000189488000000000000000000000000000000000000000000000000000000000000                              
2370001300263A0000002370182100000006012035 ANTONIO MUNIZ DA CONCEICAO    0000000000000000000001092022BRL000000000000000000000000182829PGIT010000037932    020920220000000001828290000000000000000000000000000000000000000            000        
2370001300264B   100003430993300                                                                                          000          000000000182829000000000000000000000000000000000000000000000000000000000000                              
2370001300265A0000002370541780000000015601 GESLAYNE DE JESUS DE BRITO COE0000000000000000000001092022BRL000000000000000000000000180325PGIT010000037933    020920220000000001803250000000000000000000000000000000000000000            000        
2370001300266B   100006291373319                                                                                          000          000000000180325000000000000000000000000000000000000000000000000000000000000                              
2370001300267A0000002370303920000007462670 MOISES DA SILVA RIBEIRO       0000000000000000000001092022BRL000000000000000000000000145513PGIT010000037934    020920220000000001455130000000000000000000000000000000000000000            000        
2370001300268B   100000576053350                                                                                          000          000000000145513000000000000000000000000000000000000000000000000000000000000                              
2370001300269A0000002370256740000000167649 JOSE BATISTA LIMA ALVES       0000000000000000000001092022BRL000000000000000000000000405538PGIT010000037924    020920220000000004055380000000000000000000000000000000000000000            000        
2370001300270B   100046008845234                                                                                          000          000000000405538000000000000000000000000000000000000000000000000000000000000                              
2370001300271A0000002370200870000005783224 ELIO DE LIRA CONCEICAO        0000000000000000000001092022BRL000000000000000000000000472759PGIT010000037925    020920220000000004727590000000000000000000000000000000000000000            000        
2370001300272B   100036376116272                                                                                          000          000000000472759000000000000000000000000000000000000000000000000000000000000                              
2370001300273A0000002370303920000007462298 WENDEL FONSECA                0000000000000000000001092022BRL000000000000000000000000082839PGIT010000037926    020920220000000000828390000000000000000000000000000000000000000            000        
2370001300274B   100099390442249                                                                                          000          000000000082839000000000000000000000000000000000000000000000000000000000000                              
2370001300275A0000002370078620000000294241 JAILSON CRUZ MENDES           0000000000000000000001092022BRL000000000000000000000000181785PGIT010000037935    020920220000000001817850000000000000000000000000000000000000000            000        
2370001300276B   100061071550314                                                                                          000          000000000181785000000000000000000000000000000000000000000000000000000000000                              
2370001300277A0000002370182280000000131431 TIAGO AMORIM POUILLARD CARNEIR0000000000000000000001092022BRL000000000000000000000000914931PGIT010000037936    020920220000000009149310000000000000000000000000000000000000000            000        
2370001300278B   100000869363522                                                                                          000          000000000914931000000000000000000000000000000000000000000000000000000000000                              
2370001300279A0000002370196740000003515001 WILLAMYS MEDEIROS AMORIM      0000000000000000000001092022BRL000000000000000000000000370343PGIT010000037937    020920220000000003703430000000000000000000000000000000000000000            000        
2370001300280B   100001811007201                                                                                          000          000000000370343000000000000000000000000000000000000000000000000000000000000                              
2370001300281A0000002370320000000000034398 JOSE AMARO FERREIRA           0000000000000000000001092022BRL000000000000000000000000557242PGIT010000037938    020920220000000005572420000000000000000000000000000000000000000            000        
2370001300282B   100064789365972                                                                                          000          000000000557242000000000000000000000000000000000000000000000000000000000000                              
2370001300283A0000002370303920000000157899 CARLOS DANIEL SZADKOSKI       0000000000000000000001092022BRL000000000000000000000001323780PGIT010000037939    020920220000000013237800000000000000000000000000000000000000000            000        
2370001300284B   100093082568149                                                                                          000          000000001323780000000000000000000000000000000000000000000000000000000000000                              
2370001300285A0000002370229930000001310429 MARCO ANTONIO GOMES DA SILVA  0000000000000000000001092022BRL000000000000000000000000691757PGIT010000037940    020920220000000006917570000000000000000000000000000000000000000            000        
2370001300286B   100080424210606                                                                                          000          000000000691757000000000000000000000000000000000000000000000000000000000000                              
2370001300287A0000002370303920000007010583 GILMAR SILVA SOUSA            0000000000000000000001092022BRL000000000000000000000000328630PGIT010000038066    020920220000000003286300000000000000000000000000000000000000000            000        
2370001300288B   100097216968204                                                                                          000          000000000328630000000000000000000000000000000000000000000000000000000000000                              
2370001300289A0000002370198280000005850851 HERBERT CAVALCANTE LEMOS      0000000000000000000001092022BRL000000000000000000000000357260PGIT010000038067    020920220000000003572600000000000000000000000000000000000000000            000        
2370001300290B   100043750915334                                                                                          000          000000000357260000000000000000000000000000000000000000000000000000000000000                              
2370001300291A0000002370303920000007012470 LUCIANO MORETI DE FREITAS     0000000000000000000001092022BRL000000000000000000000000285534PGIT010000038068    020920220000000002855340000000000000000000000000000000000000000            000        
2370001300292B   100062375601149                                                                                          000          000000000285534000000000000000000000000000000000000000000000000000000000000                              
2370001300293A0000002370151480000006004202 FRANCISCO ROGERIO SILVA SOUZA 0000000000000000000001092022BRL000000000000000000000000353638PGIT010000038069    020920220000000003536380000000000000000000000000000000000000000            000        
2370001300294B   100088051501349                                                                                          000          000000000353638000000000000000000000000000000000000000000000000000000000000                              
2370001300295A0000002370303920000000248797 MARCOS DIONES DE SOUZA        0000000000000000000001092022BRL000000000000000000000000334665PGIT010000038070    020920220000000003346650000000000000000000000000000000000000000            000        
2370001300296B   100003742230174                                                                                          000          000000000334665000000000000000000000000000000000000000000000000000000000000                              
2370001300297A0000002370054600000005038359 FABIO SILVA PINHEIRO          0000000000000000000001092022BRL000000000000000000000000299262PGIT010000038071    020920220000000002992620000000000000000000000000000000000000000            000        
2370001300298B   100070609683268                                                                                          000          000000000299262000000000000000000000000000000000000000000000000000000000000                              
2370001300299A0000002370645050000003502430 DIVINO MARCOS DOS SANTOS DA CR0000000000000000000001092022BRL000000000000000000000000387902PGIT010000038072    020920220000000003879020000000000000000000000000000000000000000            000        
2370001300300B   100001201287308                                                                                          000          000000000387902000000000000000000000000000000000000000000000000000000000000                              
2370001300301A0000002370200870000000322911 ANTONIO EMIDIO DE ALENCAR     0000000000000000000001092022BRL000000000000000000000000337585PGIT010000037977    020920220000000003375850000000000000000000000000000000000000000            000        
2370001300302B   100071171169353                                                                                          000          000000000337585000000000000000000000000000000000000000000000000000000000000                              
2370001300303A0000002370046000000000584762 EDVALDO DOS REIS SILVA        0000000000000000000001092022BRL000000000000000000000000391112PGIT010000038073    020920220000000003911120000000000000000000000000000000000000000            000        
2370001300304B   100041339606372                                                                                          000          000000000391112000000000000000000000000000000000000000000000000000000000000                              
2370001300305A0000002370693020000010007488 JOAO RODRIGUES DA SILVA       0000000000000000000001092022BRL000000000000000000000000283048PGIT010000037978    020920220000000002830480000000000000000000000000000000000000000            000        
2370001300306B   100062369423234                                                                                          000          000000000283048000000000000000000000000000000000000000000000000000000000000                              
2370001300307A0000002370303920000000277851 LEANDRO DE SOUSA DOS SANTOS   0000000000000000000001092022BRL000000000000000000000000387157PGIT010000037979    020920220000000003871570000000000000000000000000000000000000000            000        
2370001300308B   100005213593330                                                                                          000          000000000387157000000000000000000000000000000000000000000000000000000000000                              
2370001300309A0000002370303920000000280801 DYEGO FERREIRA DA CONCEICAO   0000000000000000000001092022BRL000000000000000000000000340518PGIT010000037980    020920220000000003405180000000000000000000000000000000000000000            000        
2370001300310B   100006546294206                                                                                          000          000000000340518000000000000000000000000000000000000000000000000000000000000                              
2370001300311A0000002370303920000000047538 JOAO DE SOUSA XIMENDES        0000000000000000000001092022BRL000000000000000000000000051612PGIT010000037981    020920220000000000516120000000000000000000000000000000000000000            000        
2370001300312B   100024815306249                                                                                          000          000000000051612000000000000000000000000000000000000000000000000000000000000                              
2370001300313A0000002370303920000000028959 SILVEIRA DOS SANTOS DE ALMEIDA0000000000000000000001092022BRL000000000000000000000000364744PGIT010000037982    020920220000000003647440000000000000000000000000000000000000000            000        
2370001300314B   100096869658153                                                                                          000          000000000364744000000000000000000000000000000000000000000000000000000000000                              
2370001300315A0000002370217840000000165328 DJANIO DE SOUZA SILVA         0000000000000000000001092022BRL000000000000000000000000428127PGIT010000037983    020920220000000004281270000000000000000000000000000000000000000            000        
2370001300316B   100073124184220                                                                                          000          000000000428127000000000000000000000000000000000000000000000000000000000000                              
2370001300317A0000002370303920000000129771 LILIAN CRISTHIAN REIS DE FIGUE0000000000000000000001092022BRL000000000000000000000000268428PGIT010000037984    020920220000000002684280000000000000000000000000000000000000000            000        
2370001300318B   100003036811281                                                                                          000          000000000268428000000000000000000000000000000000000000000000000000000000000                              
2370001300319A0000002370113630000000060305 JAILSON DE SOUZA COSTA        0000000000000000000001092022BRL000000000000000000000000328125PGIT010000037986    020920220000000003281250000000000000000000000000000000000000000            000        
2370001300320B   100094756511368                                                                                          000          000000000328125000000000000000000000000000000000000000000000000000000000000                              
2370001300321A0000002370303920000006010105 MARCIO XAVIER DA PENHA SANTOS 0000000000000000000001092022BRL000000000000000000000000486808PGIT010000037987    020920220000000004868080000000000000000000000000000000000000000            000        
2370001300322B   100073889180272                                                                                          000          000000000486808000000000000000000000000000000000000000000000000000000000000                              
2370001300323A0000002370573550000000030228 ABRAAO SANTOS DA SILVA        0000000000000000000001092022BRL000000000000000000000000181693PGIT010000038102    020920220000000001816930000000000000000000000000000000000000000            000        
2370001300324B   100002684369240                                                                                          000          000000000181693000000000000000000000000000000000000000000000000000000000000                              
2370001300325A0000002370194700000000423939 ANTONIO FERREIRA DA SILVA COST0000000000000000000001092022BRL000000000000000000000000181693PGIT010000038103    020920220000000001816930000000000000000000000000000000000000000            000        
2370001300326B   100060989467287                                                                                          000          000000000181693000000000000000000000000000000000000000000000000000000000000                              
2370001300327A0000002370215630000000144177 PEDRO LEDILSON SOUSA COSTA    0000000000000000000001092022BRL000000000000000000000000181693PGIT010000038104    020920220000000001816930000000000000000000000000000000000000000            000        
2370001300328B   100047731630200                                                                                          000          000000000181693000000000000000000000000000000000000000000000000000000000000                              
2370001300329A0000002370194700000001102249 DANIL FERREIRA MORAIS         0000000000000000000001092022BRL000000000000000000000000181693PGIT010000038105    020920220000000001816930000000000000000000000000000000000000000            000        
2370001300330B   100073035696268                                                                                          000          000000000181693000000000000000000000000000000000000000000000000000000000000                              
2370001300331A0000002370168610000000519650 ELSON AVELINO COSTA           0000000000000000000001092022BRL000000000000000000000000181693PGIT010000038106    020920220000000001816930000000000000000000000000000000000000000            000        
2370001300332B   100083227172291                                                                                          000          000000000181693000000000000000000000000000000000000000000000000000000000000                              
2370001300333A0000002370373700000006349625 ALAN SILVA SIMAO              0000000000000000000001092022BRL000000000000000000000000353475PGIT010000038107    020920220000000003534750000000000000000000000000000000000000000            000        
2370001300334B   100002824440686                                                                                          000          000000000353475000000000000000000000000000000000000000000000000000000000000                              
2370001300335A0000002370252160000000258539 GUILHERME MAGALHAES MACHADO   0000000000000000000001092022BRL000000000000000000000000208721PGIT010000038108    020920220000000002087210000000000000000000000000000000000000000            000        
2370001300336B   100007455292678                                                                                          000          000000000208721000000000000000000000000000000000000000000000000000000000000                              
2370001300337A0000002370303920000007462530 MARCOS DE FREITAS SILVA       0000000000000000000001092022BRL000000000000000000000000154841PGIT010000038109    020920220000000001548410000000000000000000000000000000000000000            000        
2370001300338B   100098866354287                                                                                          000          000000000154841000000000000000000000000000000000000000000000000000000000000                              
2370001300339A0000002370752640000006581811 ANTONIO MARCOS DA COSTA LIMA  0000000000000000000001092022BRL000000000000000000000000181693PGIT010000038110    020920220000000001816930000000000000000000000000000000000000000            000        
2370001300340B   100057420467234                                                                                          000          000000000181693000000000000000000000000000000000000000000000000000000000000                              
2370001300341A0000002370062030000000465488 FERNANDO GOMES GUEDES         0000000000000000000001092022BRL000000000000000000000000297488PGIT010000038083    020920220000000002974880000000000000000000000000000000000000000            000        
2370001300342B   100000813573203                                                                                          000          000000000297488000000000000000000000000000000000000000000000000000000000000                              
2370001300343A0000002370141170000000159824 DAILSON COIMBRA MELO          0000000000000000000001092022BRL000000000000000000000000407843PGIT010000038084    020920220000000004078430000000000000000000000000000000000000000            000        
2370001300344B   100001414359250                                                                                          000          000000000407843000000000000000000000000000000000000000000000000000000000000                              
2370001300345A0000002370106260000007519079 ROMILDO CORREIA DE ARAUJO     0000000000000000000001092022BRL000000000000000000000000303308PGIT010000038085    020920220000000003033080000000000000000000000000000000000000000            000        
2370001300346B   100081018312315                                                                                          000          000000000303308000000000000000000000000000000000000000000000000000000000000                              
2370001300347A0000002370303920000003501299 WANDESON PARENTE DO NASCIMENTO0000000000000000000001092022BRL000000000000000000000000262263PGIT010000038086    020920220000000002622630000000000000000000000000000000000000000            000        
2370001300348B   100003528694297                                                                                          000          000000000262263000000000000000000000000000000000000000000000000000000000000                              
2370001300349A0000002370303920000007461020 MARIA OLGA GONCALVES DE BRITO 0000000000000000000001092022BRL000000000000000000000000245605PGIT010000038087    020920220000000002456050000000000000000000000000000000000000000            000        
2370001300350B   100051265052204                                                                                          000          000000000245605000000000000000000000000000000000000000000000000000000000000                              
2370001300351A0000002370059400000007351542 WILAMAR LUCENA NOLETO         0000000000000000000001092022BRL000000000000000000000000298294PGIT010000038003    020920220000000002982940000000000000000000000000000000000000000            000        
2370001300352B   100036539430272                                                                                          000          000000000298294000000000000000000000000000000000000000000000000000000000000                              
2370001300353A0000002370303920000000069205 SERGUENICY ALVES DE SOUZA     0000000000000000000001092022BRL000000000000000000000000351859PGIT010000038004    020920220000000003518590000000000000000000000000000000000000000            000        
2370001300354B   100065294823268                                                                                          000          000000000351859000000000000000000000000000000000000000000000000000000000000                              
2370001300355A0000002370223900000000156175 WALDIR TAVARES DA SILVA FO    0000000000000000000001092022BRL000000000000000000000000293352PGIT010000038088    020920220000000002933520000000000000000000000000000000000000000            000        
2370001300356B   100058884343291                                                                                          000          000000000293352000000000000000000000000000000000000000000000000000000000000                              
2370001300357A0000002370638600000000005894 JOSE JOCIE RODRIGUES DOS SANTO0000000000000000000001092022BRL000000000000000000000000233113PGIT010000038089    020920220000000002331130000000000000000000000000000000000000000            000        
2370001300358B   100021361789204                                                                                          000          000000000233113000000000000000000000000000000000000000000000000000000000000                              
2370001300359A0000002370048710000000904732 JOAO BATISTA DE MORAES LAVARED0000000000000000000001092022BRL000000000000000000000000252471PGIT010000038090    020920220000000002524710000000000000000000000000000000000000000            000        
2370001300360B   100030633397253                                                                                          000          000000000252471000000000000000000000000000000000000000000000000000000000000                              
2370001300361A0000002370133400000000162345 PAULO RICARDO LIMA MENDES     0000000000000000000001092022BRL000000000000000000000000219205PGIT010000038091    020920220000000002192050000000000000000000000000000000000000000            000        
2370001300362B   100006883571132                                                                                          000          000000000219205000000000000000000000000000000000000000000000000000000000000                              
2370001300363A0000002370303920000000356131 HERME FERREIRA TELES          0000000000000000000001092022BRL000000000000000000000000238457PGIT010000038092    020920220000000002384570000000000000000000000000000000000000000            000        
2370001300364B   100023461950220                                                                                          000          000000000238457000000000000000000000000000000000000000000000000000000000000                              
2370001300365A0000002370280960000000144665 BRENO DANIEL PINHEIRO AREAS   0000000000000000000001092022BRL000000000000000000000000503663PGIT010000037916    020920220000000005036630000000000000000000000000000000000000000            000        
2370001300366B   100014459173786                                                                                          000          000000000503663000000000000000000000000000000000000000000000000000000000000                              
2370001300367A0000002370168530000000413232 ERNANDO RODRIGUES DOS SANTOS  0000000000000000000001092022BRL000000000000000000000000499171PGIT010000037917    020920220000000004991710000000000000000000000000000000000000000            000        
2370001300368B   100009864986619                                                                                          000          000000000499171000000000000000000000000000000000000000000000000000000000000                              
2370001300369A0000002370138890000000453617 MILTON CEZAR OLIVEIRA         0000000000000000000001092022BRL000000000000000000000000451561PGIT010000037918    020920220000000004515610000000000000000000000000000000000000000            000        
2370001300370B   100089920473634                                                                                          000          000000000451561000000000000000000000000000000000000000000000000000000000000                              
2370001300371A0000002370303920000000149454 GILVANE COSTA SILVA           0000000000000000000001092022BRL000000000000000000000000131125PGIT010000037952    020920220000000001311250000000000000000000000000000000000000000            000        
2370001300372B   100060645015377                                                                                          000          000000000131125000000000000000000000000000000000000000000000000000000000000                              
2370001300373A0000002370303920000000182001 JUNIELSON FERREIRA            0000000000000000000001092022BRL000000000000000000000000332286PGIT010000037953    020920220000000003322860000000000000000000000000000000000000000            000        
2370001300374B   100070013332201                                                                                          000          000000000332286000000000000000000000000000000000000000000000000000000000000                              
2370001300375A0000002370105960000000012653 RODRIGO VILELA MENDONCA       0000000000000000000001092022BRL000000000000000000000002221359PGIT010000037954    020920220000000022213590000000000000000000000000000000000000000            000        
2370001300376B   100077773799687                                                                                          000          000000002221359000000000000000000000000000000000000000000000000000000000000                              
2370001300377A0000002370303920000000086568 NILSON RODRIGUES DA SILVA     0000000000000000000001092022BRL000000000000000000000000246243PGIT010000037955    020920220000000002462430000000000000000000000000000000000000000            000        
2370001300378B   100000941541207                                                                                          000          000000000246243000000000000000000000000000000000000000000000000000000000000                              
2370001300379A0000002370170940000000167363 GILBERTO PINHEIRO             0000000000000000000001092022BRL000000000000000000000001349147PGIT010000037956    020920220000000013491470000000000000000000000000000000000000000            000        
2370001300380B   100057601496600                                                                                          000          000000001349147000000000000000000000000000000000000000000000000000000000000                              
2370001300381A0000002370303920000000075353 LUIS FELIPE ALVES LIMA        0000000000000000000001092022BRL000000000000000000000000072112PGIT010000038124    020920220000000000721120000000000000000000000000000000000000000            000        
2370001300382B   100070100656242                                                                                          000          000000000072112000000000000000000000000000000000000000000000000000000000000                              
2370001300383A0000002370187670000000128694 JUNIO RIBEIRO MELO            0000000000000000000001092022BRL000000000000000000000000072112PGIT010000038125    020920220000000000721120000000000000000000000000000000000000000            000        
2370001300384B   100078214572215                                                                                          000          000000000072112000000000000000000000000000000000000000000000000000000000000                              
2370001300385A0000002370569520000000132233 JOSE CLAUDECY ARAUJO ALMEIDA  0000000000000000000001092022BRL000000000000000000000000073806PGIT010000038126    020920220000000000738060000000000000000000000000000000000000000            000        
2370001300386B   100069437319200                                                                                          000          000000000073806000000000000000000000000000000000000000000000000000000000000                              
2370001300387A0000002370579910000000041165 LOURIVAL COSTA LIMA NETO      0000000000000000000001092022BRL000000000000000000000000506880PGIT010000038038    020920220000000005068800000000000000000000000000000000000000000            000        
2370001300388B   100003988495441                                                                                          000          000000000506880000000000000000000000000000000000000000000000000000000000000                              
2370001300389A0000002370024450000000090069 DEBSON ANDRE SANTOS ARAUJO    0000000000000000000001092022BRL000000000000000000000000293255PGIT010000038039    020920220000000002932550000000000000000000000000000000000000000            000        
2370001300390B   100073609889268                                                                                          000          000000000293255000000000000000000000000000000000000000000000000000000000000                              
2370001300391A0000002370303920000006034373 JOSE WILTON FERREIRA          0000000000000000000001092022BRL000000000000000000000000311704PGIT010000038040    020920220000000003117040000000000000000000000000000000000000000            000        
2370001300392B   100060792636376                                                                                          000          000000000311704000000000000000000000000000000000000000000000000000000000000                              
2370001300393A0000002370039640000000307025 VANIR DE PAULA                0000000000000000000001092022BRL000000000000000000000000750330PGIT010000037913    020920220000000007503300000000000000000000000000000000000000000            000        
2370001300394B   100065183738653                                                                                          000          000000000750330000000000000000000000000000000000000000000000000000000000000                              
2370001300395A0000002370046420000003108163 MACIEL FARIA DE OLIVEIRA      0000000000000000000001092022BRL000000000000000000000000989809PGIT010000037914    020920220000000009898090000000000000000000000000000000000000000            000        
2370001300396B   100058873759653                                                                                          000          000000000989809000000000000000000000000000000000000000000000000000000000000                              
2370001300397A0000002370093690000005504899 DIOGO CESAR T DOS SANTOS      0000000000000000000001092022BRL000000000000000000000000519417PGIT010000037911    020920220000000005194170000000000000000000000000000000000000000            000        
2370001300398B   100010737452609                                                                                          000          000000000519417000000000000000000000000000000000000000000000000000000000000                              
2370001300399A0000002370168530000000239720 ADILSON FERREIRA DE ASSIS     0000000000000000000001092022BRL000000000000000000000000580762PGIT010000037912    020920220000000005807620000000000000000000000000000000000000000            000        
2370001300400B   100004560506639                                                                                          000          000000000580762000000000000000000000000000000000000000000000000000000000000                              
2370001300401A0000002370693020000000085952 SIDNEI LUIZ DOS SANTOS        0000000000000000000001092022BRL000000000000000000000000487624PGIT010000037915    020920220000000004876240000000000000000000000000000000000000000            000        
2370001300402B   100003337473644                                                                                          000          000000000487624000000000000000000000000000000000000000000000000000000000000                              
2370001300403A0000002370573200000000081027 ERIC WEYNER DOURADO OLIVEIRA  0000000000000000000001092022BRL000000000000000000000000342048PGIT010000038057    020920220000000003420480000000000000000000000000000000000000000            000        
2370001300404B   100000613085280                                                                                          000          000000000342048000000000000000000000000000000000000000000000000000000000000                              
2370001300405A0000002370200870000005716950 ENIELSON COSTA CAMPOS         0000000000000000000001092022BRL000000000000000000000000385662PGIT010000038058    020920220000000003856620000000000000000000000000000000000000000            000        
2370001300406B   100004935351365                                                                                          000          000000000385662000000000000000000000000000000000000000000000000000000000000                              
2370001300407A0000002370303920000000022519 JANDER RODRIGUES ALVES        0000000000000000000001092022BRL000000000000000000000000470404PGIT010000038059    020920220000000004704040000000000000000000000000000000000000000            000        
2370001300408B   100090621816272                                                                                          000          000000000470404000000000000000000000000000000000000000000000000000000000000                              
2370001300409A0000002370248300000003508161 MARCOS VINICIUS DE SALLES     0000000000000000000001092022BRL000000000000000000000000333759PGIT010000037957    020920220000000003337590000000000000000000000000000000000000000            000        
2370001300410B   100011734575697                                                                                          000          000000000333759000000000000000000000000000000000000000000000000000000000000                              
2370001300411A0000002370303920000005503728 BALTAZAR COSME DA SILVA       0000000000000000000001092022BRL000000000000000000000000474275PGIT010000037958    020920220000000004742750000000000000000000000000000000000000000            000        
2370001300412B   100042143373368                                                                                          000          000000000474275000000000000000000000000000000000000000000000000000000000000                              
