23700000         21718578600016102280               0348430000003175006 CONSTRUTORA BARBOSA MELLO S/A                                         20508202204061600000108001600PROCESSADO                                                           
23700011C3001040 21718578600016102280               0348430000003175006 CONSTRUTORA BARBOSA MELLO S/A                                         AVENIDA PORTUGAL                                  BELO HORIZONTE           000MG        00        
2370001300001A0000002370293860000000062073 CLEUJAQUES GOMES DA SILVA     0000000000000000000004082022BRL000000000000000000000000366465PGIT010000036527    050820220000000003664650000000000000000000000000000000000000000            000        
2370001300002B   100082689814668                                                                                          000          000000000366465000000000000000000000000000000000000000000000000000000000000                              
2370001300003A0000002370141170000000311561 LEDILSON RUBEM FARIAS FREITAS 0000000000000000000004082022BRL000000000000000000000000196265PGIT010000037642    050820220000000001962650000000000000000000000000000000000000000            000        
2370001300004B   100001559115203                                                                                          000          000000000196265000000000000000000000000000000000000000000000000000000000000                              
2370001300005A0000002370200870000000977942 ANDRE SATIRO DOS SANTOS NUNES 0000000000000000000004082022BRL000000000000000000000000141700PGIT010000037745    050820220000000001417000000000000000000000000000000000000000000            000        
2370001300006B   100070444729232                                                                                          000          000000000141700000000000000000000000000000000000000000000000000000000000000                              
2370001300007A0000002370196740000000532584 IGOR GOMES DE LIMA            0000000000000000000004082022BRL000000000000000000000000143289PGIT010000036879    050820220000000001432890000000000000000000000000000000000000000            000        
2370001300008B   100011217730605                                                                                          000          000000000143289000000000000000000000000000000000000000000000000000000000000                              
2370001300009A0000002370196740000000436798 AMANDA PAULA E SILVA          0000000000000000000004082022BRL000000000000000000000000332422PGIT010000036880    050820220000000003324220000000000000000000000000000000000000000            000        
2370001300010B   100005872035608                                                                                          000          000000000332422000000000000000000000000000000000000000000000000000000000000                              
2370001300011A0000002370387170000006242367 FABIANA FERNANDES GOMES       0000000000000000000004082022BRL000000000000000000000000150281PGIT010000036881    050820220000000001502810000000000000000000000000000000000000000            000        
2370001300012B   100012404425641                                                                                          000          000000000150281000000000000000000000000000000000000000000000000000000000000                              
2370001300013A0000002370104640000005120802 DEUZANILDO BENICIO DO NASCIMEN0000000000000000000004082022BRL000000000000000000000000306825PGIT010000037652    050820220000000003068250000000000000000000000000000000000000000            000        
2370001300014B   100096036737300                                                                                          000          000000000306825000000000000000000000000000000000000000000000000000000000000                              
2370001300015A0000002370200870000000825956 SILVESTRE VIEIRA NUNES        0000000000000000000004082022BRL000000000000000000000000404307PGIT010000037746    050820220000000004043070000000000000000000000000000000000000000            000        
2370001300016B   100025009940230                                                                                          000          000000000404307000000000000000000000000000000000000000000000000000000000000                              
2370001300017A0000002370693020000000124400 JORGE LUIS PINHEIRO PAVAO     0000000000000000000004082022BRL000000000000000000000000289075PGIT010000036882    050820220000000002890750000000000000000000000000000000000000000            000        
2370001300018B   100028052196353                                                                                          000          000000000289075000000000000000000000000000000000000000000000000000000000000                              
2370001300019A0000002370186190000000180262 ODINEI AMORIM PEREIRA         0000000000000000000004082022BRL000000000000000000000000210593PGIT010000036883    050820220000000002105930000000000000000000000000000000000000000            000        
2370001300020B   100051372282653                                                                                          000          000000000210593000000000000000000000000000000000000000000000000000000000000                              
2370001300021A0000002370386280000006654096 DOMINGOS PORTILHO DA CRUZ     0000000000000000000004082022BRL000000000000000000000000168418PGIT010000037729    050820220000000001684180000000000000000000000000000000000000000            000        
2370001300022B   100079466125249                                                                                          000          000000000168418000000000000000000000000000000000000000000000000000000000000                              
2370001300023A0000002370046420000003863379 MARIA REGINA MARTINS BREY GIL 0000000000000000000004082022BRL000000000000000000000001051807PGIT010000036685    050820220000000010518070000000000000000000000000000000000000000            000        
2370001300024B   100056028318604                                                                                          000          000000001051807000000000000000000000000000000000000000000000000000000000000                              
2370001300025A0000002370359040000000932337 WELLINGTON GOMES PEDRA        0000000000000000000004082022BRL000000000000000000000002350682PGIT010000037585    050820220000000023506820000000000000000000000000000000000000000            000        
2370001300026B   100066141494668                                                                                          000          000000002350682000000000000000000000000000000000000000000000000000000000000                              
2370001300027A0000002370223490000000231576 MONICA MARIA DA SILVA         0000000000000000000004082022BRL000000000000000000000000487720PGIT010000037586    050820220000000004877200000000000000000000000000000000000000000            000        
2370001300028B   100052045390187                                                                                          000          000000000487720000000000000000000000000000000000000000000000000000000000000                              
2370001300029A0000002370272940000000154156 JURACI MOREIRA DA SILVA       0000000000000000000004082022BRL000000000000000000000000291622PGIT010000036528    050820220000000002916220000000000000000000000000000000000000000            000        
2370001300030B   100021957738634                                                                                          000          000000000291622000000000000000000000000000000000000000000000000000000000000                              
2370001300031A0000002370303920000000016772 FULVIO COSTA FREITAS          0000000000000000000004082022BRL000000000000000000000001071595PGIT010000037653    050820220000000010715950000000000000000000000000000000000000000            000        
2370001300032B   100057543488272                                                                                          000          000000001071595000000000000000000000000000000000000000000000000000000000000                              
2370001300033A0000002370390200000000074535 GUSTAVO CASSIANO DOS SANTOS   0000000000000000000004082022BRL000000000000000000000000392310PGIT010000037654    050820220000000003923100000000000000000000000000000000000000000            000        
2370001300034B   100001013707508                                                                                          000          000000000392310000000000000000000000000000000000000000000000000000000000000                              
2370001300035A0000002370200870000010018978 MARIA ANTONIA GOMES FERREIRA  0000000000000000000004082022BRL000000000000000000000000092118PGIT010000037655    050820220000000000921180000000000000000000000000000000000000000            000        
2370001300036B   100086687026291                                                                                          000          000000000092118000000000000000000000000000000000000000000000000000000000000                              
2370001300037A0000002370190110000000414603 AMIRALDO SOARES DE OLIVEIRA JU0000000000000000000004082022BRL000000000000000000000000344437PGIT010000037656    050820220000000003444370000000000000000000000000000000000000000            000        
2370001300038B   100001542058694                                                                                          000          000000000344437000000000000000000000000000000000000000000000000000000000000                              
2370001300039A0000002370303920000000022519 JANDER RODRIGUES ALVES        0000000000000000000004082022BRL000000000000000000000000412677PGIT010000037561    050820220000000004126770000000000000000000000000000000000000000            000        
2370001300040B   100090621816272                                                                                          000          000000000412677000000000000000000000000000000000000000000000000000000000000                              
2370001300041A0000002370569520000000084530 ANGELINO ROZA DE LIMA FILHO   0000000000000000000004082022BRL000000000000000000000000274217PGIT010000037562    050820220000000002742170000000000000000000000000000000000000000            000        
2370001300042B   100060386653313                                                                                          000          000000000274217000000000000000000000000000000000000000000000000000000000000                              
2370001300043A0000002370107740000000236713 ANTONIO ALVES FERREIRA        0000000000000000000004082022BRL000000000000000000000000389411PGIT010000037563    050820220000000003894110000000000000000000000000000000000000000            000        
2370001300044B   100051555700349                                                                                          000          000000000389411000000000000000000000000000000000000000000000000000000000000                              
2370001300045A0000002370303920000000054984 FRANCISCO JUNIOR MEDEIROS CARV0000000000000000000004082022BRL000000000000000000000000384242PGIT010000037564    050820220000000003842420000000000000000000000000000000000000000            000        
2370001300046B   100000492099227                                                                                          000          000000000384242000000000000000000000000000000000000000000000000000000000000                              
2370001300047A0000002370101110000005555094 FRANCISCO DREWIS MEDEIROS DE C0000000000000000000004082022BRL000000000000000000000000391732PGIT010000037565    050820220000000003917320000000000000000000000000000000000000000            000        
2370001300048B   100098907620210                                                                                          000          000000000391732000000000000000000000000000000000000000000000000000000000000                              
2370001300049A0000002370046770000000278025 ANDRE LUIZ ROSA DOS SANTOS    0000000000000000000004082022BRL000000000000000000000000108654PGIT010000036914    050820220000000001086540000000000000000000000000000000000000000            000        
2370001300050B   100017669044675                                                                                          000          000000000108654000000000000000000000000000000000000000000000000000000000000                              
2370001300051A0000002370183500000000120200 MARIO LUCIO GOMES             0000000000000000000004082022BRL000000000000000000000000208246PGIT010000036915    050820220000000002082460000000000000000000000000000000000000000            000        
2370001300052B   100058120165691                                                                                          000          000000000208246000000000000000000000000000000000000000000000000000000000000                              
2370001300053A0000002370101110000000378704 ERENILDO DAMIAO DA SILVA      0000000000000000000004082022BRL000000000000000000000000148360PGIT010000037643    050820220000000001483600000000000000000000000000000000000000000            000        
2370001300054B   100091173175253                                                                                          000          000000000148360000000000000000000000000000000000000000000000000000000000000                              
2370001300055A0000002370200870000000913510 RAIANE SANTOS CARVALHO        0000000000000000000004082022BRL000000000000000000000000127386PGIT010000037644    050820220000000001273860000000000000000000000000000000000000000            000        
2370001300056B   100003827317274                                                                                          000          000000000127386000000000000000000000000000000000000000000000000000000000000                              
2370001300057A0000002370138890000000496286 DANIEL BEZERRA DA SILVA       0000000000000000000004082022BRL000000000000000000000000130142PGIT010000037645    050820220000000001301420000000000000000000000000000000000000000            000        
2370001300058B   100002697910271                                                                                          000          000000000130142000000000000000000000000000000000000000000000000000000000000                              
2370001300059A0000002370200870000000909270 JURANDIR SILVA PORTELA        0000000000000000000004082022BRL000000000000000000000000111183PGIT010000037646    050820220000000001111830000000000000000000000000000000000000000            000        
2370001300060B   100062716328234                                                                                          000          000000000111183000000000000000000000000000000000000000000000000000000000000                              
2370001300061A0000002370200870000000921033 FRANCISCO GILDASIO DA SILVA   0000000000000000000004082022BRL000000000000000000000000087410PGIT010000037647    050820220000000000874100000000000000000000000000000000000000000            000        
2370001300062B   100000662873246                                                                                          000          000000000087410000000000000000000000000000000000000000000000000000000000000                              
2370001300063A0000002370573550000000037664 JACIRLEI MELO DE BRITO        0000000000000000000004082022BRL000000000000000000000000325868PGIT010000037648    050820220000000003258680000000000000000000000000000000000000000            000        
2370001300064B   100066149207234                                                                                          000          000000000325868000000000000000000000000000000000000000000000000000000000000                              
2370001300065A0000002370200870000000850578 DAYANNE KELLY PAIS SOUSA      0000000000000000000004082022BRL000000000000000000000000294512PGIT010000037649    050820220000000002945120000000000000000000000000000000000000000            000        
2370001300066B   100002732608394                                                                                          000          000000000294512000000000000000000000000000000000000000000000000000000000000                              
2370001300067A0000002370752640000002787601 FELIPE SILVA NASCIMENTO       0000000000000000000004082022BRL000000000000000000000000389523PGIT010000037650    050820220000000003895230000000000000000000000000000000000000000            000        
2370001300068B   100001478560274                                                                                          000          000000000389523000000000000000000000000000000000000000000000000000000000000                              
2370001300069A0000002370386010000005532043 VINICIU CAMPOS DOS SANTOS     0000000000000000000004082022BRL000000000000000000000000141791PGIT010000037651    050820220000000001417910000000000000000000000000000000000000000            000        
2370001300070B   100005961208265                                                                                          000          000000000141791000000000000000000000000000000000000000000000000000000000000                              
2370001300071A0000002370146300000000762911 KARINE FERNANDES LISBOA       0000000000000000000004082022BRL000000000000000000000000130000PGIT010000036633    050820220000000001300000000000000000000000000000000000000000000            000        
2370001300072B   100014809166686                                                                                          000          000000000130000000000000000000000000000000000000000000000000000000000000000                              
2370001300073A0000002370046260000000917710 ELISANGELA EIDE DA SILVA SANTO0000000000000000000004082022BRL000000000000000000000000283306PGIT010000036634    050820220000000002833060000000000000000000000000000000000000000            000        
2370001300074B   100004679945605                                                                                          000          000000000283306000000000000000000000000000000000000000000000000000000000000                              
2370001300075A0000002370146300000001006495 BRUNA ROSA DE PAULA           0000000000000000000004082022BRL000000000000000000000000130000PGIT010000036635    050820220000000001300000000000000000000000000000000000000000000            000        
2370001300076B   100014899579608                                                                                          000          000000000130000000000000000000000000000000000000000000000000000000000000000                              
2370001300077A0000002370226830000003649229 ALEX DA COSTA LIMA            0000000000000000000004082022BRL000000000000000000000000290590PGIT010000036636    050820220000000002905900000000000000000000000000000000000000000            000        
2370001300078B   100009782924644                                                                                          000          000000000290590000000000000000000000000000000000000000000000000000000000000                              
2370001300079A0000002370124670000000272019 HENRIQUE NICOLAS DOS SANTOS PE0000000000000000000004082022BRL000000000000000000000000724516PGIT010000036569    050820220000000007245160000000000000000000000000000000000000000            000        
2370001300080B   100001821820614                                                                                          000          000000000724516000000000000000000000000000000000000000000000000000000000000                              
2370001300081A0000002370124670000000273201 MATEUS CAMPOS GUIMARAES       0000000000000000000004082022BRL000000000000000000000000310453PGIT010000036570    050820220000000003104530000000000000000000000000000000000000000            000        
2370001300082B   100008965069670                                                                                          000          000000000310453000000000000000000000000000000000000000000000000000000000000                              
2370001300083A0000002370241630000000089230 GABRIEL AUGUSTO ARAUJO MIRANDA0000000000000000000004082022BRL000000000000000000000000079495PGIT010000036571    050820220000000000794950000000000000000000000000000000000000000            000        
2370001300084B   100015535291625                                                                                          000          000000000079495000000000000000000000000000000000000000000000000000000000000                              
2370001300085A0000002370200870000000954217 KELDSON JORGE DINIZ           0000000000000000000004082022BRL000000000000000000000000273567PGIT010000037673    050820220000000002735670000000000000000000000000000000000000000            000        
2370001300086B   100079976557353                                                                                          000          000000000273567000000000000000000000000000000000000000000000000000000000000                              
2370001300087A0000002370200870000000746169 FRANCISCO CHAGA RODRIGUES ROCH0000000000000000000004082022BRL000000000000000000000000169418PGIT010000037674    050820220000000001694180000000000000000000000000000000000000000            000        
2370001300088B   100070259046272                                                                                          000          000000000169418000000000000000000000000000000000000000000000000000000000000                              
2370001300089A0000002370138890000000299464 JOSE REINALDO DE ARAUJO       0000000000000000000004082022BRL000000000000000000000000128953PGIT010000037675    050820220000000001289530000000000000000000000000000000000000000            000        
2370001300090B   100060820446220                                                                                          000          000000000128953000000000000000000000000000000000000000000000000000000000000                              
2370001300091A0000002370617600000003044009 ANTONIO MIKAEL AGUIAR DE SOUSA0000000000000000000004082022BRL000000000000000000000000052141PGIT010000037676    050820220000000000521410000000000000000000000000000000000000000            000        
2370001300092B   100062055931300                                                                                          000          000000000052141000000000000000000000000000000000000000000000000000000000000                              
2370001300093A0000002370579910000000193860 MARIA DA CRUZ CARVALHO SANTOS 0000000000000000000004082022BRL000000000000000000000000506965PGIT010000037677    050820220000000005069650000000000000000000000000000000000000000            000        
2370001300094B   100078433053353                                                                                          000          000000000506965000000000000000000000000000000000000000000000000000000000000                              
2370001300095A0000002370252080000000451479 VITORIA CATHARINE DAS DORES AL0000000000000000000004082022BRL000000000000000000000000106847PGIT010000036572    050820220000000001068470000000000000000000000000000000000000000            000        
2370001300096B   100002260666655                                                                                          000          000000000106847000000000000000000000000000000000000000000000000000000000000                              
2370001300097A0000002370124670000000274801 BRUNO RODRIGUES LOMEU         0000000000000000000004082022BRL000000000000000000000000358035PGIT010000036573    050820220000000003580350000000000000000000000000000000000000000            000        
2370001300098B   100003222680604                                                                                          000          000000000358035000000000000000000000000000000000000000000000000000000000000                              
2370001300099A0000002370303920000005808375 JOSIVALDO DE PAIVA PEREIRA    0000000000000000000004082022BRL000000000000000000000000230830PGIT010000037554    050820220000000002308300000000000000000000000000000000000000000            000        
2370001300100B   100086425129204                                                                                          000          000000000230830000000000000000000000000000000000000000000000000000000000000                              
2370001300101A0000002370186190000000233625 MILTON APARECIDO FERREIRA     0000000000000000000004082022BRL000000000000000000000000267454PGIT010000037082    050820220000000002674540000000000000000000000000000000000000000            000        
2370001300102B   100009669498627                                                                                          000          000000000267454000000000000000000000000000000000000000000000000000000000000                              
2370001300103A0000002370196740000003511197 MARCIO RONIELLE DE SOUSA CAETA0000000000000000000004082022BRL000000000000000000000000218424PGIT010000037115    050820220000000002184240000000000000000000000000000000000000000            000        
2370001300104B   100004505311392                                                                                          000          000000000218424000000000000000000000000000000000000000000000000000000000000                              
2370001300105A0000002370306430000000431877 JOAO PAULO SALES DOS SANTOS   0000000000000000000004082022BRL000000000000000000000000427046PGIT010000037116    050820220000000004270460000000000000000000000000000000000000000            000        
2370001300106B   100089191137500                                                                                          000          000000000427046000000000000000000000000000000000000000000000000000000000000                              
2370001300107A0000002370185030000000114367 DORIVAL LUIZ JUNIOR           0000000000000000000004082022BRL000000000000000000000001385026PGIT010000036808    050820220000000013850260000000000000000000000000000000000000000            000        
2370001300108B   100030951516833                                                                                          000          000000001385026000000000000000000000000000000000000000000000000000000000000                              
2370001300109A0000002370196740000000001848 NILTON RIBEIRO BRAGA          0000000000000000000004082022BRL000000000000000000000000321463PGIT010000036809    050820220000000003214630000000000000000000000000000000000000000            000        
2370001300110B   100025362550349                                                                                          000          000000000321463000000000000000000000000000000000000000000000000000000000000                              
2370001300111A0000002370248300000000394521 GIDINALDO ARAUJO DOS SANTOS   0000000000000000000004082022BRL000000000000000000000000238651PGIT010000037108    050820220000000002386510000000000000000000000000000000000000000            000        
2370001300112B   100082472408587                                                                                          000          000000000238651000000000000000000000000000000000000000000000000000000000000                              
2370001300113A0000002370156600000006802206 ROBERTO LOURENCO              0000000000000000000004082022BRL000000000000000000000000384108PGIT010000037109    050820220000000003841080000000000000000000000000000000000000000            000        
2370001300114B   100093910037615                                                                                          000          000000000384108000000000000000000000000000000000000000000000000000000000000                              
2370001300115A0000002370373700000005412064 SEVERINO JOAO DA SILVA JUNIOR 0000000000000000000004082022BRL000000000000000000000000442861PGIT010000037110    050820220000000004428610000000000000000000000000000000000000000            000        
2370001300116B   100008857307476                                                                                          000          000000000442861000000000000000000000000000000000000000000000000000000000000                              
2370001300117A0000002370154820000000526223 WELBERT JOSE SOUZA DE SOUSA   0000000000000000000004082022BRL000000000000000000000000225840PGIT010000037111    050820220000000002258400000000000000000000000000000000000000000            000        
2370001300118B   100065834313272                                                                                          000          000000000225840000000000000000000000000000000000000000000000000000000000000                              
2370001300119A0000002370693020000000080454 WAGNER CARLOS DA SILVA        0000000000000000000004082022BRL000000000000000000000000343042PGIT010000036793    050820220000000003430420000000000000000000000000000000000000000            000        
2370001300120B   100010202764443                                                                                          000          000000000343042000000000000000000000000000000000000000000000000000000000000                              
2370001300121A0000002370114280000010009332 ELIAS CARVALHO SANTOS         0000000000000000000004082022BRL000000000000000000000000176809PGIT010000037752    050820220000000001768090000000000000000000000000000000000000000            000        
2370001300122B   100074769405391                                                                                          000          000000000176809000000000000000000000000000000000000000000000000000000000000                              
2370001300123A0000002370078620000000352152 JADSON RIBEIRO RAMOS          0000000000000000000004082022BRL000000000000000000000000095727PGIT010000036921    050820220000000000957270000000000000000000000000000000000000000            000        
2370001300124B   100092767702320                                                                                          000          000000000095727000000000000000000000000000000000000000000000000000000000000                              
2370001300125A0000002370761550000006672582 THIAGO AUGUSTO DE OLIVEIRA    0000000000000000000004082022BRL000000000000000000000000099427PGIT010000036922    050820220000000000994270000000000000000000000000000000000000000            000        
2370001300126B   100009047550617                                                                                          000          000000000099427000000000000000000000000000000000000000000000000000000000000                              
2370001300127A0000002370141170000000018821 ANTONIO MARCOS GOMES DE ARAUJO0000000000000000000004082022BRL000000000000000000000000177284PGIT010000037660    050820220000000001772840000000000000000000000000000000000000000            000        
2370001300128B   100087188350310                                                                                          000          000000000177284000000000000000000000000000000000000000000000000000000000000                              
2370001300129A0000002370168530000000541451 CARLOS AUGUSTO ROCHA LINHARES 0000000000000000000004082022BRL000000000000000000000000517012PGIT010000037661    050820220000000005170120000000000000000000000000000000000000000            000        
2370001300130B   100010016105630                                                                                          000          000000000517012000000000000000000000000000000000000000000000000000000000000                              
2370001300131A0000002370574010000000164267 RAYANE CRISTINE TELES MACIEL  0000000000000000000004082022BRL000000000000000000000000320217PGIT010000037662    050820220000000003202170000000000000000000000000000000000000000            000        
2370001300132B   100054323932200                                                                                          000          000000000320217000000000000000000000000000000000000000000000000000000000000                              
2370001300133A0000002370141170000000179183 DONILSON DA SILVA FERREIRA    0000000000000000000004082022BRL000000000000000000000000110112PGIT010000037687    050820220000000001101120000000000000000000000000000000000000000            000        
2370001300134B   100000296990299                                                                                          000          000000000110112000000000000000000000000000000000000000000000000000000000000                              
2370001300135A0000002370054600000005338972 VALDIVINO MARTINS JORGE       0000000000000000000004082022BRL000000000000000000000000296650PGIT010000037663    050820220000000002966500000000000000000000000000000000000000000            000        
2370001300136B   100069697027234                                                                                          000          000000000296650000000000000000000000000000000000000000000000000000000000000                              
2370001300137A0000002370138890000000171425 VALDEMIR RIBEIRO              0000000000000000000004082022BRL000000000000000000000000264763PGIT010000037664    050820220000000002647630000000000000000000000000000000000000000            000        
2370001300138B   100065501764253                                                                                          000          000000000264763000000000000000000000000000000000000000000000000000000000000                              
2370001300139A0000002370138890000006502245 JOSE ROBERTO TENORIO DE LIMA  0000000000000000000004082022BRL000000000000000000000000384231PGIT010000037665    050820220000000003842310000000000000000000000000000000000000000            000        
2370001300140B   100033044171253                                                                                          000          000000000384231000000000000000000000000000000000000000000000000000000000000                              
2370001300141A0000002370079190000000180521 JOSEANE RODRIGUES DA SILVA    0000000000000000000004082022BRL000000000000000000000000125615PGIT010000037666    050820220000000001256150000000000000000000000000000000000000000            000        
2370001300142B   100005116150356                                                                                          000          000000000125615000000000000000000000000000000000000000000000000000000000000                              
2370001300143A0000002370313800000000621064 ANA PAULA MOURA DE NUNES      0000000000000000000004082022BRL000000000000000000000000776375PGIT010000037667    050820220000000007763750000000000000000000000000000000000000000            000        
2370001300144B   100005792979693                                                                                          000          000000000776375000000000000000000000000000000000000000000000000000000000000                              
2370001300145A0000002370141170000000445525 JOSE MAURO DA SILVA SOUZA     0000000000000000000004082022BRL000000000000000000000000299090PGIT010000037776    050820220000000002990900000000000000000000000000000000000000000            000        
2370001300146B   100099960397300                                                                                          000          000000000299090000000000000000000000000000000000000000000000000000000000000                              
2370001300147A0000002370200870000000913162 ANTONIO CARLOS VIEIRA DO NASCI0000000000000000000004082022BRL000000000000000000000000236186PGIT010000037633    050820220000000002361860000000000000000000000000000000000000000            000        
2370001300148B   100072068051320                                                                                          000          000000000236186000000000000000000000000000000000000000000000000000000000000                              
2370001300149A0000002370217840000000139149 PASCOAL TOLEDO NETO           0000000000000000000004082022BRL000000000000000000000000251750PGIT010000037634    050820220000000002517500000000000000000000000000000000000000000            000        
2370001300150B   100032907338234                                                                                          000          000000000251750000000000000000000000000000000000000000000000000000000000000                              
2370001300151A0000002370168610000006522050 DANILO DE SOUZA GONCALVES     0000000000000000000004082022BRL000000000000000000000000196242PGIT010000037688    050820220000000001962420000000000000000000000000000000000000000            000        
2370001300152B   100037841078854                                                                                          000          000000000196242000000000000000000000000000000000000000000000000000000000000                              
2370001300153A0000002370200870000000235822 VICENTE REIS DE BARROS        0000000000000000000004082022BRL000000000000000000000000193464PGIT010000037689    050820220000000001934640000000000000000000000000000000000000000            000        
2370001300154B   100087338467234                                                                                          000          000000000193464000000000000000000000000000000000000000000000000000000000000                              
2370001300155A0000002370200870000000220736 JOSE DA SILVA SANTOS          0000000000000000000004082022BRL000000000000000000000000125705PGIT010000037690    050820220000000001257050000000000000000000000000000000000000000            000        
2370001300156B   100002963897308                                                                                          000          000000000125705000000000000000000000000000000000000000000000000000000000000                              
2370001300157A0000002370780260000002391376 VICTOR AFONSO LOPES DA CRUZ   0000000000000000000004082022BRL000000000000000000000000474119PGIT010000037691    050820220000000004741190000000000000000000000000000000000000000            000        
2370001300158B   100040370708806                                                                                          000          000000000474119000000000000000000000000000000000000000000000000000000000000                              
2370001300159A0000002370200870000000982261 FRANCISCO CARDOSO DA SILVA    0000000000000000000004082022BRL000000000000000000000000148603PGIT010000037692    050820220000000001486030000000000000000000000000000000000000000            000        
2370001300160B   100000362997314                                                                                          000          000000000148603000000000000000000000000000000000000000000000000000000000000                              
2370001300161A0000002370168530000000932817 KLEYDIMAR LEONY SIQUEIRA SANTO0000000000000000000004082022BRL000000000000000000000000493599PGIT010000037668    050820220000000004935990000000000000000000000000000000000000000            000        
2370001300162B   100010180086677                                                                                          000          000000000493599000000000000000000000000000000000000000000000000000000000000                              
2370001300163A0000002370200870000000647241 WILTON CARLOS DINIZ LIMA      0000000000000000000004082022BRL000000000000000000000000427667PGIT010000037669    050820220000000004276670000000000000000000000000000000000000000            000        
2370001300164B   100001607816202                                                                                          000          000000000427667000000000000000000000000000000000000000000000000000000000000                              
2370001300165A0000002370373700000002450976 JONIELSON GONCALVES DE MORAES 0000000000000000000004082022BRL000000000000000000000000433079PGIT010000037670    050820220000000004330790000000000000000000000000000000000000000            000        
2370001300166B   100080943470234                                                                                          000          000000000433079000000000000000000000000000000000000000000000000000000000000                              
2370001300167A0000002370200870000000042293 PEDRO SOARES DA COSTA FILHO   0000000000000000000004082022BRL000000000000000000000000132446PGIT010000037671    050820220000000001324460000000000000000000000000000000000000000            000        
2370001300168B   100002345554240                                                                                          000          000000000132446000000000000000000000000000000000000000000000000000000000000                              
2370001300169A0000002370573550000000029076 VALDIMAR DE SOUZA BATISTA     0000000000000000000004082022BRL000000000000000000000000211039PGIT010000037672    050820220000000002110390000000000000000000000000000000000000000            000        
2370001300170B   100003749733260                                                                                          000          000000000211039000000000000000000000000000000000000000000000000000000000000                              
2370001300171A0000002370387170000005810663 BRUNO GABRIEL HIPOLITO DA SILV0000000000000000000004082022BRL000000000000000000000000090397PGIT010000036923    050820220000000000903970000000000000000000000000000000000000000            000        
2370001300172B   100016486782625                                                                                          000          000000000090397000000000000000000000000000000000000000000000000000000000000                              
2370001300173A0000002370654800000000157775 ADAIR JOSE MACEDO             0000000000000000000004082022BRL000000000000000000000000085945PGIT010000036924    050820220000000000859450000000000000000000000000000000000000000            000        
2370001300174B   100003012163557                                                                                          000          000000000085945000000000000000000000000000000000000000000000000000000000000                              
2370001300175A0000002370597810000007050399 REGINALDO DA CONCEICAO SANTANA0000000000000000000004082022BRL000000000000000000000000085945PGIT010000036925    050820220000000000859450000000000000000000000000000000000000000            000        
2370001300176B   100058799656515                                                                                          000          000000000085945000000000000000000000000000000000000000000000000000000000000                              
2370001300177A0000002370050610000001203452 TARCISIO AUGUSTO DE SOUZA GONC0000000000000000000004082022BRL000000000000000000000000085945PGIT010000036926    050820220000000000859450000000000000000000000000000000000000000            000        
2370001300178B   100010423965409                                                                                          000          000000000085945000000000000000000000000000000000000000000000000000000000000                              
2370001300179A0000002370103160000001002139 EDILSON PEREIRA MACHADO       0000000000000000000004082022BRL000000000000000000000000085945PGIT010000036927    050820220000000000859450000000000000000000000000000000000000000            000        
2370001300180B   100063725703272                                                                                          000          000000000085945000000000000000000000000000000000000000000000000000000000000                              
2370001300181A0000002370387170000002853264 WANDERSON RHUAN DA SILVA SOUSA0000000000000000000004082022BRL000000000000000000000000085118PGIT010000036928    050820220000000000851180000000000000000000000000000000000000000            000        
2370001300182B   100002757993283                                                                                          000          000000000085118000000000000000000000000000000000000000000000000000000000000                              
2370001300183A0000002370761550000006786677 JHONANTAN ALMEIDA DOS SANTOS  0000000000000000000004082022BRL000000000000000000000000067718PGIT010000036929    050820220000000000677180000000000000000000000000000000000000000            000        
2370001300184B   100013855494673                                                                                          000          000000000067718000000000000000000000000000000000000000000000000000000000000                              
2370001300185A0000002370303920000000047082 OSVALDO PEREIRA SANTOS        0000000000000000000004082022BRL000000000000000000000000203950PGIT010000036930    050820220000000002039500000000000000000000000000000000000000000            000        
2370001300186B   100064668398500                                                                                          000          000000000203950000000000000000000000000000000000000000000000000000000000000                              
2370001300187A0000002370180660000000089508 DANIEL RAMALHO DA SILVA       0000000000000000000004082022BRL000000000000000000000000079891PGIT010000036931    050820220000000000798910000000000000000000000000000000000000000            000        
2370001300188B   100005775806638                                                                                          000          000000000079891000000000000000000000000000000000000000000000000000000000000                              
2370001300189A0000002370046690000000300667 ALEX DARC MARTINS MORAIS      0000000000000000000004082022BRL000000000000000000000000268739PGIT010000036774    050820220000000002687390000000000000000000000000000000000000000            000        
2370001300190B   100079293913615                                                                                          000          000000000268739000000000000000000000000000000000000000000000000000000000000                              
2370001300191A0000002370196740000000321044 SIDIMAR DE JESUS FERREIRA     0000000000000000000004082022BRL000000000000000000000000072807PGIT010000036916    050820220000000000728070000000000000000000000000000000000000000            000        
2370001300192B   100009912209605                                                                                          000          000000000072807000000000000000000000000000000000000000000000000000000000000                              
2370001300193A0000002370358400000000170755 DANIEL DOS SANTOS MAIA        0000000000000000000004082022BRL000000000000000000000000167371PGIT010000036844    050820220000000001673710000000000000000000000000000000000000000            000        
2370001300194B   100008481223565                                                                                          000          000000000167371000000000000000000000000000000000000000000000000000000000000                              
2370001300195A0000002370193560000005185459 ROMULO SOUZA ARAUJO           0000000000000000000004082022BRL000000000000000000000000202254PGIT010000036845    050820220000000002022540000000000000000000000000000000000000000            000        
2370001300196B   100043462069802                                                                                          000          000000000202254000000000000000000000000000000000000000000000000000000000000                              
2370001300197A0000002370093690000000273112 SAIRON MARTINS REGO           0000000000000000000004082022BRL000000000000000000000000118217PGIT010000036846    050820220000000001182170000000000000000000000000000000000000000            000        
2370001300198B   100015813442600                                                                                          000          000000000118217000000000000000000000000000000000000000000000000000000000000                              
2370001300199A0000002370180070000000081876 ALBERTON RAPOSO DA SILVA      0000000000000000000004082022BRL000000000000000000000000236448PGIT010000036847    050820220000000002364480000000000000000000000000000000000000000            000        
2370001300200B   100003952898406                                                                                          000          000000000236448000000000000000000000000000000000000000000000000000000000000                              
2370001300201A0000002370693020000000016527 ERICA MORAIS RODRIGUES        0000000000000000000004082022BRL000000000000000000000000317391PGIT010000036848    050820220000000003173910000000000000000000000000000000000000000            000        
2370001300202B   100010582701686                                                                                          000          000000000317391000000000000000000000000000000000000000000000000000000000000                              
2370001300203A0000002370093690000000190489 HELIVELTON SOUSA PORTO        0000000000000000000004082022BRL000000000000000000000000283781PGIT010000036849    050820220000000002837810000000000000000000000000000000000000000            000        
2370001300204B   100012426211644                                                                                          000          000000000283781000000000000000000000000000000000000000000000000000000000000                              
2370001300205A0000002370255770000000206024 MARCOS PAULO SILVA DOS SANTOS 0000000000000000000004082022BRL000000000000000000000000180510PGIT010000036850    050820220000000001805100000000000000000000000000000000000000000            000        
2370001300206B   100085971004514                                                                                          000          000000000180510000000000000000000000000000000000000000000000000000000000000                              
2370001300207A0000002370093690000000238643 PEDRO LUCAS INACIO ALMEIDA    0000000000000000000004082022BRL000000000000000000000000191557PGIT010000036851    050820220000000001915570000000000000000000000000000000000000000            000        
2370001300208B   100014379222608                                                                                          000          000000000191557000000000000000000000000000000000000000000000000000000000000                              
2370001300209A0000002370093690000000019208 GISLENE JUNIOR PEREIRA SANTOS 0000000000000000000004082022BRL000000000000000000000000213613PGIT010000036852    050820220000000002136130000000000000000000000000000000000000000            000        
2370001300210B   100013300418607                                                                                          000          000000000213613000000000000000000000000000000000000000000000000000000000000                              
2370001300211A0000002370093690000000240400 MARCOS VINICIUS FERNANDES SOAR0000000000000000000004082022BRL000000000000000000000000198911PGIT010000036853    050820220000000001989110000000000000000000000000000000000000000            000        
2370001300212B   100015809487661                                                                                          000          000000000198911000000000000000000000000000000000000000000000000000000000000                              
2370001300213A0000002370693020000000138231 CLEBER DAS GRACAS MARTINS     0000000000000000000004082022BRL000000000000000000000000221169PGIT010000036854    050820220000000002211690000000000000000000000000000000000000000            000        
2370001300214B   100003706793695                                                                                          000          000000000221169000000000000000000000000000000000000000000000000000000000000                              
2370001300215A0000002370393490000000027871 GELSON ALEXANDRE DE SOUZA     0000000000000000000004082022BRL000000000000000000000000435787PGIT010000036855    050820220000000004357870000000000000000000000000000000000000000            000        
2370001300216B   100045304432649                                                                                          000          000000000435787000000000000000000000000000000000000000000000000000000000000                              
2370001300217A0000002370386280000001082086 SEBASTIAO DAVI BORGES         0000000000000000000004082022BRL000000000000000000000000364836PGIT010000036856    050820220000000003648360000000000000000000000000000000000000000            000        
2370001300218B   100051093642653                                                                                          000          000000000364836000000000000000000000000000000000000000000000000000000000000                              
2370001300219A0000002370373890000004778723 ADRIANO JOSE PALMEIRA         0000000000000000000004082022BRL000000000000000000000000359315PGIT010000036857    050820220000000003593150000000000000000000000000000000000000000            000        
2370001300220B   100003414020440                                                                                          000          000000000359315000000000000000000000000000000000000000000000000000000000000                              
2370001300221A0000002370312160000000415448 ANTONIO MENEZES DE SOUZA      0000000000000000000004082022BRL000000000000000000000000421878PGIT010000036858    050820220000000004218780000000000000000000000000000000000000000            000        
2370001300222B   100056743980544                                                                                          000          000000000421878000000000000000000000000000000000000000000000000000000000000                              
2370001300223A0000002370212100000000495310 FRANCINALDO FARIAS DE SOUSA   0000000000000000000004082022BRL000000000000000000000000355431PGIT010000036859    050820220000000003554310000000000000000000000000000000000000000            000        
2370001300224B   100001199451347                                                                                          000          000000000355431000000000000000000000000000000000000000000000000000000000000                              
2370001300225A0000002370654800000000097225 REGINALDO VELOSO              0000000000000000000004082022BRL000000000000000000000000337893PGIT010000036860    050820220000000003378930000000000000000000000000000000000000000            000        
2370001300226B   100077017285387                                                                                          000          000000000337893000000000000000000000000000000000000000000000000000000000000                              
2370001300227A0000002370206800000000525537 IRENILDO REIS SOARES          0000000000000000000004082022BRL000000000000000000000000189419PGIT010000036861    050820220000000001894190000000000000000000000000000000000000000            000        
2370001300228B   100060791727394                                                                                          000          000000000189419000000000000000000000000000000000000000000000000000000000000                              
2370001300229A0000002370206800000000525553 JAIME SA COSTA                0000000000000000000004082022BRL000000000000000000000000179566PGIT010000036862    050820220000000001795660000000000000000000000000000000000000000            000        
2370001300230B   100062101816350                                                                                          000          000000000179566000000000000000000000000000000000000000000000000000000000000                              
2370001300231A0000002370168530000000223018 VIVIANE CARVALHO DE ALMEIDA SO0000000000000000000004082022BRL000000000000000000000000338383PGIT010000036863    050820220000000003383830000000000000000000000000000000000000000            000        
2370001300232B   100006037273600                                                                                          000          000000000338383000000000000000000000000000000000000000000000000000000000000                              
2370001300233A0000002370093690000010066174 VALDENY RODRIGUES LIMA        0000000000000000000004082022BRL000000000000000000000000207905PGIT010000036864    050820220000000002079050000000000000000000000000000000000000000            000        
2370001300234B   100007975403695                                                                                          000          000000000207905000000000000000000000000000000000000000000000000000000000000                              
2370001300235A0000002370133400000001161172 MIGUEL PINTO COUTINHO NETO    0000000000000000000004082022BRL000000000000000000000000432713PGIT010000037749    050820220000000004327130000000000000000000000000000000000000000            000        
2370001300236B   100080574424334                                                                                          000          000000000432713000000000000000000000000000000000000000000000000000000000000                              
2370001300237A0000002370138890000000259284 FRANCISCO PLACIDO DE SOUSA    0000000000000000000004082022BRL000000000000000000000000140494PGIT010000037750    050820220000000001404940000000000000000000000000000000000000000            000        
2370001300238B   100002649295350                                                                                          000          000000000140494000000000000000000000000000000000000000000000000000000000000                              
2370001300239A0000002370386280000000590495 LEANDRO RUFATTO DOS SANTOS    0000000000000000000004082022BRL000000000000000000000000201270PGIT010000037751    050820220000000002012700000000000000000000000000000000000000000            000        
2370001300240B   100098929631215                                                                                          000          000000000201270000000000000000000000000000000000000000000000000000000000000                              
2370001300241A0000002370241630000000265942 BRUNO HENRIQUE PEREIRA        0000000000000000000004082022BRL000000000000000000000000224817PGIT010000036775    050820220000000002248170000000000000000000000000000000000000000            000        
2370001300242B   100001636329608                                                                                          000          000000000224817000000000000000000000000000000000000000000000000000000000000                              
2370001300243A0000002370141170000000413771 ELIZETE CONCEICAO DOS ANJOS   0000000000000000000004082022BRL000000000000000000000000132026PGIT010000037635    050820220000000001320260000000000000000000000000000000000000000            000        
2370001300244B   100005703451469                                                                                          000          000000000132026000000000000000000000000000000000000000000000000000000000000                              
2370001300245A0000002370200870000000911658 TIAGO LUIS MATOS              0000000000000000000004082022BRL000000000000000000000000198025PGIT010000037636    050820220000000001980250000000000000000000000000000000000000000            000        
2370001300246B   100006424653392                                                                                          000          000000000198025000000000000000000000000000000000000000000000000000000000000                              
2370001300247A0000002370200870000000909343 LEOMAR DA SILVA               0000000000000000000004082022BRL000000000000000000000000308255PGIT010000037637    050820220000000003082550000000000000000000000000000000000000000            000        
2370001300248B   100072790296120                                                                                          000          000000000308255000000000000000000000000000000000000000000000000000000000000                              
2370001300249A0000002370154820000006010393 RAFAEL MARQUES DO NASCIMENTO  0000000000000000000004082022BRL000000000000000000000000190379PGIT010000037638    050820220000000001903790000000000000000000000000000000000000000            000        
2370001300250B   100083071059272                                                                                          000          000000000190379000000000000000000000000000000000000000000000000000000000000                              
2370001300251A0000002370200870000005774268 HILDEBRANDO ELOI DA SILVA     0000000000000000000004082022BRL000000000000000000000000215712PGIT010000037639    050820220000000002157120000000000000000000000000000000000000000            000        
2370001300252B   100025029118349                                                                                          000          000000000215712000000000000000000000000000000000000000000000000000000000000                              
2370001300253A0000002370176120000000033022 LUCIENE SANTOS DA COSTA       0000000000000000000004082022BRL000000000000000000000000144278PGIT010000037640    050820220000000001442780000000000000000000000000000000000000000            000        
2370001300254B   100000860163342                                                                                          000          000000000144278000000000000000000000000000000000000000000000000000000000000                              
2370001300255A0000002370138890000000156272 JUSTINO DE SOUSA NETO         0000000000000000000004082022BRL000000000000000000000000554174PGIT010000037641    050820220000000005541740000000000000000000000000000000000000000            000        
2370001300256B   100040261336304                                                                                          000          000000000554174000000000000000000000000000000000000000000000000000000000000                              
2370001300257A0000002370169500000000496316 THIAGO ALVES CONCERVA         0000000000000000000004082022BRL000000000000000000000000210593PGIT010000036901    050820220000000002105930000000000000000000000000000000000000000            000        
2370001300258B   100000793030480                                                                                          000          000000000210593000000000000000000000000000000000000000000000000000000000000                              
2370001300259A0000002370241630000000328090 CARLOS MAGNO C SHWENCK        0000000000000000000004082022BRL000000000000000000000002063731PGIT010000036741    050820220000000020637310000000000000000000000000000000000000000            000        
2370001300260B   100052253821691                                                                                          000          000000002063731000000000000000000000000000000000000000000000000000000000000                              
2370001300261A0000002370214660000000137294 MARLON FELISBINO DA SILVA     0000000000000000000004082022BRL000000000000000000000000516534PGIT010000037479    050820220000000005165340000000000000000000000000000000000000000            000        
2370001300262B   100050873938615                                                                                          000          000000000516534000000000000000000000000000000000000000000000000000000000000                              
2370001300263A0000002370141170000000312584 JANISLEIA FERREIRA GOMES NOLET0000000000000000000004082022BRL000000000000000000000000195250PGIT010000037480    050820220000000001952500000000000000000000000000000000000000000            000        
2370001300264B   100002497987270                                                                                          000          000000000195250000000000000000000000000000000000000000000000000000000000000                              
2370001300265A0000002370138890000000122785 LUIS HAROLDO BRAGA            0000000000000000000004082022BRL000000000000000000000000403441PGIT010000037481    050820220000000004034410000000000000000000000000000000000000000            000        
2370001300266B   100022187103234                                                                                          000          000000000403441000000000000000000000000000000000000000000000000000000000000                              
2370001300267A0000002370693020000010007488 JOAO RODRIGUES DA SILVA       0000000000000000000004082022BRL000000000000000000000000240679PGIT010000037482    050820220000000002406790000000000000000000000000000000000000000            000        
2370001300268B   100062369423234                                                                                          000          000000000240679000000000000000000000000000000000000000000000000000000000000                              
2370001300269A0000002370194700000000277118 JOAO BONFIM DA SILVA          0000000000000000000004082022BRL000000000000000000000000438244PGIT010000037747    050820220000000004382440000000000000000000000000000000000000000            000        
2370001300270B   100070909784272                                                                                          000          000000000438244000000000000000000000000000000000000000000000000000000000000                              
2370001300271A0000002370249100000000194220 MANOEL DE ASSIS HILARIO       0000000000000000000004082022BRL000000000000000000000000537086PGIT010000036902    050820220000000005370860000000000000000000000000000000000000000            000        
2370001300272B   100054572436649                                                                                          000          000000000537086000000000000000000000000000000000000000000000000000000000000                              
2370001300273A0000002370141170000000076473 VANILSON AQUINO DA SILVA      0000000000000000000004082022BRL000000000000000000000000126112PGIT010000037683    050820220000000001261120000000000000000000000000000000000000000            000        
2370001300274B   100000501798293                                                                                          000          000000000126112000000000000000000000000000000000000000000000000000000000000                              
2370001300275A0000002370200870000000979783 DANILO CONCEICAO CUNHA        0000000000000000000004082022BRL000000000000000000000000117328PGIT010000037684    050820220000000001173280000000000000000000000000000000000000000            000        
2370001300276B   100003595383206                                                                                          000          000000000117328000000000000000000000000000000000000000000000000000000000000                              
2370001300277A0000002370141170000000061468 RAIMUNDO DE CATRO XIMENES     0000000000000000000004082022BRL000000000000000000000000202008PGIT010000037748    050820220000000002020080000000000000000000000000000000000000000            000        
2370001300278B   100061721719253                                                                                          000          000000000202008000000000000000000000000000000000000000000000000000000000000                              
2370001300279A0000002370303920000000277851 LEANDRO DE SOUSA DOS SANTOS   0000000000000000000004082022BRL000000000000000000000000319779PGIT010000037483    050820220000000003197790000000000000000000000000000000000000000            000        
2370001300280B   100005213593330                                                                                          000          000000000319779000000000000000000000000000000000000000000000000000000000000                              
2370001300281A0000002370303920000000280801 DYEGO FERREIRA DA CONCEICAO   0000000000000000000004082022BRL000000000000000000000000329461PGIT010000037484    050820220000000003294610000000000000000000000000000000000000000            000        
2370001300282B   100006546294206                                                                                          000          000000000329461000000000000000000000000000000000000000000000000000000000000                              
2370001300283A0000002370303920000000047538 JOAO DE SOUSA XIMENDES        0000000000000000000004082022BRL000000000000000000000000310419PGIT010000037485    050820220000000003104190000000000000000000000000000000000000000            000        
2370001300284B   100024815306249                                                                                          000          000000000310419000000000000000000000000000000000000000000000000000000000000                              
2370001300285A0000002370303920000000028959 SILVEIRA DOS SANTOS DE ALMEIDA0000000000000000000004082022BRL000000000000000000000000323967PGIT010000037486    050820220000000003239670000000000000000000000000000000000000000            000        
2370001300286B   100096869658153                                                                                          000          000000000323967000000000000000000000000000000000000000000000000000000000000                              
2370001300287A0000002370217840000000165328 DJANIO DE SOUZA SILVA         0000000000000000000004082022BRL000000000000000000000000353794PGIT010000037487    050820220000000003537940000000000000000000000000000000000000000            000        
2370001300288B   100073124184220                                                                                          000          000000000353794000000000000000000000000000000000000000000000000000000000000                              
2370001300289A0000002370303920000000129771 LILIAN CRISTHIAN REIS DE FIGUE0000000000000000000004082022BRL000000000000000000000000246619PGIT010000037488    050820220000000002466190000000000000000000000000000000000000000            000        
2370001300290B   100003036811281                                                                                          000          000000000246619000000000000000000000000000000000000000000000000000000000000                              
2370001300291A0000002370113630000000060305 JAILSON DE SOUZA COSTA        0000000000000000000004082022BRL000000000000000000000000141831PGIT010000037489    050820220000000001418310000000000000000000000000000000000000000            000        
2370001300292B   100094756511368                                                                                          000          000000000141831000000000000000000000000000000000000000000000000000000000000                              
2370001300293A0000002370138890000000145319 FILOMENO FRANCO PEREIRA       0000000000000000000004082022BRL000000000000000000000000228052PGIT010000037659    050820220000000002280520000000000000000000000000000000000000000            000        
2370001300294B   100062327976200                                                                                          000          000000000228052000000000000000000000000000000000000000000000000000000000000                              
2370001300295A0000002370141170000000356999 KLISMAN LIMA FERRAZ           0000000000000000000004082022BRL000000000000000000000000290047PGIT010000037734    050820220000000002900470000000000000000000000000000000000000000            000        
2370001300296B   100003207140203                                                                                          000          000000000290047000000000000000000000000000000000000000000000000000000000000                              
2370001300297A0000002370200870000005255376 RAIMUNDO NONATO DE S CASTRO   0000000000000000000004082022BRL000000000000000000000000235239PGIT010000037735    050820220000000002352390000000000000000000000000000000000000000            000        
2370001300298B   100004050425319                                                                                          000          000000000235239000000000000000000000000000000000000000000000000000000000000                              
2370001300299A0000002370196740000000532835 GUILHERME AUGUSTO ROSA MIRANDA0000000000000000000004082022BRL000000000000000000000000119669PGIT010000036919    050820220000000001196690000000000000000000000000000000000000000            000        
2370001300300B   100012762215684                                                                                          000          000000000119669000000000000000000000000000000000000000000000000000000000000                              
2370001300301A0000002370139270000000360368 KELIA MARIA TEIXEIRA MARTINS E0000000000000000000004082022BRL000000000000000000000000496633PGIT010000036920    050820220000000004966330000000000000000000000000000000000000000            000        
2370001300302B   100066398207653                                                                                          000          000000000496633000000000000000000000000000000000000000000000000000000000000                              
2370001300303A0000002370138890000000211680 EDISON PRACHEDES DE MORAIS    0000000000000000000004082022BRL000000000000000000000000115042PGIT010000037736    050820220000000001150420000000000000000000000000000000000000000            000        
2370001300304B   100052643832272                                                                                          000          000000000115042000000000000000000000000000000000000000000000000000000000000                              
2370001300305A0000002370141170000000451681 RICARDO REIS DE SOUSA         0000000000000000000004082022BRL000000000000000000000000148293PGIT010000037737    050820220000000001482930000000000000000000000000000000000000000            000        
2370001300306B   100004752477360                                                                                          000          000000000148293000000000000000000000000000000000000000000000000000000000000                              
2370001300307A0000002370671560000000229539 ISABELLY CRISTINE PEREIRA SANT0000000000000000000004082022BRL000000000000000000000000050472PGIT010000036773    050820220000000000504720000000000000000000000000000000000000000            000        
2370001300308B   100002263930620                                                                                          000          000000000050472000000000000000000000000000000000000000000000000000000000000                              
2370001300309A0000002370217840000005242703 PAULO REIS DA SILVA           0000000000000000000004082022BRL000000000000000000000000159619PGIT010000037738    050820220000000001596190000000000000000000000000000000000000000            000        
2370001300310B   100092249574200                                                                                          000          000000000159619000000000000000000000000000000000000000000000000000000000000                              
2370001300311A0000002370303920000000054100 GERSON SARGES DOS REIS        0000000000000000000004082022BRL000000000000000000000000190478PGIT010000037739    050820220000000001904780000000000000000000000000000000000000000            000        
2370001300312B   100059927666268                                                                                          000          000000000190478000000000000000000000000000000000000000000000000000000000000                              
2370001300313A0000002370141170000005714567 EURICO DA IGREJA MACIEIRA     0000000000000000000004082022BRL000000000000000000000000193079PGIT010000037740    050820220000000001930790000000000000000000000000000000000000000            000        
2370001300314B   100058119787234                                                                                          000          000000000193079000000000000000000000000000000000000000000000000000000000000                              
2370001300315A0000002370303920000000022373 RAIMUNDO DE SOUSA             0000000000000000000004082022BRL000000000000000000000000202417PGIT010000037741    050820220000000002024170000000000000000000000000000000000000000            000        
2370001300316B   100069772738287                                                                                          000          000000000202417000000000000000000000000000000000000000000000000000000000000                              
2370001300317A0000002370200870000005957702 LEANDRO OLIVEIRA DE FRANCA    0000000000000000000004082022BRL000000000000000000000000285227PGIT010000037742    050820220000000002852270000000000000000000000000000000000000000            000        
2370001300318B   100099404516368                                                                                          000          000000000285227000000000000000000000000000000000000000000000000000000000000                              
2370001300319A0000002370752640000001785494 ALEXANDRE CUNHA DA SILVA      0000000000000000000004082022BRL000000000000000000000000161490PGIT010000037743    050820220000000001614900000000000000000000000000000000000000000            000        
2370001300320B   100001506665276                                                                                          000          000000000161490000000000000000000000000000000000000000000000000000000000000                              
2370001300321A0000002370392920000000872741 CRISTIANO PUREZA RODRIGUES    0000000000000000000004082022BRL000000000000000000000000189669PGIT010000037744    050820220000000001896690000000000000000000000000000000000000000            000        
2370001300322B   100067624685272                                                                                          000          000000000189669000000000000000000000000000000000000000000000000000000000000                              
2370001300323A0000002370200870000000834343 DIEGO AZEVEDO CARNEIRO        0000000000000000000004082022BRL000000000000000000000000309908PGIT010000037682    050820220000000003099080000000000000000000000000000000000000000            000        
2370001300324B   100093790848204                                                                                          000          000000000309908000000000000000000000000000000000000000000000000000000000000                              
2370001300325A0000002370349240000002551837 PAOLA SILVA SANTANA           0000000000000000000004082022BRL000000000000000000000000183309PGIT010000036574    050820220000000001833090000000000000000000000000000000000000000            000        
2370001300326B   100012439561606                                                                                          000          000000000183309000000000000000000000000000000000000000000000000000000000000                              
2370001300327A0000002370294320000000173967 LUCAS DE ALMEIDA E SILVA FREIR0000000000000000000004082022BRL000000000000000000000000835635PGIT010000036575    050820220000000008356350000000000000000000000000000000000000000            000        
2370001300328B   100007969537677                                                                                          000          000000000835635000000000000000000000000000000000000000000000000000000000000                              
2370001300329A0000002370046500000000189170 GUILHERME ROCHA ELLER MIRANDA 0000000000000000000004082022BRL000000000000000000000000748429PGIT010000036576    050820220000000007484290000000000000000000000000000000000000000            000        
2370001300330B   100012386890600                                                                                          000          000000000748429000000000000000000000000000000000000000000000000000000000000                              
2370001300331A0000002370094070000000153052 WILSON JOSE DE OLIVEIRA       0000000000000000000004082022BRL000000000000000000000000116024PGIT010000036757    050820220000000001160240000000000000000000000000000000000000000            000        
2370001300332B   100004198444650                                                                                          000          000000000116024000000000000000000000000000000000000000000000000000000000000                              
2370001300333A0000002370752640000000619868 EDUARDO SANTOS SILVA          0000000000000000000004082022BRL000000000000000000000000320464PGIT010000037685    050820220000000003204640000000000000000000000000000000000000000            000        
2370001300334B   100003360483359                                                                                          000          000000000320464000000000000000000000000000000000000000000000000000000000000                              
2370001300335A0000002370194700000000216011 ALCIONE CALDAS CARDOSO        0000000000000000000004082022BRL000000000000000000000000454342PGIT010000037686    050820220000000004543420000000000000000000000000000000000000000            000        
2370001300336B   100075682257200                                                                                          000          000000000454342000000000000000000000000000000000000000000000000000000000000                              
2370001300337A0000002370252160000000115517 RODRIGO ALVES DA ROCHA OLIVEIR0000000000000000000004082022BRL000000000000000000000000210593PGIT010000036903    050820220000000002105930000000000000000000000000000000000000000            000        
2370001300338B   100011021707635                                                                                          000          000000000210593000000000000000000000000000000000000000000000000000000000000                              
2370001300339A0000002370169500000000036927 ROGERIO MAIA DE SOUZA         0000000000000000000004082022BRL000000000000000000000000210593PGIT010000036904    050820220000000002105930000000000000000000000000000000000000000            000        
2370001300340B   100059899328472                                                                                          000          000000000210593000000000000000000000000000000000000000000000000000000000000                              
2370001300341A0000002370324760000000526460 ALEXANDRE FERRAREZI CAMPOS    0000000000000000000004082022BRL000000000000000000000002353971PGIT010000036794    050820220000000023539710000000000000000000000000000000000000000            000        
2370001300342B   100053149599687                                                                                          000          000000002353971000000000000000000000000000000000000000000000000000000000000                              
2370001300343A0000002370169690000000164593 ANA CAROLINA MESQUITA         0000000000000000000004082022BRL000000000000000000000000462022PGIT010000036795    050820220000000004620220000000000000000000000000000000000000000            000        
2370001300344B   100003338340621                                                                                          000          000000000462022000000000000000000000000000000000000000000000000000000000000                              
2370001300345A0000002370168530000000427942 JOSINEI RIBEIRO DOS SANTOS    0000000000000000000004082022BRL000000000000000000000000243928PGIT010000036796    050820220000000002439280000000000000000000000000000000000000000            000        
2370001300346B   100010177206659                                                                                          000          000000000243928000000000000000000000000000000000000000000000000000000000000                              
2370001300347A0000002370568120000007960360 ANDERSON GREGORIO BORGES      0000000000000000000004082022BRL000000000000000000000000741569PGIT010000036797    050820220000000007415690000000000000000000000000000000000000000            000        
2370001300348B   100001594772630                                                                                          000          000000000741569000000000000000000000000000000000000000000000000000000000000                              
2370001300349A0000002370168530000000301965 JOSE ISMAEL DA SILVA          0000000000000000000004082022BRL000000000000000000000000510153PGIT010000036798    050820220000000005101530000000000000000000000000000000000000000            000        
2370001300350B   100076887774615                                                                                          000          000000000510153000000000000000000000000000000000000000000000000000000000000                              
2370001300351A0000002370196740000003502007 WILIAN PAPACOSTA              0000000000000000000004082022BRL000000000000000000000001611070PGIT010000036799    050820220000000016110700000000000000000000000000000000000000000            000        
2370001300352B   100077952090178                                                                                          000          000000001611070000000000000000000000000000000000000000000000000000000000000                              
2370001300353A0000002370664190000000077968 HEITOR MARTINS OLIVEIRA       0000000000000000000004082022BRL000000000000000000000000770269PGIT010000036800    050820220000000007702690000000000000000000000000000000000000000            000        
2370001300354B   100012282046676                                                                                          000          000000000770269000000000000000000000000000000000000000000000000000000000000                              
2370001300355A0000002370054600000005605040 ALAN CARDEQUE MIRANDA DE SOUSA0000000000000000000004082022BRL000000000000000000000000220129PGIT010000036905    050820220000000002201290000000000000000000000000000000000000000            000        
2370001300356B   100026127920159                                                                                          000          000000000220129000000000000000000000000000000000000000000000000000000000000                              
2370001300357A0000002370194700000000217220 JOEL FIDELES                  0000000000000000000004082022BRL000000000000000000000000378267PGIT010000037678    050820220000000003782670000000000000000000000000000000000000000            000        
2370001300358B   100032739125291                                                                                          000          000000000378267000000000000000000000000000000000000000000000000000000000000                              
2370001300359A0000002370693020000000150223 FRANCISCO ANDERSON SANTOS DA S0000000000000000000004082022BRL000000000000000000000000336052PGIT010000037679    050820220000000003360520000000000000000000000000000000000000000            000        
2370001300360B   100002042949248                                                                                          000          000000000336052000000000000000000000000000000000000000000000000000000000000                              
2370001300361A0000002370289910000000218316 JULIANA CRISTINA ALVES        0000000000000000000004082022BRL000000000000000000000000374829PGIT010000036801    050820220000000003748290000000000000000000000000000000000000000            000        
2370001300362B   100007157952602                                                                                          000          000000000374829000000000000000000000000000000000000000000000000000000000000                              
2370001300363A0000002370168530000000806056 EDINEI DA SILVA RODRIGUES     0000000000000000000004082022BRL000000000000000000000000416777PGIT010000036802    050820220000000004167770000000000000000000000000000000000000000            000        
2370001300364B   100009657335647                                                                                          000          000000000416777000000000000000000000000000000000000000000000000000000000000                              
2370001300365A0000002370302440000000215422 CARLOS ROBERTO DE ALMEIDA     0000000000000000000004082022BRL000000000000000000000000297455PGIT010000036803    050820220000000002974550000000000000000000000000000000000000000            000        
2370001300366B   100047037180653                                                                                          000          000000000297455000000000000000000000000000000000000000000000000000000000000                              
2370001300367A0000002370168530000000415898 TIAGO FERREIRA DE MOURA       0000000000000000000004082022BRL000000000000000000000000202673PGIT010000036804    050820220000000002026730000000000000000000000000000000000000000            000        
2370001300368B   100008649753680                                                                                          000          000000000202673000000000000000000000000000000000000000000000000000000000000                              
2370001300369A0000002370200870000000903213 JILENO NABICA COSTA           0000000000000000000004082022BRL000000000000000000000000468619PGIT010000037732    050820220000000004686190000000000000000000000000000000000000000            000        
2370001300370B   100074779370272                                                                                          000          000000000468619000000000000000000000000000000000000000000000000000000000000                              
2370001300371A0000002370392920000001572660 ANA KAROLINA SILVA DE OLIVEIRA0000000000000000000004082022BRL000000000000000000000000254005PGIT010000036917    050820220000000002540050000000000000000000000000000000000000000            000        
2370001300372B   100008224778665                                                                                          000          000000000254005000000000000000000000000000000000000000000000000000000000000                              
2370001300373A0000002370150320000001768158 ORDANILIO RAMOS               0000000000000000000004082022BRL000000000000000000000000332009PGIT010000036918    050820220000000003320090000000000000000000000000000000000000000            000        
2370001300374B   100006485908609                                                                                          000          000000000332009000000000000000000000000000000000000000000000000000000000000                              
2370001300375A0000002370176120000000553115 ITAMAR LUIS DA SILVA          0000000000000000000004082022BRL000000000000000000000000223447PGIT010000037733    050820220000000002234470000000000000000000000000000000000000000            000        
2370001300376B   100003766715305                                                                                          000          000000000223447000000000000000000000000000000000000000000000000000000000000                              
2370001300377A0000002370617600000005556031 EDUARDO FREITAS DA COSTA      0000000000000000000004082022BRL000000000000000000000000166018PGIT010000037657    050820220000000001660180000000000000000000000000000000000000000            000        
2370001300378B   100005348225339                                                                                          000          000000000166018000000000000000000000000000000000000000000000000000000000000                              
2370001300379A0000002370392500000002605341 AILTON LEAO MAIA              0000000000000000000004082022BRL000000000000000000000000251436PGIT010000037658    050820220000000002514360000000000000000000000000000000000000000            000        
2370001300380B   100082115141253                                                                                          000          000000000251436000000000000000000000000000000000000000000000000000000000000                              
2370001300381A0000002370104640000005140382 THIAGO SENA FIGUEREDO         0000000000000000000004082022BRL000000000000000000000000297066PGIT010000037544    050820220000000002970660000000000000000000000000000000000000000            000        
2370001300382B   100060253068347                                                                                          000          000000000297066000000000000000000000000000000000000000000000000000000000000                              
2370001300383A0000002370189100000072885945 MARIA APARECIDA FURTADO OLIVEI0000000000000000000004082022BRL000000000000000000000000117448PGIT010000036735    050820220000000001174480000000000000000000000000000000000000000            000        
2370001300384B   100002583379666                                                                                          000          000000000117448000000000000000000000000000000000000000000000000000000000000                              
2370001300385A0000002370698170000000003700 MARIA IMACULADA NASCIMENTO    0000000000000000000004082022BRL000000000000000000000000117448PGIT010000036736    050820220000000001174480000000000000000000000000000000000000000            000        
2370001300386B   100011544723610                                                                                          000          000000000117448000000000000000000000000000000000000000000000000000000000000                              
2370001300387A0000002370303920000000029335 JANIO RODRIGUES FERREIRA      0000000000000000000004082022BRL000000000000000000000000276330PGIT010000037545    050820220000000002763300000000000000000000000000000000000000000            000        
2370001300388B   100066338247187                                                                                          000          000000000276330000000000000000000000000000000000000000000000000000000000000                              
2370001300389A0000002370387170000001459546 PEDRO RAQUIEL FELIPE DOS SANTO0000000000000000000004082022BRL000000000000000000000000332001PGIT010000037546    050820220000000003320010000000000000000000000000000000000000000            000        
2370001300390B   100086065599204                                                                                          000          000000000332001000000000000000000000000000000000000000000000000000000000000                              
2370001300391A0000002370200870000007800592 FABIANO PEREIRA DA SILVA      0000000000000000000004082022BRL000000000000000000000000277630PGIT010000037547    050820220000000002776300000000000000000000000000000000000000000            000        
2370001300392B   100002555726462                                                                                          000          000000000277630000000000000000000000000000000000000000000000000000000000000                              
2370001300393A0000002370559800000000338060 TONI SILVA SOUSA              0000000000000000000004082022BRL000000000000000000000000273669PGIT010000037548    050820220000000002736690000000000000000000000000000000000000000            000        
2370001300394B   100091158877234                                                                                          000          000000000273669000000000000000000000000000000000000000000000000000000000000                              
2370001300395A0000002370217840000005116457 TIAO PEREIRA LIMA             0000000000000000000004082022BRL000000000000000000000000269310PGIT010000037569    050820220000000002693100000000000000000000000000000000000000000            000        
2370001300396B   100080940420104                                                                                          000          000000000269310000000000000000000000000000000000000000000000000000000000000                              
2370001300397A0000002370198280000005850851 HERBERT CAVALCANTE LEMOS      0000000000000000000004082022BRL000000000000000000000000284824PGIT010000037570    050820220000000002848240000000000000000000000000000000000000000            000        
2370001300398B   100043750915334                                                                                          000          000000000284824000000000000000000000000000000000000000000000000000000000000                              
2370001300399A0000002370303920000007012470 LUCIANO MORETI DE FREITAS     0000000000000000000004082022BRL000000000000000000000000256426PGIT010000037571    050820220000000002564260000000000000000000000000000000000000000            000        
2370001300400B   100062375601149                                                                                          000          000000000256426000000000000000000000000000000000000000000000000000000000000                              
2370001300401A0000002370151480000006004202 FRANCISCO ROGERIO SILVA SOUZA 0000000000000000000004082022BRL000000000000000000000000244547PGIT010000037572    050820220000000002445470000000000000000000000000000000000000000            000        
2370001300402B   100088051501349                                                                                          000          000000000244547000000000000000000000000000000000000000000000000000000000000                              
2370001300403A0000002370200870000001070843 CESAR DA SILVA BEZERRA        0000000000000000000004082022BRL000000000000000000000000405935PGIT010000037477    050820220000000004059350000000000000000000000000000000000000000            000        
2370001300404B   100078741289315                                                                                          000          000000000405935000000000000000000000000000000000000000000000000000000000000                              
2370001300405A0000002370303920000000025291 JOSE DOS REIS ALMEIDA FILHO   0000000000000000000004082022BRL000000000000000000000000413504PGIT010000037478    050820220000000004135040000000000000000000000000000000000000000            000        
2370001300406B   100076453111349                                                                                          000          000000000413504000000000000000000000000000000000000000000000000000000000000                              
2370001300407A0000002370189100000006324223 BRAZ PRUDENTE DE MIRANDA      0000000000000000000004082022BRL000000000000000000000000104535PGIT010000036737    050820220000000001045350000000000000000000000000000000000000000            000        
2370001300408B   100076858804668                                                                                          000          000000000104535000000000000000000000000000000000000000000000000000000000000                              
2370001300409A0000002370046500000003832031 REGIANE  VICTORIA DE JESUS PAR0000000000000000000004082022BRL000000000000000000000000925045PGIT010000036738    050820220000000009250450000000000000000000000000000000000000000            000        
2370001300410B   100000382979656                                                                                          000          000000000925045000000000000000000000000000000000000000000000000000000000000                              
2370001300411A0000002370193560000000271373 DELIO LUIZ BARBOSA            0000000000000000000004082022BRL000000000000000000000000117448PGIT010000036739    050820220000000001174480000000000000000000000000000000000000000            000        
2370001300412B   100088846806620                                                                                          000          000000000117448000000000000000000000000000000000000000000000000000000000000                              
